{
	"contracts/1_Tokio2_Twitter.sol": {
		"DecentralizedMessaging": {
			"abi": [
				{
					"inputs": [
						{
							"internalType": "address",
							"name": "",
							"type": "address"
						}
					],
					"name": "lastReadIndex",
					"outputs": [
						{
							"internalType": "uint256",
							"name": "",
							"type": "uint256"
						}
					],
					"stateMutability": "view",
					"type": "function"
				},
				{
					"inputs": [
						{
							"internalType": "uint256",
							"name": "",
							"type": "uint256"
						}
					],
					"name": "messages",
					"outputs": [
						{
							"internalType": "address",
							"name": "sender",
							"type": "address"
						},
						{
							"internalType": "string",
							"name": "content",
							"type": "string"
						},
						{
							"internalType": "uint256",
							"name": "timestamp",
							"type": "uint256"
						}
					],
					"stateMutability": "view",
					"type": "function"
				},
				{
					"inputs": [
						{
							"internalType": "uint256",
							"name": "_startIndex",
							"type": "uint256"
						}
					],
					"name": "readMessages",
					"outputs": [
						{
							"components": [
								{
									"internalType": "address",
									"name": "sender",
									"type": "address"
								},
								{
									"internalType": "string",
									"name": "content",
									"type": "string"
								},
								{
									"internalType": "uint256",
									"name": "timestamp",
									"type": "uint256"
								}
							],
							"internalType": "struct DecentralizedMessaging.TweetMessage[]",
							"name": "",
							"type": "tuple[]"
						}
					],
					"stateMutability": "nonpayable",
					"type": "function"
				},
				{
					"inputs": [],
					"name": "unreadMessages",
					"outputs": [
						{
							"components": [
								{
									"internalType": "address",
									"name": "sender",
									"type": "address"
								},
								{
									"internalType": "string",
									"name": "content",
									"type": "string"
								},
								{
									"internalType": "uint256",
									"name": "timestamp",
									"type": "uint256"
								}
							],
							"internalType": "struct DecentralizedMessaging.TweetMessage[]",
							"name": "",
							"type": "tuple[]"
						}
					],
					"stateMutability": "nonpayable",
					"type": "function"
				},
				{
					"inputs": [
						{
							"internalType": "string",
							"name": "_content",
							"type": "string"
						}
					],
					"name": "writeMessage",
					"outputs": [],
					"stateMutability": "nonpayable",
					"type": "function"
				}
			],
			"devdoc": {
				"details": "Store & get tweets using struct",
				"kind": "dev",
				"methods": {},
				"title": "TwitterTokio",
				"version": 1
			},
			"evm": {
				"assembly": "    /* \"contracts/1_Tokio2_Twitter.sol\":138:1754  contract DecentralizedMessaging {... */\n  mstore(0x40, 0x80)\n  callvalue\n  dup1\n  iszero\n  tag_1\n  jumpi\n  0x00\n  dup1\n  revert\ntag_1:\n  pop\n  dataSize(sub_0)\n  dup1\n  dataOffset(sub_0)\n  0x00\n  codecopy\n  0x00\n  return\nstop\n\nsub_0: assembly {\n        /* \"contracts/1_Tokio2_Twitter.sol\":138:1754  contract DecentralizedMessaging {... */\n      mstore(0x40, 0x80)\n      callvalue\n      dup1\n      iszero\n      tag_1\n      jumpi\n      0x00\n      dup1\n      revert\n    tag_1:\n      pop\n      jumpi(tag_2, lt(calldatasize, 0x04))\n      shr(0xe0, calldataload(0x00))\n      dup1\n      0x0d80fefd\n      eq\n      tag_3\n      jumpi\n      dup1\n      0x2a98e1f1\n      eq\n      tag_4\n      jumpi\n      dup1\n      0x4847e35a\n      eq\n      tag_5\n      jumpi\n      dup1\n      0xb588bfad\n      eq\n      tag_6\n      jumpi\n      dup1\n      0xfff3c457\n      eq\n      tag_7\n      jumpi\n    tag_2:\n      0x00\n      dup1\n      revert\n        /* \"contracts/1_Tokio2_Twitter.sol\":288:318  TweetMessage[] public messages */\n    tag_3:\n      tag_8\n      0x04\n      dup1\n      calldatasize\n      sub\n      dup2\n      add\n      swap1\n      tag_9\n      swap2\n      swap1\n      tag_10\n      jump\t// in\n    tag_9:\n      tag_11\n      jump\t// in\n    tag_8:\n      mload(0x40)\n      tag_12\n      swap4\n      swap3\n      swap2\n      swap1\n      tag_13\n      jump\t// in\n    tag_12:\n      mload(0x40)\n      dup1\n      swap2\n      sub\n      swap1\n      return\n        /* \"contracts/1_Tokio2_Twitter.sol\":324:372  mapping(address => uint256) public lastReadIndex */\n    tag_4:\n      tag_14\n      0x04\n      dup1\n      calldatasize\n      sub\n      dup2\n      add\n      swap1\n      tag_15\n      swap2\n      swap1\n      tag_16\n      jump\t// in\n    tag_15:\n      tag_17\n      jump\t// in\n    tag_14:\n      mload(0x40)\n      tag_18\n      swap2\n      swap1\n      tag_19\n      jump\t// in\n    tag_18:\n      mload(0x40)\n      dup1\n      swap2\n      sub\n      swap1\n      return\n        /* \"contracts/1_Tokio2_Twitter.sol\":989:1264  function unreadMessages() public returns (TweetMessage[] memory) {... */\n    tag_5:\n      tag_20\n      tag_21\n      jump\t// in\n    tag_20:\n      mload(0x40)\n      tag_22\n      swap2\n      swap1\n      tag_23\n      jump\t// in\n    tag_22:\n      mload(0x40)\n      dup1\n      swap2\n      sub\n      swap1\n      return\n        /* \"contracts/1_Tokio2_Twitter.sol\":379:597  function writeMessage(string memory _content) public {... */\n    tag_6:\n      tag_24\n      0x04\n      dup1\n      calldatasize\n      sub\n      dup2\n      add\n      swap1\n      tag_25\n      swap2\n      swap1\n      tag_26\n      jump\t// in\n    tag_25:\n      tag_27\n      jump\t// in\n    tag_24:\n      stop\n        /* \"contracts/1_Tokio2_Twitter.sol\":603:983  function readMessages(uint256 _startIndex) public returns (TweetMessage[] memory) {... */\n    tag_7:\n      tag_28\n      0x04\n      dup1\n      calldatasize\n      sub\n      dup2\n      add\n      swap1\n      tag_29\n      swap2\n      swap1\n      tag_10\n      jump\t// in\n    tag_29:\n      tag_30\n      jump\t// in\n    tag_28:\n      mload(0x40)\n      tag_31\n      swap2\n      swap1\n      tag_23\n      jump\t// in\n    tag_31:\n      mload(0x40)\n      dup1\n      swap2\n      sub\n      swap1\n      return\n        /* \"contracts/1_Tokio2_Twitter.sol\":288:318  TweetMessage[] public messages */\n    tag_11:\n      0x00\n      dup2\n      dup2\n      sload\n      dup2\n      lt\n      tag_32\n      jumpi\n      0x00\n      dup1\n      revert\n    tag_32:\n      swap1\n      0x00\n      mstore\n      keccak256(0x00, 0x20)\n      swap1\n      0x03\n      mul\n      add\n      0x00\n      swap2\n      pop\n      swap1\n      pop\n      dup1\n      0x00\n      add\n      0x00\n      swap1\n      sload\n      swap1\n      0x0100\n      exp\n      swap1\n      div\n      0xffffffffffffffffffffffffffffffffffffffff\n      and\n      swap1\n      dup1\n      0x01\n      add\n      dup1\n      sload\n      tag_34\n      swap1\n      tag_35\n      jump\t// in\n    tag_34:\n      dup1\n      0x1f\n      add\n      0x20\n      dup1\n      swap2\n      div\n      mul\n      0x20\n      add\n      mload(0x40)\n      swap1\n      dup2\n      add\n      0x40\n      mstore\n      dup1\n      swap3\n      swap2\n      swap1\n      dup2\n      dup2\n      mstore\n      0x20\n      add\n      dup3\n      dup1\n      sload\n      tag_36\n      swap1\n      tag_35\n      jump\t// in\n    tag_36:\n      dup1\n      iszero\n      tag_37\n      jumpi\n      dup1\n      0x1f\n      lt\n      tag_38\n      jumpi\n      0x0100\n      dup1\n      dup4\n      sload\n      div\n      mul\n      dup4\n      mstore\n      swap2\n      0x20\n      add\n      swap2\n      jump(tag_37)\n    tag_38:\n      dup3\n      add\n      swap2\n      swap1\n      0x00\n      mstore\n      keccak256(0x00, 0x20)\n      swap1\n    tag_39:\n      dup2\n      sload\n      dup2\n      mstore\n      swap1\n      0x01\n      add\n      swap1\n      0x20\n      add\n      dup1\n      dup4\n      gt\n      tag_39\n      jumpi\n      dup3\n      swap1\n      sub\n      0x1f\n      and\n      dup3\n      add\n      swap2\n    tag_37:\n      pop\n      pop\n      pop\n      pop\n      pop\n      swap1\n      dup1\n      0x02\n      add\n      sload\n      swap1\n      pop\n      dup4\n      jump\t// out\n        /* \"contracts/1_Tokio2_Twitter.sol\":324:372  mapping(address => uint256) public lastReadIndex */\n    tag_17:\n      mstore(0x20, 0x01)\n      dup1\n      0x00\n      mstore\n      keccak256(0x00, 0x40)\n      0x00\n      swap2\n      pop\n      swap1\n      pop\n      sload\n      dup2\n      jump\t// out\n        /* \"contracts/1_Tokio2_Twitter.sol\":989:1264  function unreadMessages() public returns (TweetMessage[] memory) {... */\n    tag_21:\n        /* \"contracts/1_Tokio2_Twitter.sol\":1031:1052  TweetMessage[] memory */\n      0x60\n        /* \"contracts/1_Tokio2_Twitter.sol\":1064:1082  uint256 startIndex */\n      0x00\n        /* \"contracts/1_Tokio2_Twitter.sol\":1085:1098  lastReadIndex */\n      0x01\n        /* \"contracts/1_Tokio2_Twitter.sol\":1085:1110  lastReadIndex[msg.sender] */\n      0x00\n        /* \"contracts/1_Tokio2_Twitter.sol\":1099:1109  msg.sender */\n      caller\n        /* \"contracts/1_Tokio2_Twitter.sol\":1085:1110  lastReadIndex[msg.sender] */\n      0xffffffffffffffffffffffffffffffffffffffff\n      and\n      0xffffffffffffffffffffffffffffffffffffffff\n      and\n      dup2\n      mstore\n      0x20\n      add\n      swap1\n      dup2\n      mstore\n      0x20\n      add\n      0x00\n      keccak256\n      sload\n        /* \"contracts/1_Tokio2_Twitter.sol\":1064:1110  uint256 startIndex = lastReadIndex[msg.sender] */\n      swap1\n      pop\n        /* \"contracts/1_Tokio2_Twitter.sol\":1120:1136  uint256 endIndex */\n      0x00\n        /* \"contracts/1_Tokio2_Twitter.sol\":1139:1147  messages */\n      dup1\n        /* \"contracts/1_Tokio2_Twitter.sol\":1139:1154  messages.length */\n      dup1\n      sload\n      swap1\n      pop\n        /* \"contracts/1_Tokio2_Twitter.sol\":1120:1154  uint256 endIndex = messages.length */\n      swap1\n      pop\n        /* \"contracts/1_Tokio2_Twitter.sol\":1192:1200  endIndex */\n      dup1\n        /* \"contracts/1_Tokio2_Twitter.sol\":1164:1177  lastReadIndex */\n      0x01\n        /* \"contracts/1_Tokio2_Twitter.sol\":1164:1189  lastReadIndex[msg.sender] */\n      0x00\n        /* \"contracts/1_Tokio2_Twitter.sol\":1178:1188  msg.sender */\n      caller\n        /* \"contracts/1_Tokio2_Twitter.sol\":1164:1189  lastReadIndex[msg.sender] */\n      0xffffffffffffffffffffffffffffffffffffffff\n      and\n      0xffffffffffffffffffffffffffffffffffffffff\n      and\n      dup2\n      mstore\n      0x20\n      add\n      swap1\n      dup2\n      mstore\n      0x20\n      add\n      0x00\n      keccak256\n        /* \"contracts/1_Tokio2_Twitter.sol\":1164:1200  lastReadIndex[msg.sender] = endIndex */\n      dup2\n      swap1\n      sstore\n      pop\n        /* \"contracts/1_Tokio2_Twitter.sol\":1217:1257  getMessagesInRange(startIndex, endIndex) */\n      tag_41\n        /* \"contracts/1_Tokio2_Twitter.sol\":1236:1246  startIndex */\n      dup3\n        /* \"contracts/1_Tokio2_Twitter.sol\":1248:1256  endIndex */\n      dup3\n        /* \"contracts/1_Tokio2_Twitter.sol\":1217:1235  getMessagesInRange */\n      tag_42\n        /* \"contracts/1_Tokio2_Twitter.sol\":1217:1257  getMessagesInRange(startIndex, endIndex) */\n      jump\t// in\n    tag_41:\n        /* \"contracts/1_Tokio2_Twitter.sol\":1210:1257  return getMessagesInRange(startIndex, endIndex) */\n      swap3\n      pop\n      pop\n      pop\n        /* \"contracts/1_Tokio2_Twitter.sol\":989:1264  function unreadMessages() public returns (TweetMessage[] memory) {... */\n      swap1\n      jump\t// out\n        /* \"contracts/1_Tokio2_Twitter.sol\":379:597  function writeMessage(string memory _content) public {... */\n    tag_27:\n        /* \"contracts/1_Tokio2_Twitter.sol\":476:479  300 */\n      0x012c\n        /* \"contracts/1_Tokio2_Twitter.sol\":456:464  _content */\n      dup2\n        /* \"contracts/1_Tokio2_Twitter.sol\":450:472  bytes(_content).length */\n      mload\n        /* \"contracts/1_Tokio2_Twitter.sol\":450:479  bytes(_content).length <= 300 */\n      gt\n      iszero\n        /* \"contracts/1_Tokio2_Twitter.sol\":442:514  require(bytes(_content).length <= 300, \"Message exceeds maximum length\") */\n      tag_44\n      jumpi\n      mload(0x40)\n      0x08c379a000000000000000000000000000000000000000000000000000000000\n      dup2\n      mstore\n      0x04\n      add\n      tag_45\n      swap1\n      tag_46\n      jump\t// in\n    tag_45:\n      mload(0x40)\n      dup1\n      swap2\n      sub\n      swap1\n      revert\n    tag_44:\n        /* \"contracts/1_Tokio2_Twitter.sol\":524:532  messages */\n      0x00\n        /* \"contracts/1_Tokio2_Twitter.sol\":538:589  TweetMessage(msg.sender, _content, block.timestamp) */\n      mload(0x40)\n      dup1\n      0x60\n      add\n      0x40\n      mstore\n      dup1\n        /* \"contracts/1_Tokio2_Twitter.sol\":551:561  msg.sender */\n      caller\n        /* \"contracts/1_Tokio2_Twitter.sol\":538:589  TweetMessage(msg.sender, _content, block.timestamp) */\n      0xffffffffffffffffffffffffffffffffffffffff\n      and\n      dup2\n      mstore\n      0x20\n      add\n        /* \"contracts/1_Tokio2_Twitter.sol\":563:571  _content */\n      dup4\n        /* \"contracts/1_Tokio2_Twitter.sol\":538:589  TweetMessage(msg.sender, _content, block.timestamp) */\n      dup2\n      mstore\n      0x20\n      add\n        /* \"contracts/1_Tokio2_Twitter.sol\":573:588  block.timestamp */\n      timestamp\n        /* \"contracts/1_Tokio2_Twitter.sol\":538:589  TweetMessage(msg.sender, _content, block.timestamp) */\n      dup2\n      mstore\n      pop\n        /* \"contracts/1_Tokio2_Twitter.sol\":524:590  messages.push(TweetMessage(msg.sender, _content, block.timestamp)) */\n      swap1\n      dup1\n      0x01\n      dup2\n      sload\n      add\n      dup1\n      dup3\n      sstore\n      dup1\n      swap2\n      pop\n      pop\n      0x01\n      swap1\n      sub\n      swap1\n      0x00\n      mstore\n      keccak256(0x00, 0x20)\n      swap1\n      0x03\n      mul\n      add\n      0x00\n      swap1\n      swap2\n      swap1\n      swap2\n      swap1\n      swap2\n      pop\n      0x00\n      dup3\n      add\n      mload\n      dup2\n      0x00\n      add\n      exp(0x0100, 0x00)\n      dup2\n      sload\n      dup2\n      0xffffffffffffffffffffffffffffffffffffffff\n      mul\n      not\n      and\n      swap1\n      dup4\n      0xffffffffffffffffffffffffffffffffffffffff\n      and\n      mul\n      or\n      swap1\n      sstore\n      pop\n      0x20\n      dup3\n      add\n      mload\n      dup2\n      0x01\n      add\n      swap1\n      dup2\n      tag_48\n      swap2\n      swap1\n      tag_49\n      jump\t// in\n    tag_48:\n      pop\n      0x40\n      dup3\n      add\n      mload\n      dup2\n      0x02\n      add\n      sstore\n      pop\n      pop\n        /* \"contracts/1_Tokio2_Twitter.sol\":379:597  function writeMessage(string memory _content) public {... */\n      pop\n      jump\t// out\n        /* \"contracts/1_Tokio2_Twitter.sol\":603:983  function readMessages(uint256 _startIndex) public returns (TweetMessage[] memory) {... */\n    tag_30:\n        /* \"contracts/1_Tokio2_Twitter.sol\":662:683  TweetMessage[] memory */\n      0x60\n        /* \"contracts/1_Tokio2_Twitter.sol\":717:725  messages */\n      0x00\n        /* \"contracts/1_Tokio2_Twitter.sol\":717:732  messages.length */\n      dup1\n      sload\n      swap1\n      pop\n        /* \"contracts/1_Tokio2_Twitter.sol\":703:714  _startIndex */\n      dup3\n        /* \"contracts/1_Tokio2_Twitter.sol\":703:732  _startIndex < messages.length */\n      lt\n        /* \"contracts/1_Tokio2_Twitter.sol\":695:762  require(_startIndex < messages.length, \"Start index out of bounds\") */\n      tag_51\n      jumpi\n      mload(0x40)\n      0x08c379a000000000000000000000000000000000000000000000000000000000\n      dup2\n      mstore\n      0x04\n      add\n      tag_52\n      swap1\n      tag_53\n      jump\t// in\n    tag_52:\n      mload(0x40)\n      dup1\n      swap2\n      sub\n      swap1\n      revert\n    tag_51:\n        /* \"contracts/1_Tokio2_Twitter.sol\":772:788  uint256 endIndex */\n      0x00\n        /* \"contracts/1_Tokio2_Twitter.sol\":791:799  messages */\n      dup1\n        /* \"contracts/1_Tokio2_Twitter.sol\":791:806  messages.length */\n      dup1\n      sload\n      swap1\n      pop\n        /* \"contracts/1_Tokio2_Twitter.sol\":772:806  uint256 endIndex = messages.length */\n      swap1\n      pop\n        /* \"contracts/1_Tokio2_Twitter.sol\":848:856  endIndex */\n      dup1\n        /* \"contracts/1_Tokio2_Twitter.sol\":820:833  lastReadIndex */\n      0x01\n        /* \"contracts/1_Tokio2_Twitter.sol\":820:845  lastReadIndex[msg.sender] */\n      0x00\n        /* \"contracts/1_Tokio2_Twitter.sol\":834:844  msg.sender */\n      caller\n        /* \"contracts/1_Tokio2_Twitter.sol\":820:845  lastReadIndex[msg.sender] */\n      0xffffffffffffffffffffffffffffffffffffffff\n      and\n      0xffffffffffffffffffffffffffffffffffffffff\n      and\n      dup2\n      mstore\n      0x20\n      add\n      swap1\n      dup2\n      mstore\n      0x20\n      add\n      0x00\n      keccak256\n      sload\n        /* \"contracts/1_Tokio2_Twitter.sol\":820:856  lastReadIndex[msg.sender] < endIndex */\n      lt\n        /* \"contracts/1_Tokio2_Twitter.sol\":816:919  if (lastReadIndex[msg.sender] < endIndex) {... */\n      iszero\n      tag_54\n      jumpi\n        /* \"contracts/1_Tokio2_Twitter.sol\":900:908  endIndex */\n      dup1\n        /* \"contracts/1_Tokio2_Twitter.sol\":872:885  lastReadIndex */\n      0x01\n        /* \"contracts/1_Tokio2_Twitter.sol\":872:897  lastReadIndex[msg.sender] */\n      0x00\n        /* \"contracts/1_Tokio2_Twitter.sol\":886:896  msg.sender */\n      caller\n        /* \"contracts/1_Tokio2_Twitter.sol\":872:897  lastReadIndex[msg.sender] */\n      0xffffffffffffffffffffffffffffffffffffffff\n      and\n      0xffffffffffffffffffffffffffffffffffffffff\n      and\n      dup2\n      mstore\n      0x20\n      add\n      swap1\n      dup2\n      mstore\n      0x20\n      add\n      0x00\n      keccak256\n        /* \"contracts/1_Tokio2_Twitter.sol\":872:908  lastReadIndex[msg.sender] = endIndex */\n      dup2\n      swap1\n      sstore\n      pop\n        /* \"contracts/1_Tokio2_Twitter.sol\":816:919  if (lastReadIndex[msg.sender] < endIndex) {... */\n    tag_54:\n        /* \"contracts/1_Tokio2_Twitter.sol\":935:976  getMessagesInRange(_startIndex, endIndex) */\n      tag_55\n        /* \"contracts/1_Tokio2_Twitter.sol\":954:965  _startIndex */\n      dup4\n        /* \"contracts/1_Tokio2_Twitter.sol\":967:975  endIndex */\n      dup3\n        /* \"contracts/1_Tokio2_Twitter.sol\":935:953  getMessagesInRange */\n      tag_42\n        /* \"contracts/1_Tokio2_Twitter.sol\":935:976  getMessagesInRange(_startIndex, endIndex) */\n      jump\t// in\n    tag_55:\n        /* \"contracts/1_Tokio2_Twitter.sol\":928:976  return getMessagesInRange(_startIndex, endIndex) */\n      swap2\n      pop\n      pop\n        /* \"contracts/1_Tokio2_Twitter.sol\":603:983  function readMessages(uint256 _startIndex) public returns (TweetMessage[] memory) {... */\n      swap2\n      swap1\n      pop\n      jump\t// out\n        /* \"contracts/1_Tokio2_Twitter.sol\":1270:1752  function getMessagesInRange(uint256 _startIndex, uint256 _endIndex) private view returns (TweetMessage[] memory) {... */\n    tag_42:\n        /* \"contracts/1_Tokio2_Twitter.sol\":1360:1381  TweetMessage[] memory */\n      0x60\n        /* \"contracts/1_Tokio2_Twitter.sol\":1415:1424  _endIndex */\n      dup2\n        /* \"contracts/1_Tokio2_Twitter.sol\":1401:1412  _startIndex */\n      dup4\n        /* \"contracts/1_Tokio2_Twitter.sol\":1401:1424  _startIndex < _endIndex */\n      lt\n        /* \"contracts/1_Tokio2_Twitter.sol\":1401:1456  _startIndex < _endIndex && _endIndex <= messages.length */\n      dup1\n      iszero\n      tag_57\n      jumpi\n      pop\n        /* \"contracts/1_Tokio2_Twitter.sol\":1441:1449  messages */\n      0x00\n        /* \"contracts/1_Tokio2_Twitter.sol\":1441:1456  messages.length */\n      dup1\n      sload\n      swap1\n      pop\n        /* \"contracts/1_Tokio2_Twitter.sol\":1428:1437  _endIndex */\n      dup3\n        /* \"contracts/1_Tokio2_Twitter.sol\":1428:1456  _endIndex <= messages.length */\n      gt\n      iszero\n        /* \"contracts/1_Tokio2_Twitter.sol\":1401:1456  _startIndex < _endIndex && _endIndex <= messages.length */\n    tag_57:\n        /* \"contracts/1_Tokio2_Twitter.sol\":1393:1474  require(_startIndex < _endIndex && _endIndex <= messages.length, \"Invalid range\") */\n      tag_58\n      jumpi\n      mload(0x40)\n      0x08c379a000000000000000000000000000000000000000000000000000000000\n      dup2\n      mstore\n      0x04\n      add\n      tag_59\n      swap1\n      tag_60\n      jump\t// in\n    tag_59:\n      mload(0x40)\n      dup1\n      swap2\n      sub\n      swap1\n      revert\n    tag_58:\n        /* \"contracts/1_Tokio2_Twitter.sol\":1484:1503  uint256 numMessages */\n      0x00\n        /* \"contracts/1_Tokio2_Twitter.sol\":1518:1529  _startIndex */\n      dup4\n        /* \"contracts/1_Tokio2_Twitter.sol\":1506:1515  _endIndex */\n      dup4\n        /* \"contracts/1_Tokio2_Twitter.sol\":1506:1529  _endIndex - _startIndex */\n      tag_61\n      swap2\n      swap1\n      tag_62\n      jump\t// in\n    tag_61:\n        /* \"contracts/1_Tokio2_Twitter.sol\":1484:1529  uint256 numMessages = _endIndex - _startIndex */\n      swap1\n      pop\n        /* \"contracts/1_Tokio2_Twitter.sol\":1539:1567  TweetMessage[] memory result */\n      0x00\n        /* \"contracts/1_Tokio2_Twitter.sol\":1589:1600  numMessages */\n      dup2\n        /* \"contracts/1_Tokio2_Twitter.sol\":1570:1601  new TweetMessage[](numMessages) */\n      0xffffffffffffffff\n      dup2\n      gt\n      iszero\n      tag_63\n      jumpi\n      tag_64\n      tag_65\n      jump\t// in\n    tag_64:\n    tag_63:\n      mload(0x40)\n      swap1\n      dup1\n      dup3\n      mstore\n      dup1\n      0x20\n      mul\n      0x20\n      add\n      dup3\n      add\n      0x40\n      mstore\n      dup1\n      iszero\n      tag_66\n      jumpi\n      dup2\n      0x20\n      add\n    tag_67:\n      tag_68\n      tag_69\n      jump\t// in\n    tag_68:\n      dup2\n      mstore\n      0x20\n      add\n      swap1\n      0x01\n      swap1\n      sub\n      swap1\n      dup2\n      tag_67\n      jumpi\n      swap1\n      pop\n    tag_66:\n      pop\n        /* \"contracts/1_Tokio2_Twitter.sol\":1539:1601  TweetMessage[] memory result = new TweetMessage[](numMessages) */\n      swap1\n      pop\n        /* \"contracts/1_Tokio2_Twitter.sol\":1616:1625  uint256 i */\n      0x00\n        /* \"contracts/1_Tokio2_Twitter.sol\":1628:1639  _startIndex */\n      dup6\n        /* \"contracts/1_Tokio2_Twitter.sol\":1616:1639  uint256 i = _startIndex */\n      swap1\n      pop\n        /* \"contracts/1_Tokio2_Twitter.sol\":1611:1723  for (uint256 i = _startIndex; i < _endIndex; i++) {... */\n    tag_70:\n        /* \"contracts/1_Tokio2_Twitter.sol\":1645:1654  _endIndex */\n      dup5\n        /* \"contracts/1_Tokio2_Twitter.sol\":1641:1642  i */\n      dup2\n        /* \"contracts/1_Tokio2_Twitter.sol\":1641:1654  i < _endIndex */\n      lt\n        /* \"contracts/1_Tokio2_Twitter.sol\":1611:1723  for (uint256 i = _startIndex; i < _endIndex; i++) {... */\n      iszero\n      tag_71\n      jumpi\n        /* \"contracts/1_Tokio2_Twitter.sol\":1701:1709  messages */\n      0x00\n        /* \"contracts/1_Tokio2_Twitter.sol\":1710:1711  i */\n      dup2\n        /* \"contracts/1_Tokio2_Twitter.sol\":1701:1712  messages[i] */\n      dup2\n      sload\n      dup2\n      lt\n      tag_73\n      jumpi\n      tag_74\n      tag_75\n      jump\t// in\n    tag_74:\n    tag_73:\n      swap1\n      0x00\n      mstore\n      keccak256(0x00, 0x20)\n      swap1\n      0x03\n      mul\n      add\n        /* \"contracts/1_Tokio2_Twitter.sol\":1675:1712  result[i - _startIndex] = messages[i] */\n      mload(0x40)\n      dup1\n      0x60\n      add\n      0x40\n      mstore\n      swap1\n      dup2\n      0x00\n      dup3\n      add\n      0x00\n      swap1\n      sload\n      swap1\n      0x0100\n      exp\n      swap1\n      div\n      0xffffffffffffffffffffffffffffffffffffffff\n      and\n      0xffffffffffffffffffffffffffffffffffffffff\n      and\n      0xffffffffffffffffffffffffffffffffffffffff\n      and\n      dup2\n      mstore\n      0x20\n      add\n      0x01\n      dup3\n      add\n      dup1\n      sload\n      tag_77\n      swap1\n      tag_35\n      jump\t// in\n    tag_77:\n      dup1\n      0x1f\n      add\n      0x20\n      dup1\n      swap2\n      div\n      mul\n      0x20\n      add\n      mload(0x40)\n      swap1\n      dup2\n      add\n      0x40\n      mstore\n      dup1\n      swap3\n      swap2\n      swap1\n      dup2\n      dup2\n      mstore\n      0x20\n      add\n      dup3\n      dup1\n      sload\n      tag_78\n      swap1\n      tag_35\n      jump\t// in\n    tag_78:\n      dup1\n      iszero\n      tag_79\n      jumpi\n      dup1\n      0x1f\n      lt\n      tag_80\n      jumpi\n      0x0100\n      dup1\n      dup4\n      sload\n      div\n      mul\n      dup4\n      mstore\n      swap2\n      0x20\n      add\n      swap2\n      jump(tag_79)\n    tag_80:\n      dup3\n      add\n      swap2\n      swap1\n      0x00\n      mstore\n      keccak256(0x00, 0x20)\n      swap1\n    tag_81:\n      dup2\n      sload\n      dup2\n      mstore\n      swap1\n      0x01\n      add\n      swap1\n      0x20\n      add\n      dup1\n      dup4\n      gt\n      tag_81\n      jumpi\n      dup3\n      swap1\n      sub\n      0x1f\n      and\n      dup3\n      add\n      swap2\n    tag_79:\n      pop\n      pop\n      pop\n      pop\n      pop\n      dup2\n      mstore\n      0x20\n      add\n      0x02\n      dup3\n      add\n      sload\n      dup2\n      mstore\n      pop\n      pop\n        /* \"contracts/1_Tokio2_Twitter.sol\":1675:1681  result */\n      dup3\n        /* \"contracts/1_Tokio2_Twitter.sol\":1686:1697  _startIndex */\n      dup8\n        /* \"contracts/1_Tokio2_Twitter.sol\":1682:1683  i */\n      dup4\n        /* \"contracts/1_Tokio2_Twitter.sol\":1682:1697  i - _startIndex */\n      tag_82\n      swap2\n      swap1\n      tag_62\n      jump\t// in\n    tag_82:\n        /* \"contracts/1_Tokio2_Twitter.sol\":1675:1698  result[i - _startIndex] */\n      dup2\n      mload\n      dup2\n      lt\n      tag_83\n      jumpi\n      tag_84\n      tag_75\n      jump\t// in\n    tag_84:\n    tag_83:\n      0x20\n      mul\n      0x20\n      add\n      add\n        /* \"contracts/1_Tokio2_Twitter.sol\":1675:1712  result[i - _startIndex] = messages[i] */\n      dup2\n      swap1\n      mstore\n      pop\n        /* \"contracts/1_Tokio2_Twitter.sol\":1656:1659  i++ */\n      dup1\n      dup1\n      0x01\n      add\n      swap2\n      pop\n      pop\n        /* \"contracts/1_Tokio2_Twitter.sol\":1611:1723  for (uint256 i = _startIndex; i < _endIndex; i++) {... */\n      jump(tag_70)\n    tag_71:\n      pop\n        /* \"contracts/1_Tokio2_Twitter.sol\":1739:1745  result */\n      dup1\n        /* \"contracts/1_Tokio2_Twitter.sol\":1732:1745  return result */\n      swap3\n      pop\n      pop\n      pop\n        /* \"contracts/1_Tokio2_Twitter.sol\":1270:1752  function getMessagesInRange(uint256 _startIndex, uint256 _endIndex) private view returns (TweetMessage[] memory) {... */\n      swap3\n      swap2\n      pop\n      pop\n      jump\t// out\n    tag_69:\n      mload(0x40)\n      dup1\n      0x60\n      add\n      0x40\n      mstore\n      dup1\n      and(0xffffffffffffffffffffffffffffffffffffffff, 0x00)\n      dup2\n      mstore\n      0x20\n      add\n      0x60\n      dup2\n      mstore\n      0x20\n      add\n      0x00\n      dup2\n      mstore\n      pop\n      swap1\n      jump\t// out\n        /* \"#utility.yul\":7:82   */\n    tag_85:\n        /* \"#utility.yul\":40:46   */\n      0x00\n        /* \"#utility.yul\":73:75   */\n      0x40\n        /* \"#utility.yul\":67:76   */\n      mload\n        /* \"#utility.yul\":57:76   */\n      swap1\n      pop\n        /* \"#utility.yul\":7:82   */\n      swap1\n      jump\t// out\n        /* \"#utility.yul\":88:205   */\n    tag_86:\n        /* \"#utility.yul\":197:198   */\n      0x00\n        /* \"#utility.yul\":194:195   */\n      dup1\n        /* \"#utility.yul\":187:199   */\n      revert\n        /* \"#utility.yul\":211:328   */\n    tag_87:\n        /* \"#utility.yul\":320:321   */\n      0x00\n        /* \"#utility.yul\":317:318   */\n      dup1\n        /* \"#utility.yul\":310:322   */\n      revert\n        /* \"#utility.yul\":334:411   */\n    tag_88:\n        /* \"#utility.yul\":371:378   */\n      0x00\n        /* \"#utility.yul\":400:405   */\n      dup2\n        /* \"#utility.yul\":389:405   */\n      swap1\n      pop\n        /* \"#utility.yul\":334:411   */\n      swap2\n      swap1\n      pop\n      jump\t// out\n        /* \"#utility.yul\":417:539   */\n    tag_89:\n        /* \"#utility.yul\":490:514   */\n      tag_150\n        /* \"#utility.yul\":508:513   */\n      dup2\n        /* \"#utility.yul\":490:514   */\n      tag_88\n      jump\t// in\n    tag_150:\n        /* \"#utility.yul\":483:488   */\n      dup2\n        /* \"#utility.yul\":480:515   */\n      eq\n        /* \"#utility.yul\":470:533   */\n      tag_151\n      jumpi\n        /* \"#utility.yul\":529:530   */\n      0x00\n        /* \"#utility.yul\":526:527   */\n      dup1\n        /* \"#utility.yul\":519:531   */\n      revert\n        /* \"#utility.yul\":470:533   */\n    tag_151:\n        /* \"#utility.yul\":417:539   */\n      pop\n      jump\t// out\n        /* \"#utility.yul\":545:684   */\n    tag_90:\n        /* \"#utility.yul\":591:596   */\n      0x00\n        /* \"#utility.yul\":629:635   */\n      dup2\n        /* \"#utility.yul\":616:636   */\n      calldataload\n        /* \"#utility.yul\":607:636   */\n      swap1\n      pop\n        /* \"#utility.yul\":645:678   */\n      tag_153\n        /* \"#utility.yul\":672:677   */\n      dup2\n        /* \"#utility.yul\":645:678   */\n      tag_89\n      jump\t// in\n    tag_153:\n        /* \"#utility.yul\":545:684   */\n      swap3\n      swap2\n      pop\n      pop\n      jump\t// out\n        /* \"#utility.yul\":690:1019   */\n    tag_10:\n        /* \"#utility.yul\":749:755   */\n      0x00\n        /* \"#utility.yul\":798:800   */\n      0x20\n        /* \"#utility.yul\":786:795   */\n      dup3\n        /* \"#utility.yul\":777:784   */\n      dup5\n        /* \"#utility.yul\":773:796   */\n      sub\n        /* \"#utility.yul\":769:801   */\n      slt\n        /* \"#utility.yul\":766:885   */\n      iszero\n      tag_155\n      jumpi\n        /* \"#utility.yul\":804:883   */\n      tag_156\n      tag_86\n      jump\t// in\n    tag_156:\n        /* \"#utility.yul\":766:885   */\n    tag_155:\n        /* \"#utility.yul\":924:925   */\n      0x00\n        /* \"#utility.yul\":949:1002   */\n      tag_157\n        /* \"#utility.yul\":994:1001   */\n      dup5\n        /* \"#utility.yul\":985:991   */\n      dup3\n        /* \"#utility.yul\":974:983   */\n      dup6\n        /* \"#utility.yul\":970:992   */\n      add\n        /* \"#utility.yul\":949:1002   */\n      tag_90\n      jump\t// in\n    tag_157:\n        /* \"#utility.yul\":939:1002   */\n      swap2\n      pop\n        /* \"#utility.yul\":895:1012   */\n      pop\n        /* \"#utility.yul\":690:1019   */\n      swap3\n      swap2\n      pop\n      pop\n      jump\t// out\n        /* \"#utility.yul\":1025:1151   */\n    tag_91:\n        /* \"#utility.yul\":1062:1069   */\n      0x00\n        /* \"#utility.yul\":1102:1144   */\n      0xffffffffffffffffffffffffffffffffffffffff\n        /* \"#utility.yul\":1095:1100   */\n      dup3\n        /* \"#utility.yul\":1091:1145   */\n      and\n        /* \"#utility.yul\":1080:1145   */\n      swap1\n      pop\n        /* \"#utility.yul\":1025:1151   */\n      swap2\n      swap1\n      pop\n      jump\t// out\n        /* \"#utility.yul\":1157:1253   */\n    tag_92:\n        /* \"#utility.yul\":1194:1201   */\n      0x00\n        /* \"#utility.yul\":1223:1247   */\n      tag_160\n        /* \"#utility.yul\":1241:1246   */\n      dup3\n        /* \"#utility.yul\":1223:1247   */\n      tag_91\n      jump\t// in\n    tag_160:\n        /* \"#utility.yul\":1212:1247   */\n      swap1\n      pop\n        /* \"#utility.yul\":1157:1253   */\n      swap2\n      swap1\n      pop\n      jump\t// out\n        /* \"#utility.yul\":1259:1377   */\n    tag_93:\n        /* \"#utility.yul\":1346:1370   */\n      tag_162\n        /* \"#utility.yul\":1364:1369   */\n      dup2\n        /* \"#utility.yul\":1346:1370   */\n      tag_92\n      jump\t// in\n    tag_162:\n        /* \"#utility.yul\":1341:1344   */\n      dup3\n        /* \"#utility.yul\":1334:1371   */\n      mstore\n        /* \"#utility.yul\":1259:1377   */\n      pop\n      pop\n      jump\t// out\n        /* \"#utility.yul\":1383:1482   */\n    tag_94:\n        /* \"#utility.yul\":1435:1441   */\n      0x00\n        /* \"#utility.yul\":1469:1474   */\n      dup2\n        /* \"#utility.yul\":1463:1475   */\n      mload\n        /* \"#utility.yul\":1453:1475   */\n      swap1\n      pop\n        /* \"#utility.yul\":1383:1482   */\n      swap2\n      swap1\n      pop\n      jump\t// out\n        /* \"#utility.yul\":1488:1657   */\n    tag_95:\n        /* \"#utility.yul\":1572:1583   */\n      0x00\n        /* \"#utility.yul\":1606:1612   */\n      dup3\n        /* \"#utility.yul\":1601:1604   */\n      dup3\n        /* \"#utility.yul\":1594:1613   */\n      mstore\n        /* \"#utility.yul\":1646:1650   */\n      0x20\n        /* \"#utility.yul\":1641:1644   */\n      dup3\n        /* \"#utility.yul\":1637:1651   */\n      add\n        /* \"#utility.yul\":1622:1651   */\n      swap1\n      pop\n        /* \"#utility.yul\":1488:1657   */\n      swap3\n      swap2\n      pop\n      pop\n      jump\t// out\n        /* \"#utility.yul\":1663:1802   */\n    tag_96:\n        /* \"#utility.yul\":1752:1758   */\n      dup3\n        /* \"#utility.yul\":1747:1750   */\n      dup2\n        /* \"#utility.yul\":1742:1745   */\n      dup4\n        /* \"#utility.yul\":1736:1759   */\n      mcopy\n        /* \"#utility.yul\":1793:1794   */\n      0x00\n        /* \"#utility.yul\":1784:1790   */\n      dup4\n        /* \"#utility.yul\":1779:1782   */\n      dup4\n        /* \"#utility.yul\":1775:1791   */\n      add\n        /* \"#utility.yul\":1768:1795   */\n      mstore\n        /* \"#utility.yul\":1663:1802   */\n      pop\n      pop\n      pop\n      jump\t// out\n        /* \"#utility.yul\":1808:1910   */\n    tag_97:\n        /* \"#utility.yul\":1849:1855   */\n      0x00\n        /* \"#utility.yul\":1900:1902   */\n      0x1f\n        /* \"#utility.yul\":1896:1903   */\n      not\n        /* \"#utility.yul\":1891:1893   */\n      0x1f\n        /* \"#utility.yul\":1884:1889   */\n      dup4\n        /* \"#utility.yul\":1880:1894   */\n      add\n        /* \"#utility.yul\":1876:1904   */\n      and\n        /* \"#utility.yul\":1866:1904   */\n      swap1\n      pop\n        /* \"#utility.yul\":1808:1910   */\n      swap2\n      swap1\n      pop\n      jump\t// out\n        /* \"#utility.yul\":1916:2293   */\n    tag_98:\n        /* \"#utility.yul\":2004:2007   */\n      0x00\n        /* \"#utility.yul\":2032:2071   */\n      tag_168\n        /* \"#utility.yul\":2065:2070   */\n      dup3\n        /* \"#utility.yul\":2032:2071   */\n      tag_94\n      jump\t// in\n    tag_168:\n        /* \"#utility.yul\":2087:2158   */\n      tag_169\n        /* \"#utility.yul\":2151:2157   */\n      dup2\n        /* \"#utility.yul\":2146:2149   */\n      dup6\n        /* \"#utility.yul\":2087:2158   */\n      tag_95\n      jump\t// in\n    tag_169:\n        /* \"#utility.yul\":2080:2158   */\n      swap4\n      pop\n        /* \"#utility.yul\":2167:2232   */\n      tag_170\n        /* \"#utility.yul\":2225:2231   */\n      dup2\n        /* \"#utility.yul\":2220:2223   */\n      dup6\n        /* \"#utility.yul\":2213:2217   */\n      0x20\n        /* \"#utility.yul\":2206:2211   */\n      dup7\n        /* \"#utility.yul\":2202:2218   */\n      add\n        /* \"#utility.yul\":2167:2232   */\n      tag_96\n      jump\t// in\n    tag_170:\n        /* \"#utility.yul\":2257:2286   */\n      tag_171\n        /* \"#utility.yul\":2279:2285   */\n      dup2\n        /* \"#utility.yul\":2257:2286   */\n      tag_97\n      jump\t// in\n    tag_171:\n        /* \"#utility.yul\":2252:2255   */\n      dup5\n        /* \"#utility.yul\":2248:2287   */\n      add\n        /* \"#utility.yul\":2241:2287   */\n      swap2\n      pop\n        /* \"#utility.yul\":2008:2293   */\n      pop\n        /* \"#utility.yul\":1916:2293   */\n      swap3\n      swap2\n      pop\n      pop\n      jump\t// out\n        /* \"#utility.yul\":2299:2417   */\n    tag_99:\n        /* \"#utility.yul\":2386:2410   */\n      tag_173\n        /* \"#utility.yul\":2404:2409   */\n      dup2\n        /* \"#utility.yul\":2386:2410   */\n      tag_88\n      jump\t// in\n    tag_173:\n        /* \"#utility.yul\":2381:2384   */\n      dup3\n        /* \"#utility.yul\":2374:2411   */\n      mstore\n        /* \"#utility.yul\":2299:2417   */\n      pop\n      pop\n      jump\t// out\n        /* \"#utility.yul\":2423:2956   */\n    tag_13:\n        /* \"#utility.yul\":2592:2596   */\n      0x00\n        /* \"#utility.yul\":2630:2632   */\n      0x60\n        /* \"#utility.yul\":2619:2628   */\n      dup3\n        /* \"#utility.yul\":2615:2633   */\n      add\n        /* \"#utility.yul\":2607:2633   */\n      swap1\n      pop\n        /* \"#utility.yul\":2643:2714   */\n      tag_175\n        /* \"#utility.yul\":2711:2712   */\n      0x00\n        /* \"#utility.yul\":2700:2709   */\n      dup4\n        /* \"#utility.yul\":2696:2713   */\n      add\n        /* \"#utility.yul\":2687:2693   */\n      dup7\n        /* \"#utility.yul\":2643:2714   */\n      tag_93\n      jump\t// in\n    tag_175:\n        /* \"#utility.yul\":2761:2770   */\n      dup2\n        /* \"#utility.yul\":2755:2759   */\n      dup2\n        /* \"#utility.yul\":2751:2771   */\n      sub\n        /* \"#utility.yul\":2746:2748   */\n      0x20\n        /* \"#utility.yul\":2735:2744   */\n      dup4\n        /* \"#utility.yul\":2731:2749   */\n      add\n        /* \"#utility.yul\":2724:2772   */\n      mstore\n        /* \"#utility.yul\":2789:2867   */\n      tag_176\n        /* \"#utility.yul\":2862:2866   */\n      dup2\n        /* \"#utility.yul\":2853:2859   */\n      dup6\n        /* \"#utility.yul\":2789:2867   */\n      tag_98\n      jump\t// in\n    tag_176:\n        /* \"#utility.yul\":2781:2867   */\n      swap1\n      pop\n        /* \"#utility.yul\":2877:2949   */\n      tag_177\n        /* \"#utility.yul\":2945:2947   */\n      0x40\n        /* \"#utility.yul\":2934:2943   */\n      dup4\n        /* \"#utility.yul\":2930:2948   */\n      add\n        /* \"#utility.yul\":2921:2927   */\n      dup5\n        /* \"#utility.yul\":2877:2949   */\n      tag_99\n      jump\t// in\n    tag_177:\n        /* \"#utility.yul\":2423:2956   */\n      swap5\n      swap4\n      pop\n      pop\n      pop\n      pop\n      jump\t// out\n        /* \"#utility.yul\":2962:3084   */\n    tag_100:\n        /* \"#utility.yul\":3035:3059   */\n      tag_179\n        /* \"#utility.yul\":3053:3058   */\n      dup2\n        /* \"#utility.yul\":3035:3059   */\n      tag_92\n      jump\t// in\n    tag_179:\n        /* \"#utility.yul\":3028:3033   */\n      dup2\n        /* \"#utility.yul\":3025:3060   */\n      eq\n        /* \"#utility.yul\":3015:3078   */\n      tag_180\n      jumpi\n        /* \"#utility.yul\":3074:3075   */\n      0x00\n        /* \"#utility.yul\":3071:3072   */\n      dup1\n        /* \"#utility.yul\":3064:3076   */\n      revert\n        /* \"#utility.yul\":3015:3078   */\n    tag_180:\n        /* \"#utility.yul\":2962:3084   */\n      pop\n      jump\t// out\n        /* \"#utility.yul\":3090:3229   */\n    tag_101:\n        /* \"#utility.yul\":3136:3141   */\n      0x00\n        /* \"#utility.yul\":3174:3180   */\n      dup2\n        /* \"#utility.yul\":3161:3181   */\n      calldataload\n        /* \"#utility.yul\":3152:3181   */\n      swap1\n      pop\n        /* \"#utility.yul\":3190:3223   */\n      tag_182\n        /* \"#utility.yul\":3217:3222   */\n      dup2\n        /* \"#utility.yul\":3190:3223   */\n      tag_100\n      jump\t// in\n    tag_182:\n        /* \"#utility.yul\":3090:3229   */\n      swap3\n      swap2\n      pop\n      pop\n      jump\t// out\n        /* \"#utility.yul\":3235:3564   */\n    tag_16:\n        /* \"#utility.yul\":3294:3300   */\n      0x00\n        /* \"#utility.yul\":3343:3345   */\n      0x20\n        /* \"#utility.yul\":3331:3340   */\n      dup3\n        /* \"#utility.yul\":3322:3329   */\n      dup5\n        /* \"#utility.yul\":3318:3341   */\n      sub\n        /* \"#utility.yul\":3314:3346   */\n      slt\n        /* \"#utility.yul\":3311:3430   */\n      iszero\n      tag_184\n      jumpi\n        /* \"#utility.yul\":3349:3428   */\n      tag_185\n      tag_86\n      jump\t// in\n    tag_185:\n        /* \"#utility.yul\":3311:3430   */\n    tag_184:\n        /* \"#utility.yul\":3469:3470   */\n      0x00\n        /* \"#utility.yul\":3494:3547   */\n      tag_186\n        /* \"#utility.yul\":3539:3546   */\n      dup5\n        /* \"#utility.yul\":3530:3536   */\n      dup3\n        /* \"#utility.yul\":3519:3528   */\n      dup6\n        /* \"#utility.yul\":3515:3537   */\n      add\n        /* \"#utility.yul\":3494:3547   */\n      tag_101\n      jump\t// in\n    tag_186:\n        /* \"#utility.yul\":3484:3547   */\n      swap2\n      pop\n        /* \"#utility.yul\":3440:3557   */\n      pop\n        /* \"#utility.yul\":3235:3564   */\n      swap3\n      swap2\n      pop\n      pop\n      jump\t// out\n        /* \"#utility.yul\":3570:3792   */\n    tag_19:\n        /* \"#utility.yul\":3663:3667   */\n      0x00\n        /* \"#utility.yul\":3701:3703   */\n      0x20\n        /* \"#utility.yul\":3690:3699   */\n      dup3\n        /* \"#utility.yul\":3686:3704   */\n      add\n        /* \"#utility.yul\":3678:3704   */\n      swap1\n      pop\n        /* \"#utility.yul\":3714:3785   */\n      tag_188\n        /* \"#utility.yul\":3782:3783   */\n      0x00\n        /* \"#utility.yul\":3771:3780   */\n      dup4\n        /* \"#utility.yul\":3767:3784   */\n      add\n        /* \"#utility.yul\":3758:3764   */\n      dup5\n        /* \"#utility.yul\":3714:3785   */\n      tag_99\n      jump\t// in\n    tag_188:\n        /* \"#utility.yul\":3570:3792   */\n      swap3\n      swap2\n      pop\n      pop\n      jump\t// out\n        /* \"#utility.yul\":3798:3939   */\n    tag_102:\n        /* \"#utility.yul\":3892:3898   */\n      0x00\n        /* \"#utility.yul\":3926:3931   */\n      dup2\n        /* \"#utility.yul\":3920:3932   */\n      mload\n        /* \"#utility.yul\":3910:3932   */\n      swap1\n      pop\n        /* \"#utility.yul\":3798:3939   */\n      swap2\n      swap1\n      pop\n      jump\t// out\n        /* \"#utility.yul\":3945:4156   */\n    tag_103:\n        /* \"#utility.yul\":4071:4082   */\n      0x00\n        /* \"#utility.yul\":4105:4111   */\n      dup3\n        /* \"#utility.yul\":4100:4103   */\n      dup3\n        /* \"#utility.yul\":4093:4112   */\n      mstore\n        /* \"#utility.yul\":4145:4149   */\n      0x20\n        /* \"#utility.yul\":4140:4143   */\n      dup3\n        /* \"#utility.yul\":4136:4150   */\n      add\n        /* \"#utility.yul\":4121:4150   */\n      swap1\n      pop\n        /* \"#utility.yul\":3945:4156   */\n      swap3\n      swap2\n      pop\n      pop\n      jump\t// out\n        /* \"#utility.yul\":4162:4321   */\n    tag_104:\n        /* \"#utility.yul\":4256:4260   */\n      0x00\n        /* \"#utility.yul\":4279:4282   */\n      dup2\n        /* \"#utility.yul\":4271:4282   */\n      swap1\n      pop\n        /* \"#utility.yul\":4309:4313   */\n      0x20\n        /* \"#utility.yul\":4304:4307   */\n      dup3\n        /* \"#utility.yul\":4300:4314   */\n      add\n        /* \"#utility.yul\":4292:4314   */\n      swap1\n      pop\n        /* \"#utility.yul\":4162:4321   */\n      swap2\n      swap1\n      pop\n      jump\t// out\n        /* \"#utility.yul\":4327:4435   */\n    tag_105:\n        /* \"#utility.yul\":4404:4428   */\n      tag_193\n        /* \"#utility.yul\":4422:4427   */\n      dup2\n        /* \"#utility.yul\":4404:4428   */\n      tag_92\n      jump\t// in\n    tag_193:\n        /* \"#utility.yul\":4399:4402   */\n      dup3\n        /* \"#utility.yul\":4392:4429   */\n      mstore\n        /* \"#utility.yul\":4327:4435   */\n      pop\n      pop\n      jump\t// out\n        /* \"#utility.yul\":4441:4600   */\n    tag_106:\n        /* \"#utility.yul\":4515:4526   */\n      0x00\n        /* \"#utility.yul\":4549:4555   */\n      dup3\n        /* \"#utility.yul\":4544:4547   */\n      dup3\n        /* \"#utility.yul\":4537:4556   */\n      mstore\n        /* \"#utility.yul\":4589:4593   */\n      0x20\n        /* \"#utility.yul\":4584:4587   */\n      dup3\n        /* \"#utility.yul\":4580:4594   */\n      add\n        /* \"#utility.yul\":4565:4594   */\n      swap1\n      pop\n        /* \"#utility.yul\":4441:4600   */\n      swap3\n      swap2\n      pop\n      pop\n      jump\t// out\n        /* \"#utility.yul\":4606:4963   */\n    tag_107:\n        /* \"#utility.yul\":4684:4687   */\n      0x00\n        /* \"#utility.yul\":4712:4751   */\n      tag_196\n        /* \"#utility.yul\":4745:4750   */\n      dup3\n        /* \"#utility.yul\":4712:4751   */\n      tag_94\n      jump\t// in\n    tag_196:\n        /* \"#utility.yul\":4767:4828   */\n      tag_197\n        /* \"#utility.yul\":4821:4827   */\n      dup2\n        /* \"#utility.yul\":4816:4819   */\n      dup6\n        /* \"#utility.yul\":4767:4828   */\n      tag_106\n      jump\t// in\n    tag_197:\n        /* \"#utility.yul\":4760:4828   */\n      swap4\n      pop\n        /* \"#utility.yul\":4837:4902   */\n      tag_198\n        /* \"#utility.yul\":4895:4901   */\n      dup2\n        /* \"#utility.yul\":4890:4893   */\n      dup6\n        /* \"#utility.yul\":4883:4887   */\n      0x20\n        /* \"#utility.yul\":4876:4881   */\n      dup7\n        /* \"#utility.yul\":4872:4888   */\n      add\n        /* \"#utility.yul\":4837:4902   */\n      tag_96\n      jump\t// in\n    tag_198:\n        /* \"#utility.yul\":4927:4956   */\n      tag_199\n        /* \"#utility.yul\":4949:4955   */\n      dup2\n        /* \"#utility.yul\":4927:4956   */\n      tag_97\n      jump\t// in\n    tag_199:\n        /* \"#utility.yul\":4922:4925   */\n      dup5\n        /* \"#utility.yul\":4918:4957   */\n      add\n        /* \"#utility.yul\":4911:4957   */\n      swap2\n      pop\n        /* \"#utility.yul\":4688:4963   */\n      pop\n        /* \"#utility.yul\":4606:4963   */\n      swap3\n      swap2\n      pop\n      pop\n      jump\t// out\n        /* \"#utility.yul\":4969:5077   */\n    tag_108:\n        /* \"#utility.yul\":5046:5070   */\n      tag_201\n        /* \"#utility.yul\":5064:5069   */\n      dup2\n        /* \"#utility.yul\":5046:5070   */\n      tag_88\n      jump\t// in\n    tag_201:\n        /* \"#utility.yul\":5041:5044   */\n      dup3\n        /* \"#utility.yul\":5034:5071   */\n      mstore\n        /* \"#utility.yul\":4969:5077   */\n      pop\n      pop\n      jump\t// out\n        /* \"#utility.yul\":5179:5963   */\n    tag_109:\n        /* \"#utility.yul\":5292:5295   */\n      0x00\n        /* \"#utility.yul\":5328:5332   */\n      0x60\n        /* \"#utility.yul\":5323:5326   */\n      dup4\n        /* \"#utility.yul\":5319:5333   */\n      add\n        /* \"#utility.yul\":5417:5421   */\n      0x00\n        /* \"#utility.yul\":5410:5415   */\n      dup4\n        /* \"#utility.yul\":5406:5422   */\n      add\n        /* \"#utility.yul\":5400:5423   */\n      mload\n        /* \"#utility.yul\":5436:5499   */\n      tag_203\n        /* \"#utility.yul\":5493:5497   */\n      0x00\n        /* \"#utility.yul\":5488:5491   */\n      dup7\n        /* \"#utility.yul\":5484:5498   */\n      add\n        /* \"#utility.yul\":5470:5482   */\n      dup3\n        /* \"#utility.yul\":5436:5499   */\n      tag_105\n      jump\t// in\n    tag_203:\n        /* \"#utility.yul\":5343:5509   */\n      pop\n        /* \"#utility.yul\":5594:5598   */\n      0x20\n        /* \"#utility.yul\":5587:5592   */\n      dup4\n        /* \"#utility.yul\":5583:5599   */\n      add\n        /* \"#utility.yul\":5577:5600   */\n      mload\n        /* \"#utility.yul\":5647:5650   */\n      dup5\n        /* \"#utility.yul\":5641:5645   */\n      dup3\n        /* \"#utility.yul\":5637:5651   */\n      sub\n        /* \"#utility.yul\":5630:5634   */\n      0x20\n        /* \"#utility.yul\":5625:5628   */\n      dup7\n        /* \"#utility.yul\":5621:5635   */\n      add\n        /* \"#utility.yul\":5614:5652   */\n      mstore\n        /* \"#utility.yul\":5673:5746   */\n      tag_204\n        /* \"#utility.yul\":5741:5745   */\n      dup3\n        /* \"#utility.yul\":5727:5739   */\n      dup3\n        /* \"#utility.yul\":5673:5746   */\n      tag_107\n      jump\t// in\n    tag_204:\n        /* \"#utility.yul\":5665:5746   */\n      swap2\n      pop\n        /* \"#utility.yul\":5519:5757   */\n      pop\n        /* \"#utility.yul\":5844:5848   */\n      0x40\n        /* \"#utility.yul\":5837:5842   */\n      dup4\n        /* \"#utility.yul\":5833:5849   */\n      add\n        /* \"#utility.yul\":5827:5850   */\n      mload\n        /* \"#utility.yul\":5863:5926   */\n      tag_205\n        /* \"#utility.yul\":5920:5924   */\n      0x40\n        /* \"#utility.yul\":5915:5918   */\n      dup7\n        /* \"#utility.yul\":5911:5925   */\n      add\n        /* \"#utility.yul\":5897:5909   */\n      dup3\n        /* \"#utility.yul\":5863:5926   */\n      tag_108\n      jump\t// in\n    tag_205:\n        /* \"#utility.yul\":5767:5936   */\n      pop\n        /* \"#utility.yul\":5953:5957   */\n      dup1\n        /* \"#utility.yul\":5946:5957   */\n      swap2\n      pop\n        /* \"#utility.yul\":5297:5963   */\n      pop\n        /* \"#utility.yul\":5179:5963   */\n      swap3\n      swap2\n      pop\n      pop\n      jump\t// out\n        /* \"#utility.yul\":5969:6233   */\n    tag_110:\n        /* \"#utility.yul\":6092:6102   */\n      0x00\n        /* \"#utility.yul\":6127:6227   */\n      tag_207\n        /* \"#utility.yul\":6223:6226   */\n      dup4\n        /* \"#utility.yul\":6215:6221   */\n      dup4\n        /* \"#utility.yul\":6127:6227   */\n      tag_109\n      jump\t// in\n    tag_207:\n        /* \"#utility.yul\":6113:6227   */\n      swap1\n      pop\n        /* \"#utility.yul\":5969:6233   */\n      swap3\n      swap2\n      pop\n      pop\n      jump\t// out\n        /* \"#utility.yul\":6239:6379   */\n    tag_111:\n        /* \"#utility.yul\":6336:6340   */\n      0x00\n        /* \"#utility.yul\":6368:6372   */\n      0x20\n        /* \"#utility.yul\":6363:6366   */\n      dup3\n        /* \"#utility.yul\":6359:6373   */\n      add\n        /* \"#utility.yul\":6351:6373   */\n      swap1\n      pop\n        /* \"#utility.yul\":6239:6379   */\n      swap2\n      swap1\n      pop\n      jump\t// out\n        /* \"#utility.yul\":6485:7612   */\n    tag_112:\n        /* \"#utility.yul\":6658:6661   */\n      0x00\n        /* \"#utility.yul\":6687:6768   */\n      tag_210\n        /* \"#utility.yul\":6762:6767   */\n      dup3\n        /* \"#utility.yul\":6687:6768   */\n      tag_102\n      jump\t// in\n    tag_210:\n        /* \"#utility.yul\":6784:6897   */\n      tag_211\n        /* \"#utility.yul\":6890:6896   */\n      dup2\n        /* \"#utility.yul\":6885:6888   */\n      dup6\n        /* \"#utility.yul\":6784:6897   */\n      tag_103\n      jump\t// in\n    tag_211:\n        /* \"#utility.yul\":6777:6897   */\n      swap4\n      pop\n        /* \"#utility.yul\":6923:6926   */\n      dup4\n        /* \"#utility.yul\":6968:6972   */\n      0x20\n        /* \"#utility.yul\":6960:6966   */\n      dup3\n        /* \"#utility.yul\":6956:6973   */\n      mul\n        /* \"#utility.yul\":6951:6954   */\n      dup6\n        /* \"#utility.yul\":6947:6974   */\n      add\n        /* \"#utility.yul\":6998:7081   */\n      tag_212\n        /* \"#utility.yul\":7075:7080   */\n      dup6\n        /* \"#utility.yul\":6998:7081   */\n      tag_104\n      jump\t// in\n    tag_212:\n        /* \"#utility.yul\":7104:7111   */\n      dup1\n        /* \"#utility.yul\":7135:7136   */\n      0x00\n        /* \"#utility.yul\":7120:7567   */\n    tag_213:\n        /* \"#utility.yul\":7145:7151   */\n      dup6\n        /* \"#utility.yul\":7142:7143   */\n      dup2\n        /* \"#utility.yul\":7139:7152   */\n      lt\n        /* \"#utility.yul\":7120:7567   */\n      iszero\n      tag_215\n      jumpi\n        /* \"#utility.yul\":7216:7225   */\n      dup5\n        /* \"#utility.yul\":7210:7214   */\n      dup5\n        /* \"#utility.yul\":7206:7226   */\n      sub\n        /* \"#utility.yul\":7201:7204   */\n      dup10\n        /* \"#utility.yul\":7194:7227   */\n      mstore\n        /* \"#utility.yul\":7267:7273   */\n      dup2\n        /* \"#utility.yul\":7261:7274   */\n      mload\n        /* \"#utility.yul\":7295:7413   */\n      tag_216\n        /* \"#utility.yul\":7408:7412   */\n      dup6\n        /* \"#utility.yul\":7393:7406   */\n      dup3\n        /* \"#utility.yul\":7295:7413   */\n      tag_110\n      jump\t// in\n    tag_216:\n        /* \"#utility.yul\":7287:7413   */\n      swap5\n      pop\n        /* \"#utility.yul\":7436:7523   */\n      tag_217\n        /* \"#utility.yul\":7516:7522   */\n      dup4\n        /* \"#utility.yul\":7436:7523   */\n      tag_111\n      jump\t// in\n    tag_217:\n        /* \"#utility.yul\":7426:7523   */\n      swap3\n      pop\n        /* \"#utility.yul\":7552:7556   */\n      0x20\n        /* \"#utility.yul\":7547:7550   */\n      dup11\n        /* \"#utility.yul\":7543:7557   */\n      add\n        /* \"#utility.yul\":7536:7557   */\n      swap10\n      pop\n        /* \"#utility.yul\":7180:7567   */\n      pop\n        /* \"#utility.yul\":7167:7168   */\n      0x01\n        /* \"#utility.yul\":7164:7165   */\n      dup2\n        /* \"#utility.yul\":7160:7169   */\n      add\n        /* \"#utility.yul\":7155:7169   */\n      swap1\n      pop\n        /* \"#utility.yul\":7120:7567   */\n      jump(tag_213)\n    tag_215:\n        /* \"#utility.yul\":7124:7138   */\n      pop\n        /* \"#utility.yul\":7583:7587   */\n      dup3\n        /* \"#utility.yul\":7576:7587   */\n      swap8\n      pop\n        /* \"#utility.yul\":7603:7606   */\n      dup8\n        /* \"#utility.yul\":7596:7606   */\n      swap6\n      pop\n        /* \"#utility.yul\":6663:7612   */\n      pop\n      pop\n      pop\n      pop\n      pop\n        /* \"#utility.yul\":6485:7612   */\n      swap3\n      swap2\n      pop\n      pop\n      jump\t// out\n        /* \"#utility.yul\":7618:8099   */\n    tag_23:\n        /* \"#utility.yul\":7815:7819   */\n      0x00\n        /* \"#utility.yul\":7853:7855   */\n      0x20\n        /* \"#utility.yul\":7842:7851   */\n      dup3\n        /* \"#utility.yul\":7838:7856   */\n      add\n        /* \"#utility.yul\":7830:7856   */\n      swap1\n      pop\n        /* \"#utility.yul\":7902:7911   */\n      dup2\n        /* \"#utility.yul\":7896:7900   */\n      dup2\n        /* \"#utility.yul\":7892:7912   */\n      sub\n        /* \"#utility.yul\":7888:7889   */\n      0x00\n        /* \"#utility.yul\":7877:7886   */\n      dup4\n        /* \"#utility.yul\":7873:7890   */\n      add\n        /* \"#utility.yul\":7866:7913   */\n      mstore\n        /* \"#utility.yul\":7930:8092   */\n      tag_219\n        /* \"#utility.yul\":8087:8091   */\n      dup2\n        /* \"#utility.yul\":8078:8084   */\n      dup5\n        /* \"#utility.yul\":7930:8092   */\n      tag_112\n      jump\t// in\n    tag_219:\n        /* \"#utility.yul\":7922:8092   */\n      swap1\n      pop\n        /* \"#utility.yul\":7618:8099   */\n      swap3\n      swap2\n      pop\n      pop\n      jump\t// out\n        /* \"#utility.yul\":8105:8222   */\n    tag_113:\n        /* \"#utility.yul\":8214:8215   */\n      0x00\n        /* \"#utility.yul\":8211:8212   */\n      dup1\n        /* \"#utility.yul\":8204:8216   */\n      revert\n        /* \"#utility.yul\":8228:8345   */\n    tag_114:\n        /* \"#utility.yul\":8337:8338   */\n      0x00\n        /* \"#utility.yul\":8334:8335   */\n      dup1\n        /* \"#utility.yul\":8327:8339   */\n      revert\n        /* \"#utility.yul\":8351:8531   */\n    tag_65:\n        /* \"#utility.yul\":8399:8476   */\n      0x4e487b7100000000000000000000000000000000000000000000000000000000\n        /* \"#utility.yul\":8396:8397   */\n      0x00\n        /* \"#utility.yul\":8389:8477   */\n      mstore\n        /* \"#utility.yul\":8496:8500   */\n      0x41\n        /* \"#utility.yul\":8493:8494   */\n      0x04\n        /* \"#utility.yul\":8486:8501   */\n      mstore\n        /* \"#utility.yul\":8520:8524   */\n      0x24\n        /* \"#utility.yul\":8517:8518   */\n      0x00\n        /* \"#utility.yul\":8510:8525   */\n      revert\n        /* \"#utility.yul\":8537:8818   */\n    tag_115:\n        /* \"#utility.yul\":8620:8647   */\n      tag_224\n        /* \"#utility.yul\":8642:8646   */\n      dup3\n        /* \"#utility.yul\":8620:8647   */\n      tag_97\n      jump\t// in\n    tag_224:\n        /* \"#utility.yul\":8612:8618   */\n      dup2\n        /* \"#utility.yul\":8608:8648   */\n      add\n        /* \"#utility.yul\":8750:8756   */\n      dup2\n        /* \"#utility.yul\":8738:8748   */\n      dup2\n        /* \"#utility.yul\":8735:8757   */\n      lt\n        /* \"#utility.yul\":8714:8732   */\n      0xffffffffffffffff\n        /* \"#utility.yul\":8702:8712   */\n      dup3\n        /* \"#utility.yul\":8699:8733   */\n      gt\n        /* \"#utility.yul\":8696:8758   */\n      or\n        /* \"#utility.yul\":8693:8781   */\n      iszero\n      tag_225\n      jumpi\n        /* \"#utility.yul\":8761:8779   */\n      tag_226\n      tag_65\n      jump\t// in\n    tag_226:\n        /* \"#utility.yul\":8693:8781   */\n    tag_225:\n        /* \"#utility.yul\":8801:8811   */\n      dup1\n        /* \"#utility.yul\":8797:8799   */\n      0x40\n        /* \"#utility.yul\":8790:8812   */\n      mstore\n        /* \"#utility.yul\":8580:8818   */\n      pop\n        /* \"#utility.yul\":8537:8818   */\n      pop\n      pop\n      jump\t// out\n        /* \"#utility.yul\":8824:8953   */\n    tag_116:\n        /* \"#utility.yul\":8858:8864   */\n      0x00\n        /* \"#utility.yul\":8885:8905   */\n      tag_228\n      tag_85\n      jump\t// in\n    tag_228:\n        /* \"#utility.yul\":8875:8905   */\n      swap1\n      pop\n        /* \"#utility.yul\":8914:8947   */\n      tag_229\n        /* \"#utility.yul\":8942:8946   */\n      dup3\n        /* \"#utility.yul\":8934:8940   */\n      dup3\n        /* \"#utility.yul\":8914:8947   */\n      tag_115\n      jump\t// in\n    tag_229:\n        /* \"#utility.yul\":8824:8953   */\n      swap2\n      swap1\n      pop\n      jump\t// out\n        /* \"#utility.yul\":8959:9267   */\n    tag_117:\n        /* \"#utility.yul\":9021:9025   */\n      0x00\n        /* \"#utility.yul\":9111:9129   */\n      0xffffffffffffffff\n        /* \"#utility.yul\":9103:9109   */\n      dup3\n        /* \"#utility.yul\":9100:9130   */\n      gt\n        /* \"#utility.yul\":9097:9153   */\n      iszero\n      tag_231\n      jumpi\n        /* \"#utility.yul\":9133:9151   */\n      tag_232\n      tag_65\n      jump\t// in\n    tag_232:\n        /* \"#utility.yul\":9097:9153   */\n    tag_231:\n        /* \"#utility.yul\":9171:9200   */\n      tag_233\n        /* \"#utility.yul\":9193:9199   */\n      dup3\n        /* \"#utility.yul\":9171:9200   */\n      tag_97\n      jump\t// in\n    tag_233:\n        /* \"#utility.yul\":9163:9200   */\n      swap1\n      pop\n        /* \"#utility.yul\":9255:9259   */\n      0x20\n        /* \"#utility.yul\":9249:9253   */\n      dup2\n        /* \"#utility.yul\":9245:9260   */\n      add\n        /* \"#utility.yul\":9237:9260   */\n      swap1\n      pop\n        /* \"#utility.yul\":8959:9267   */\n      swap2\n      swap1\n      pop\n      jump\t// out\n        /* \"#utility.yul\":9273:9421   */\n    tag_118:\n        /* \"#utility.yul\":9371:9377   */\n      dup3\n        /* \"#utility.yul\":9366:9369   */\n      dup2\n        /* \"#utility.yul\":9361:9364   */\n      dup4\n        /* \"#utility.yul\":9348:9378   */\n      calldatacopy\n        /* \"#utility.yul\":9412:9413   */\n      0x00\n        /* \"#utility.yul\":9403:9409   */\n      dup4\n        /* \"#utility.yul\":9398:9401   */\n      dup4\n        /* \"#utility.yul\":9394:9410   */\n      add\n        /* \"#utility.yul\":9387:9414   */\n      mstore\n        /* \"#utility.yul\":9273:9421   */\n      pop\n      pop\n      pop\n      jump\t// out\n        /* \"#utility.yul\":9427:9852   */\n    tag_119:\n        /* \"#utility.yul\":9505:9510   */\n      0x00\n        /* \"#utility.yul\":9530:9596   */\n      tag_236\n        /* \"#utility.yul\":9546:9595   */\n      tag_237\n        /* \"#utility.yul\":9588:9594   */\n      dup5\n        /* \"#utility.yul\":9546:9595   */\n      tag_117\n      jump\t// in\n    tag_237:\n        /* \"#utility.yul\":9530:9596   */\n      tag_116\n      jump\t// in\n    tag_236:\n        /* \"#utility.yul\":9521:9596   */\n      swap1\n      pop\n        /* \"#utility.yul\":9619:9625   */\n      dup3\n        /* \"#utility.yul\":9612:9617   */\n      dup2\n        /* \"#utility.yul\":9605:9626   */\n      mstore\n        /* \"#utility.yul\":9657:9661   */\n      0x20\n        /* \"#utility.yul\":9650:9655   */\n      dup2\n        /* \"#utility.yul\":9646:9662   */\n      add\n        /* \"#utility.yul\":9695:9698   */\n      dup5\n        /* \"#utility.yul\":9686:9692   */\n      dup5\n        /* \"#utility.yul\":9681:9684   */\n      dup5\n        /* \"#utility.yul\":9677:9693   */\n      add\n        /* \"#utility.yul\":9674:9699   */\n      gt\n        /* \"#utility.yul\":9671:9783   */\n      iszero\n      tag_238\n      jumpi\n        /* \"#utility.yul\":9702:9781   */\n      tag_239\n      tag_114\n      jump\t// in\n    tag_239:\n        /* \"#utility.yul\":9671:9783   */\n    tag_238:\n        /* \"#utility.yul\":9792:9846   */\n      tag_240\n        /* \"#utility.yul\":9839:9845   */\n      dup5\n        /* \"#utility.yul\":9834:9837   */\n      dup3\n        /* \"#utility.yul\":9829:9832   */\n      dup6\n        /* \"#utility.yul\":9792:9846   */\n      tag_118\n      jump\t// in\n    tag_240:\n        /* \"#utility.yul\":9511:9852   */\n      pop\n        /* \"#utility.yul\":9427:9852   */\n      swap4\n      swap3\n      pop\n      pop\n      pop\n      jump\t// out\n        /* \"#utility.yul\":9872:10212   */\n    tag_120:\n        /* \"#utility.yul\":9928:9933   */\n      0x00\n        /* \"#utility.yul\":9977:9980   */\n      dup3\n        /* \"#utility.yul\":9970:9974   */\n      0x1f\n        /* \"#utility.yul\":9962:9968   */\n      dup4\n        /* \"#utility.yul\":9958:9975   */\n      add\n        /* \"#utility.yul\":9954:9981   */\n      slt\n        /* \"#utility.yul\":9944:10066   */\n      tag_242\n      jumpi\n        /* \"#utility.yul\":9985:10064   */\n      tag_243\n      tag_113\n      jump\t// in\n    tag_243:\n        /* \"#utility.yul\":9944:10066   */\n    tag_242:\n        /* \"#utility.yul\":10102:10108   */\n      dup2\n        /* \"#utility.yul\":10089:10109   */\n      calldataload\n        /* \"#utility.yul\":10127:10206   */\n      tag_244\n        /* \"#utility.yul\":10202:10205   */\n      dup5\n        /* \"#utility.yul\":10194:10200   */\n      dup3\n        /* \"#utility.yul\":10187:10191   */\n      0x20\n        /* \"#utility.yul\":10179:10185   */\n      dup7\n        /* \"#utility.yul\":10175:10192   */\n      add\n        /* \"#utility.yul\":10127:10206   */\n      tag_119\n      jump\t// in\n    tag_244:\n        /* \"#utility.yul\":10118:10206   */\n      swap2\n      pop\n        /* \"#utility.yul\":9934:10212   */\n      pop\n        /* \"#utility.yul\":9872:10212   */\n      swap3\n      swap2\n      pop\n      pop\n      jump\t// out\n        /* \"#utility.yul\":10218:10727   */\n    tag_26:\n        /* \"#utility.yul\":10287:10293   */\n      0x00\n        /* \"#utility.yul\":10336:10338   */\n      0x20\n        /* \"#utility.yul\":10324:10333   */\n      dup3\n        /* \"#utility.yul\":10315:10322   */\n      dup5\n        /* \"#utility.yul\":10311:10334   */\n      sub\n        /* \"#utility.yul\":10307:10339   */\n      slt\n        /* \"#utility.yul\":10304:10423   */\n      iszero\n      tag_246\n      jumpi\n        /* \"#utility.yul\":10342:10421   */\n      tag_247\n      tag_86\n      jump\t// in\n    tag_247:\n        /* \"#utility.yul\":10304:10423   */\n    tag_246:\n        /* \"#utility.yul\":10490:10491   */\n      0x00\n        /* \"#utility.yul\":10479:10488   */\n      dup3\n        /* \"#utility.yul\":10475:10492   */\n      add\n        /* \"#utility.yul\":10462:10493   */\n      calldataload\n        /* \"#utility.yul\":10520:10538   */\n      0xffffffffffffffff\n        /* \"#utility.yul\":10512:10518   */\n      dup2\n        /* \"#utility.yul\":10509:10539   */\n      gt\n        /* \"#utility.yul\":10506:10623   */\n      iszero\n      tag_248\n      jumpi\n        /* \"#utility.yul\":10542:10621   */\n      tag_249\n      tag_87\n      jump\t// in\n    tag_249:\n        /* \"#utility.yul\":10506:10623   */\n    tag_248:\n        /* \"#utility.yul\":10647:10710   */\n      tag_250\n        /* \"#utility.yul\":10702:10709   */\n      dup5\n        /* \"#utility.yul\":10693:10699   */\n      dup3\n        /* \"#utility.yul\":10682:10691   */\n      dup6\n        /* \"#utility.yul\":10678:10700   */\n      add\n        /* \"#utility.yul\":10647:10710   */\n      tag_120\n      jump\t// in\n    tag_250:\n        /* \"#utility.yul\":10637:10710   */\n      swap2\n      pop\n        /* \"#utility.yul\":10433:10720   */\n      pop\n        /* \"#utility.yul\":10218:10727   */\n      swap3\n      swap2\n      pop\n      pop\n      jump\t// out\n        /* \"#utility.yul\":10733:10913   */\n    tag_121:\n        /* \"#utility.yul\":10781:10858   */\n      0x4e487b7100000000000000000000000000000000000000000000000000000000\n        /* \"#utility.yul\":10778:10779   */\n      0x00\n        /* \"#utility.yul\":10771:10859   */\n      mstore\n        /* \"#utility.yul\":10878:10882   */\n      0x22\n        /* \"#utility.yul\":10875:10876   */\n      0x04\n        /* \"#utility.yul\":10868:10883   */\n      mstore\n        /* \"#utility.yul\":10902:10906   */\n      0x24\n        /* \"#utility.yul\":10899:10900   */\n      0x00\n        /* \"#utility.yul\":10892:10907   */\n      revert\n        /* \"#utility.yul\":10919:11239   */\n    tag_35:\n        /* \"#utility.yul\":10963:10969   */\n      0x00\n        /* \"#utility.yul\":11000:11001   */\n      0x02\n        /* \"#utility.yul\":10994:10998   */\n      dup3\n        /* \"#utility.yul\":10990:11002   */\n      div\n        /* \"#utility.yul\":10980:11002   */\n      swap1\n      pop\n        /* \"#utility.yul\":11047:11048   */\n      0x01\n        /* \"#utility.yul\":11041:11045   */\n      dup3\n        /* \"#utility.yul\":11037:11049   */\n      and\n        /* \"#utility.yul\":11068:11086   */\n      dup1\n        /* \"#utility.yul\":11058:11139   */\n      tag_253\n      jumpi\n        /* \"#utility.yul\":11124:11128   */\n      0x7f\n        /* \"#utility.yul\":11116:11122   */\n      dup3\n        /* \"#utility.yul\":11112:11129   */\n      and\n        /* \"#utility.yul\":11102:11129   */\n      swap2\n      pop\n        /* \"#utility.yul\":11058:11139   */\n    tag_253:\n        /* \"#utility.yul\":11186:11188   */\n      0x20\n        /* \"#utility.yul\":11178:11184   */\n      dup3\n        /* \"#utility.yul\":11175:11189   */\n      lt\n        /* \"#utility.yul\":11155:11173   */\n      dup2\n        /* \"#utility.yul\":11152:11190   */\n      sub\n        /* \"#utility.yul\":11149:11233   */\n      tag_254\n      jumpi\n        /* \"#utility.yul\":11205:11223   */\n      tag_255\n      tag_121\n      jump\t// in\n    tag_255:\n        /* \"#utility.yul\":11149:11233   */\n    tag_254:\n        /* \"#utility.yul\":10970:11239   */\n      pop\n        /* \"#utility.yul\":10919:11239   */\n      swap2\n      swap1\n      pop\n      jump\t// out\n        /* \"#utility.yul\":11245:11425   */\n    tag_122:\n        /* \"#utility.yul\":11385:11417   */\n      0x4d6573736167652065786365656473206d6178696d756d206c656e6774680000\n        /* \"#utility.yul\":11381:11382   */\n      0x00\n        /* \"#utility.yul\":11373:11379   */\n      dup3\n        /* \"#utility.yul\":11369:11383   */\n      add\n        /* \"#utility.yul\":11362:11418   */\n      mstore\n        /* \"#utility.yul\":11245:11425   */\n      pop\n      jump\t// out\n        /* \"#utility.yul\":11431:11797   */\n    tag_123:\n        /* \"#utility.yul\":11573:11576   */\n      0x00\n        /* \"#utility.yul\":11594:11661   */\n      tag_258\n        /* \"#utility.yul\":11658:11660   */\n      0x1e\n        /* \"#utility.yul\":11653:11656   */\n      dup4\n        /* \"#utility.yul\":11594:11661   */\n      tag_95\n      jump\t// in\n    tag_258:\n        /* \"#utility.yul\":11587:11661   */\n      swap2\n      pop\n        /* \"#utility.yul\":11670:11763   */\n      tag_259\n        /* \"#utility.yul\":11759:11762   */\n      dup3\n        /* \"#utility.yul\":11670:11763   */\n      tag_122\n      jump\t// in\n    tag_259:\n        /* \"#utility.yul\":11788:11790   */\n      0x20\n        /* \"#utility.yul\":11783:11786   */\n      dup3\n        /* \"#utility.yul\":11779:11791   */\n      add\n        /* \"#utility.yul\":11772:11791   */\n      swap1\n      pop\n        /* \"#utility.yul\":11431:11797   */\n      swap2\n      swap1\n      pop\n      jump\t// out\n        /* \"#utility.yul\":11803:12222   */\n    tag_46:\n        /* \"#utility.yul\":11969:11973   */\n      0x00\n        /* \"#utility.yul\":12007:12009   */\n      0x20\n        /* \"#utility.yul\":11996:12005   */\n      dup3\n        /* \"#utility.yul\":11992:12010   */\n      add\n        /* \"#utility.yul\":11984:12010   */\n      swap1\n      pop\n        /* \"#utility.yul\":12056:12065   */\n      dup2\n        /* \"#utility.yul\":12050:12054   */\n      dup2\n        /* \"#utility.yul\":12046:12066   */\n      sub\n        /* \"#utility.yul\":12042:12043   */\n      0x00\n        /* \"#utility.yul\":12031:12040   */\n      dup4\n        /* \"#utility.yul\":12027:12044   */\n      add\n        /* \"#utility.yul\":12020:12067   */\n      mstore\n        /* \"#utility.yul\":12084:12215   */\n      tag_261\n        /* \"#utility.yul\":12210:12214   */\n      dup2\n        /* \"#utility.yul\":12084:12215   */\n      tag_123\n      jump\t// in\n    tag_261:\n        /* \"#utility.yul\":12076:12215   */\n      swap1\n      pop\n        /* \"#utility.yul\":11803:12222   */\n      swap2\n      swap1\n      pop\n      jump\t// out\n        /* \"#utility.yul\":12228:12369   */\n    tag_124:\n        /* \"#utility.yul\":12277:12281   */\n      0x00\n        /* \"#utility.yul\":12300:12303   */\n      dup2\n        /* \"#utility.yul\":12292:12303   */\n      swap1\n      pop\n        /* \"#utility.yul\":12323:12326   */\n      dup2\n        /* \"#utility.yul\":12320:12321   */\n      0x00\n        /* \"#utility.yul\":12313:12327   */\n      mstore\n        /* \"#utility.yul\":12357:12361   */\n      0x20\n        /* \"#utility.yul\":12354:12355   */\n      0x00\n        /* \"#utility.yul\":12344:12362   */\n      keccak256\n        /* \"#utility.yul\":12336:12362   */\n      swap1\n      pop\n        /* \"#utility.yul\":12228:12369   */\n      swap2\n      swap1\n      pop\n      jump\t// out\n        /* \"#utility.yul\":12375:12468   */\n    tag_125:\n        /* \"#utility.yul\":12412:12418   */\n      0x00\n        /* \"#utility.yul\":12459:12461   */\n      0x20\n        /* \"#utility.yul\":12454:12456   */\n      0x1f\n        /* \"#utility.yul\":12447:12452   */\n      dup4\n        /* \"#utility.yul\":12443:12457   */\n      add\n        /* \"#utility.yul\":12439:12462   */\n      div\n        /* \"#utility.yul\":12429:12462   */\n      swap1\n      pop\n        /* \"#utility.yul\":12375:12468   */\n      swap2\n      swap1\n      pop\n      jump\t// out\n        /* \"#utility.yul\":12474:12581   */\n    tag_126:\n        /* \"#utility.yul\":12518:12526   */\n      0x00\n        /* \"#utility.yul\":12568:12573   */\n      dup3\n        /* \"#utility.yul\":12562:12566   */\n      dup3\n        /* \"#utility.yul\":12558:12574   */\n      shl\n        /* \"#utility.yul\":12537:12574   */\n      swap1\n      pop\n        /* \"#utility.yul\":12474:12581   */\n      swap3\n      swap2\n      pop\n      pop\n      jump\t// out\n        /* \"#utility.yul\":12587:12980   */\n    tag_127:\n        /* \"#utility.yul\":12656:12662   */\n      0x00\n        /* \"#utility.yul\":12706:12707   */\n      0x08\n        /* \"#utility.yul\":12694:12704   */\n      dup4\n        /* \"#utility.yul\":12690:12708   */\n      mul\n        /* \"#utility.yul\":12729:12826   */\n      tag_266\n        /* \"#utility.yul\":12759:12825   */\n      0xffffffffffffffffffffffffffffffffffffffffffffffffffffffffffffffff\n        /* \"#utility.yul\":12748:12757   */\n      dup3\n        /* \"#utility.yul\":12729:12826   */\n      tag_126\n      jump\t// in\n    tag_266:\n        /* \"#utility.yul\":12847:12886   */\n      tag_267\n        /* \"#utility.yul\":12877:12885   */\n      dup7\n        /* \"#utility.yul\":12866:12875   */\n      dup4\n        /* \"#utility.yul\":12847:12886   */\n      tag_126\n      jump\t// in\n    tag_267:\n        /* \"#utility.yul\":12835:12886   */\n      swap6\n      pop\n        /* \"#utility.yul\":12919:12923   */\n      dup1\n        /* \"#utility.yul\":12915:12924   */\n      not\n        /* \"#utility.yul\":12908:12913   */\n      dup5\n        /* \"#utility.yul\":12904:12925   */\n      and\n        /* \"#utility.yul\":12895:12925   */\n      swap4\n      pop\n        /* \"#utility.yul\":12968:12972   */\n      dup1\n        /* \"#utility.yul\":12958:12966   */\n      dup7\n        /* \"#utility.yul\":12954:12973   */\n      and\n        /* \"#utility.yul\":12947:12952   */\n      dup5\n        /* \"#utility.yul\":12944:12974   */\n      or\n        /* \"#utility.yul\":12934:12974   */\n      swap3\n      pop\n        /* \"#utility.yul\":12663:12980   */\n      pop\n      pop\n        /* \"#utility.yul\":12587:12980   */\n      swap4\n      swap3\n      pop\n      pop\n      pop\n      jump\t// out\n        /* \"#utility.yul\":12986:13046   */\n    tag_128:\n        /* \"#utility.yul\":13014:13017   */\n      0x00\n        /* \"#utility.yul\":13035:13040   */\n      dup2\n        /* \"#utility.yul\":13028:13040   */\n      swap1\n      pop\n        /* \"#utility.yul\":12986:13046   */\n      swap2\n      swap1\n      pop\n      jump\t// out\n        /* \"#utility.yul\":13052:13194   */\n    tag_129:\n        /* \"#utility.yul\":13102:13111   */\n      0x00\n        /* \"#utility.yul\":13135:13188   */\n      tag_270\n        /* \"#utility.yul\":13153:13187   */\n      tag_271\n        /* \"#utility.yul\":13162:13186   */\n      tag_272\n        /* \"#utility.yul\":13180:13185   */\n      dup5\n        /* \"#utility.yul\":13162:13186   */\n      tag_88\n      jump\t// in\n    tag_272:\n        /* \"#utility.yul\":13153:13187   */\n      tag_128\n      jump\t// in\n    tag_271:\n        /* \"#utility.yul\":13135:13188   */\n      tag_88\n      jump\t// in\n    tag_270:\n        /* \"#utility.yul\":13122:13188   */\n      swap1\n      pop\n        /* \"#utility.yul\":13052:13194   */\n      swap2\n      swap1\n      pop\n      jump\t// out\n        /* \"#utility.yul\":13200:13275   */\n    tag_130:\n        /* \"#utility.yul\":13243:13246   */\n      0x00\n        /* \"#utility.yul\":13264:13269   */\n      dup2\n        /* \"#utility.yul\":13257:13269   */\n      swap1\n      pop\n        /* \"#utility.yul\":13200:13275   */\n      swap2\n      swap1\n      pop\n      jump\t// out\n        /* \"#utility.yul\":13281:13550   */\n    tag_131:\n        /* \"#utility.yul\":13391:13430   */\n      tag_275\n        /* \"#utility.yul\":13422:13429   */\n      dup4\n        /* \"#utility.yul\":13391:13430   */\n      tag_129\n      jump\t// in\n    tag_275:\n        /* \"#utility.yul\":13452:13543   */\n      tag_276\n        /* \"#utility.yul\":13501:13542   */\n      tag_277\n        /* \"#utility.yul\":13525:13541   */\n      dup3\n        /* \"#utility.yul\":13501:13542   */\n      tag_130\n      jump\t// in\n    tag_277:\n        /* \"#utility.yul\":13493:13499   */\n      dup5\n        /* \"#utility.yul\":13486:13490   */\n      dup5\n        /* \"#utility.yul\":13480:13491   */\n      sload\n        /* \"#utility.yul\":13452:13543   */\n      tag_127\n      jump\t// in\n    tag_276:\n        /* \"#utility.yul\":13446:13450   */\n      dup3\n        /* \"#utility.yul\":13439:13544   */\n      sstore\n        /* \"#utility.yul\":13357:13550   */\n      pop\n        /* \"#utility.yul\":13281:13550   */\n      pop\n      pop\n      pop\n      jump\t// out\n        /* \"#utility.yul\":13556:13629   */\n    tag_132:\n        /* \"#utility.yul\":13601:13604   */\n      0x00\n        /* \"#utility.yul\":13556:13629   */\n      swap1\n      jump\t// out\n        /* \"#utility.yul\":13635:13824   */\n    tag_133:\n        /* \"#utility.yul\":13712:13744   */\n      tag_280\n      tag_132\n      jump\t// in\n    tag_280:\n        /* \"#utility.yul\":13753:13818   */\n      tag_281\n        /* \"#utility.yul\":13811:13817   */\n      dup2\n        /* \"#utility.yul\":13803:13809   */\n      dup5\n        /* \"#utility.yul\":13797:13801   */\n      dup5\n        /* \"#utility.yul\":13753:13818   */\n      tag_131\n      jump\t// in\n    tag_281:\n        /* \"#utility.yul\":13688:13824   */\n      pop\n        /* \"#utility.yul\":13635:13824   */\n      pop\n      pop\n      jump\t// out\n        /* \"#utility.yul\":13830:14016   */\n    tag_134:\n        /* \"#utility.yul\":13890:14010   */\n    tag_283:\n        /* \"#utility.yul\":13907:13910   */\n      dup2\n        /* \"#utility.yul\":13900:13905   */\n      dup2\n        /* \"#utility.yul\":13897:13911   */\n      lt\n        /* \"#utility.yul\":13890:14010   */\n      iszero\n      tag_285\n      jumpi\n        /* \"#utility.yul\":13961:14000   */\n      tag_286\n        /* \"#utility.yul\":13998:13999   */\n      0x00\n        /* \"#utility.yul\":13991:13996   */\n      dup3\n        /* \"#utility.yul\":13961:14000   */\n      tag_133\n      jump\t// in\n    tag_286:\n        /* \"#utility.yul\":13934:13935   */\n      0x01\n        /* \"#utility.yul\":13927:13932   */\n      dup2\n        /* \"#utility.yul\":13923:13936   */\n      add\n        /* \"#utility.yul\":13914:13936   */\n      swap1\n      pop\n        /* \"#utility.yul\":13890:14010   */\n      jump(tag_283)\n    tag_285:\n        /* \"#utility.yul\":13830:14016   */\n      pop\n      pop\n      jump\t// out\n        /* \"#utility.yul\":14022:14565   */\n    tag_135:\n        /* \"#utility.yul\":14123:14125   */\n      0x1f\n        /* \"#utility.yul\":14118:14121   */\n      dup3\n        /* \"#utility.yul\":14115:14126   */\n      gt\n        /* \"#utility.yul\":14112:14558   */\n      iszero\n      tag_288\n      jumpi\n        /* \"#utility.yul\":14157:14195   */\n      tag_289\n        /* \"#utility.yul\":14189:14194   */\n      dup2\n        /* \"#utility.yul\":14157:14195   */\n      tag_124\n      jump\t// in\n    tag_289:\n        /* \"#utility.yul\":14241:14270   */\n      tag_290\n        /* \"#utility.yul\":14259:14269   */\n      dup5\n        /* \"#utility.yul\":14241:14270   */\n      tag_125\n      jump\t// in\n    tag_290:\n        /* \"#utility.yul\":14231:14239   */\n      dup2\n        /* \"#utility.yul\":14227:14271   */\n      add\n        /* \"#utility.yul\":14424:14426   */\n      0x20\n        /* \"#utility.yul\":14412:14422   */\n      dup6\n        /* \"#utility.yul\":14409:14427   */\n      lt\n        /* \"#utility.yul\":14406:14455   */\n      iszero\n      tag_291\n      jumpi\n        /* \"#utility.yul\":14445:14453   */\n      dup2\n        /* \"#utility.yul\":14430:14453   */\n      swap1\n      pop\n        /* \"#utility.yul\":14406:14455   */\n    tag_291:\n        /* \"#utility.yul\":14468:14548   */\n      tag_292\n        /* \"#utility.yul\":14524:14546   */\n      tag_293\n        /* \"#utility.yul\":14542:14545   */\n      dup6\n        /* \"#utility.yul\":14524:14546   */\n      tag_125\n      jump\t// in\n    tag_293:\n        /* \"#utility.yul\":14514:14522   */\n      dup4\n        /* \"#utility.yul\":14510:14547   */\n      add\n        /* \"#utility.yul\":14497:14508   */\n      dup3\n        /* \"#utility.yul\":14468:14548   */\n      tag_134\n      jump\t// in\n    tag_292:\n        /* \"#utility.yul\":14127:14558   */\n      pop\n      pop\n        /* \"#utility.yul\":14112:14558   */\n    tag_288:\n        /* \"#utility.yul\":14022:14565   */\n      pop\n      pop\n      pop\n      jump\t// out\n        /* \"#utility.yul\":14571:14688   */\n    tag_136:\n        /* \"#utility.yul\":14625:14633   */\n      0x00\n        /* \"#utility.yul\":14675:14680   */\n      dup3\n        /* \"#utility.yul\":14669:14673   */\n      dup3\n        /* \"#utility.yul\":14665:14681   */\n      shr\n        /* \"#utility.yul\":14644:14681   */\n      swap1\n      pop\n        /* \"#utility.yul\":14571:14688   */\n      swap3\n      swap2\n      pop\n      pop\n      jump\t// out\n        /* \"#utility.yul\":14694:14863   */\n    tag_137:\n        /* \"#utility.yul\":14738:14744   */\n      0x00\n        /* \"#utility.yul\":14771:14822   */\n      tag_296\n        /* \"#utility.yul\":14819:14820   */\n      0x00\n        /* \"#utility.yul\":14815:14821   */\n      not\n        /* \"#utility.yul\":14807:14812   */\n      dup5\n        /* \"#utility.yul\":14804:14805   */\n      0x08\n        /* \"#utility.yul\":14800:14813   */\n      mul\n        /* \"#utility.yul\":14771:14822   */\n      tag_136\n      jump\t// in\n    tag_296:\n        /* \"#utility.yul\":14767:14823   */\n      not\n        /* \"#utility.yul\":14852:14856   */\n      dup1\n        /* \"#utility.yul\":14846:14850   */\n      dup4\n        /* \"#utility.yul\":14842:14857   */\n      and\n        /* \"#utility.yul\":14832:14857   */\n      swap2\n      pop\n        /* \"#utility.yul\":14745:14863   */\n      pop\n        /* \"#utility.yul\":14694:14863   */\n      swap3\n      swap2\n      pop\n      pop\n      jump\t// out\n        /* \"#utility.yul\":14868:15163   */\n    tag_138:\n        /* \"#utility.yul\":14944:14948   */\n      0x00\n        /* \"#utility.yul\":15090:15119   */\n      tag_298\n        /* \"#utility.yul\":15115:15118   */\n      dup4\n        /* \"#utility.yul\":15109:15113   */\n      dup4\n        /* \"#utility.yul\":15090:15119   */\n      tag_137\n      jump\t// in\n    tag_298:\n        /* \"#utility.yul\":15082:15119   */\n      swap2\n      pop\n        /* \"#utility.yul\":15152:15155   */\n      dup3\n        /* \"#utility.yul\":15149:15150   */\n      0x02\n        /* \"#utility.yul\":15145:15156   */\n      mul\n        /* \"#utility.yul\":15139:15143   */\n      dup3\n        /* \"#utility.yul\":15136:15157   */\n      or\n        /* \"#utility.yul\":15128:15157   */\n      swap1\n      pop\n        /* \"#utility.yul\":14868:15163   */\n      swap3\n      swap2\n      pop\n      pop\n      jump\t// out\n        /* \"#utility.yul\":15168:16563   */\n    tag_49:\n        /* \"#utility.yul\":15285:15322   */\n      tag_300\n        /* \"#utility.yul\":15318:15321   */\n      dup3\n        /* \"#utility.yul\":15285:15322   */\n      tag_94\n      jump\t// in\n    tag_300:\n        /* \"#utility.yul\":15387:15405   */\n      0xffffffffffffffff\n        /* \"#utility.yul\":15379:15385   */\n      dup2\n        /* \"#utility.yul\":15376:15406   */\n      gt\n        /* \"#utility.yul\":15373:15429   */\n      iszero\n      tag_301\n      jumpi\n        /* \"#utility.yul\":15409:15427   */\n      tag_302\n      tag_65\n      jump\t// in\n    tag_302:\n        /* \"#utility.yul\":15373:15429   */\n    tag_301:\n        /* \"#utility.yul\":15453:15491   */\n      tag_303\n        /* \"#utility.yul\":15485:15489   */\n      dup3\n        /* \"#utility.yul\":15479:15490   */\n      sload\n        /* \"#utility.yul\":15453:15491   */\n      tag_35\n      jump\t// in\n    tag_303:\n        /* \"#utility.yul\":15538:15605   */\n      tag_304\n        /* \"#utility.yul\":15598:15604   */\n      dup3\n        /* \"#utility.yul\":15590:15596   */\n      dup3\n        /* \"#utility.yul\":15584:15588   */\n      dup6\n        /* \"#utility.yul\":15538:15605   */\n      tag_135\n      jump\t// in\n    tag_304:\n        /* \"#utility.yul\":15632:15633   */\n      0x00\n        /* \"#utility.yul\":15656:15660   */\n      0x20\n        /* \"#utility.yul\":15643:15660   */\n      swap1\n      pop\n        /* \"#utility.yul\":15688:15690   */\n      0x1f\n        /* \"#utility.yul\":15680:15686   */\n      dup4\n        /* \"#utility.yul\":15677:15691   */\n      gt\n        /* \"#utility.yul\":15705:15706   */\n      0x01\n        /* \"#utility.yul\":15700:16318   */\n      dup2\n      eq\n      tag_306\n      jumpi\n        /* \"#utility.yul\":16362:16363   */\n      0x00\n        /* \"#utility.yul\":16379:16385   */\n      dup5\n        /* \"#utility.yul\":16376:16453   */\n      iszero\n      tag_307\n      jumpi\n        /* \"#utility.yul\":16428:16437   */\n      dup3\n        /* \"#utility.yul\":16423:16426   */\n      dup8\n        /* \"#utility.yul\":16419:16438   */\n      add\n        /* \"#utility.yul\":16413:16439   */\n      mload\n        /* \"#utility.yul\":16404:16439   */\n      swap1\n      pop\n        /* \"#utility.yul\":16376:16453   */\n    tag_307:\n        /* \"#utility.yul\":16479:16546   */\n      tag_308\n        /* \"#utility.yul\":16539:16545   */\n      dup6\n        /* \"#utility.yul\":16532:16537   */\n      dup3\n        /* \"#utility.yul\":16479:16546   */\n      tag_138\n      jump\t// in\n    tag_308:\n        /* \"#utility.yul\":16473:16477   */\n      dup7\n        /* \"#utility.yul\":16466:16547   */\n      sstore\n        /* \"#utility.yul\":16335:16557   */\n      pop\n        /* \"#utility.yul\":15670:16557   */\n      jump(tag_305)\n        /* \"#utility.yul\":15700:16318   */\n    tag_306:\n        /* \"#utility.yul\":15752:15756   */\n      0x1f\n        /* \"#utility.yul\":15748:15757   */\n      not\n        /* \"#utility.yul\":15740:15746   */\n      dup5\n        /* \"#utility.yul\":15736:15758   */\n      and\n        /* \"#utility.yul\":15786:15823   */\n      tag_309\n        /* \"#utility.yul\":15818:15822   */\n      dup7\n        /* \"#utility.yul\":15786:15823   */\n      tag_124\n      jump\t// in\n    tag_309:\n        /* \"#utility.yul\":15845:15846   */\n      0x00\n        /* \"#utility.yul\":15859:16067   */\n    tag_310:\n        /* \"#utility.yul\":15873:15880   */\n      dup3\n        /* \"#utility.yul\":15870:15871   */\n      dup2\n        /* \"#utility.yul\":15867:15881   */\n      lt\n        /* \"#utility.yul\":15859:16067   */\n      iszero\n      tag_312\n      jumpi\n        /* \"#utility.yul\":15952:15961   */\n      dup5\n        /* \"#utility.yul\":15947:15950   */\n      dup10\n        /* \"#utility.yul\":15943:15962   */\n      add\n        /* \"#utility.yul\":15937:15963   */\n      mload\n        /* \"#utility.yul\":15929:15935   */\n      dup3\n        /* \"#utility.yul\":15922:15964   */\n      sstore\n        /* \"#utility.yul\":16003:16004   */\n      0x01\n        /* \"#utility.yul\":15995:16001   */\n      dup3\n        /* \"#utility.yul\":15991:16005   */\n      add\n        /* \"#utility.yul\":15981:16005   */\n      swap2\n      pop\n        /* \"#utility.yul\":16050:16052   */\n      0x20\n        /* \"#utility.yul\":16039:16048   */\n      dup6\n        /* \"#utility.yul\":16035:16053   */\n      add\n        /* \"#utility.yul\":16022:16053   */\n      swap5\n      pop\n        /* \"#utility.yul\":15896:15900   */\n      0x20\n        /* \"#utility.yul\":15893:15894   */\n      dup2\n        /* \"#utility.yul\":15889:15901   */\n      add\n        /* \"#utility.yul\":15884:15901   */\n      swap1\n      pop\n        /* \"#utility.yul\":15859:16067   */\n      jump(tag_310)\n    tag_312:\n        /* \"#utility.yul\":16095:16101   */\n      dup7\n        /* \"#utility.yul\":16086:16093   */\n      dup4\n        /* \"#utility.yul\":16083:16102   */\n      lt\n        /* \"#utility.yul\":16080:16259   */\n      iszero\n      tag_313\n      jumpi\n        /* \"#utility.yul\":16153:16162   */\n      dup5\n        /* \"#utility.yul\":16148:16151   */\n      dup10\n        /* \"#utility.yul\":16144:16163   */\n      add\n        /* \"#utility.yul\":16138:16164   */\n      mload\n        /* \"#utility.yul\":16196:16244   */\n      tag_314\n        /* \"#utility.yul\":16238:16242   */\n      0x1f\n        /* \"#utility.yul\":16230:16236   */\n      dup10\n        /* \"#utility.yul\":16226:16243   */\n      and\n        /* \"#utility.yul\":16215:16224   */\n      dup3\n        /* \"#utility.yul\":16196:16244   */\n      tag_137\n      jump\t// in\n    tag_314:\n        /* \"#utility.yul\":16188:16194   */\n      dup4\n        /* \"#utility.yul\":16181:16245   */\n      sstore\n        /* \"#utility.yul\":16103:16259   */\n      pop\n        /* \"#utility.yul\":16080:16259   */\n    tag_313:\n        /* \"#utility.yul\":16305:16306   */\n      0x01\n        /* \"#utility.yul\":16301:16302   */\n      0x02\n        /* \"#utility.yul\":16293:16299   */\n      dup9\n        /* \"#utility.yul\":16289:16303   */\n      mul\n        /* \"#utility.yul\":16285:16307   */\n      add\n        /* \"#utility.yul\":16279:16283   */\n      dup9\n        /* \"#utility.yul\":16272:16308   */\n      sstore\n        /* \"#utility.yul\":15707:16318   */\n      pop\n      pop\n      pop\n        /* \"#utility.yul\":15670:16557   */\n    tag_305:\n      pop\n        /* \"#utility.yul\":15260:16563   */\n      pop\n      pop\n      pop\n        /* \"#utility.yul\":15168:16563   */\n      pop\n      pop\n      jump\t// out\n        /* \"#utility.yul\":16569:16744   */\n    tag_139:\n        /* \"#utility.yul\":16709:16736   */\n      0x537461727420696e646578206f7574206f6620626f756e647300000000000000\n        /* \"#utility.yul\":16705:16706   */\n      0x00\n        /* \"#utility.yul\":16697:16703   */\n      dup3\n        /* \"#utility.yul\":16693:16707   */\n      add\n        /* \"#utility.yul\":16686:16737   */\n      mstore\n        /* \"#utility.yul\":16569:16744   */\n      pop\n      jump\t// out\n        /* \"#utility.yul\":16750:17116   */\n    tag_140:\n        /* \"#utility.yul\":16892:16895   */\n      0x00\n        /* \"#utility.yul\":16913:16980   */\n      tag_317\n        /* \"#utility.yul\":16977:16979   */\n      0x19\n        /* \"#utility.yul\":16972:16975   */\n      dup4\n        /* \"#utility.yul\":16913:16980   */\n      tag_95\n      jump\t// in\n    tag_317:\n        /* \"#utility.yul\":16906:16980   */\n      swap2\n      pop\n        /* \"#utility.yul\":16989:17082   */\n      tag_318\n        /* \"#utility.yul\":17078:17081   */\n      dup3\n        /* \"#utility.yul\":16989:17082   */\n      tag_139\n      jump\t// in\n    tag_318:\n        /* \"#utility.yul\":17107:17109   */\n      0x20\n        /* \"#utility.yul\":17102:17105   */\n      dup3\n        /* \"#utility.yul\":17098:17110   */\n      add\n        /* \"#utility.yul\":17091:17110   */\n      swap1\n      pop\n        /* \"#utility.yul\":16750:17116   */\n      swap2\n      swap1\n      pop\n      jump\t// out\n        /* \"#utility.yul\":17122:17541   */\n    tag_53:\n        /* \"#utility.yul\":17288:17292   */\n      0x00\n        /* \"#utility.yul\":17326:17328   */\n      0x20\n        /* \"#utility.yul\":17315:17324   */\n      dup3\n        /* \"#utility.yul\":17311:17329   */\n      add\n        /* \"#utility.yul\":17303:17329   */\n      swap1\n      pop\n        /* \"#utility.yul\":17375:17384   */\n      dup2\n        /* \"#utility.yul\":17369:17373   */\n      dup2\n        /* \"#utility.yul\":17365:17385   */\n      sub\n        /* \"#utility.yul\":17361:17362   */\n      0x00\n        /* \"#utility.yul\":17350:17359   */\n      dup4\n        /* \"#utility.yul\":17346:17363   */\n      add\n        /* \"#utility.yul\":17339:17386   */\n      mstore\n        /* \"#utility.yul\":17403:17534   */\n      tag_320\n        /* \"#utility.yul\":17529:17533   */\n      dup2\n        /* \"#utility.yul\":17403:17534   */\n      tag_140\n      jump\t// in\n    tag_320:\n        /* \"#utility.yul\":17395:17534   */\n      swap1\n      pop\n        /* \"#utility.yul\":17122:17541   */\n      swap2\n      swap1\n      pop\n      jump\t// out\n        /* \"#utility.yul\":17547:17710   */\n    tag_141:\n        /* \"#utility.yul\":17687:17702   */\n      0x496e76616c69642072616e676500000000000000000000000000000000000000\n        /* \"#utility.yul\":17683:17684   */\n      0x00\n        /* \"#utility.yul\":17675:17681   */\n      dup3\n        /* \"#utility.yul\":17671:17685   */\n      add\n        /* \"#utility.yul\":17664:17703   */\n      mstore\n        /* \"#utility.yul\":17547:17710   */\n      pop\n      jump\t// out\n        /* \"#utility.yul\":17716:18082   */\n    tag_142:\n        /* \"#utility.yul\":17858:17861   */\n      0x00\n        /* \"#utility.yul\":17879:17946   */\n      tag_323\n        /* \"#utility.yul\":17943:17945   */\n      0x0d\n        /* \"#utility.yul\":17938:17941   */\n      dup4\n        /* \"#utility.yul\":17879:17946   */\n      tag_95\n      jump\t// in\n    tag_323:\n        /* \"#utility.yul\":17872:17946   */\n      swap2\n      pop\n        /* \"#utility.yul\":17955:18048   */\n      tag_324\n        /* \"#utility.yul\":18044:18047   */\n      dup3\n        /* \"#utility.yul\":17955:18048   */\n      tag_141\n      jump\t// in\n    tag_324:\n        /* \"#utility.yul\":18073:18075   */\n      0x20\n        /* \"#utility.yul\":18068:18071   */\n      dup3\n        /* \"#utility.yul\":18064:18076   */\n      add\n        /* \"#utility.yul\":18057:18076   */\n      swap1\n      pop\n        /* \"#utility.yul\":17716:18082   */\n      swap2\n      swap1\n      pop\n      jump\t// out\n        /* \"#utility.yul\":18088:18507   */\n    tag_60:\n        /* \"#utility.yul\":18254:18258   */\n      0x00\n        /* \"#utility.yul\":18292:18294   */\n      0x20\n        /* \"#utility.yul\":18281:18290   */\n      dup3\n        /* \"#utility.yul\":18277:18295   */\n      add\n        /* \"#utility.yul\":18269:18295   */\n      swap1\n      pop\n        /* \"#utility.yul\":18341:18350   */\n      dup2\n        /* \"#utility.yul\":18335:18339   */\n      dup2\n        /* \"#utility.yul\":18331:18351   */\n      sub\n        /* \"#utility.yul\":18327:18328   */\n      0x00\n        /* \"#utility.yul\":18316:18325   */\n      dup4\n        /* \"#utility.yul\":18312:18329   */\n      add\n        /* \"#utility.yul\":18305:18352   */\n      mstore\n        /* \"#utility.yul\":18369:18500   */\n      tag_326\n        /* \"#utility.yul\":18495:18499   */\n      dup2\n        /* \"#utility.yul\":18369:18500   */\n      tag_142\n      jump\t// in\n    tag_326:\n        /* \"#utility.yul\":18361:18500   */\n      swap1\n      pop\n        /* \"#utility.yul\":18088:18507   */\n      swap2\n      swap1\n      pop\n      jump\t// out\n        /* \"#utility.yul\":18513:18693   */\n    tag_143:\n        /* \"#utility.yul\":18561:18638   */\n      0x4e487b7100000000000000000000000000000000000000000000000000000000\n        /* \"#utility.yul\":18558:18559   */\n      0x00\n        /* \"#utility.yul\":18551:18639   */\n      mstore\n        /* \"#utility.yul\":18658:18662   */\n      0x11\n        /* \"#utility.yul\":18655:18656   */\n      0x04\n        /* \"#utility.yul\":18648:18663   */\n      mstore\n        /* \"#utility.yul\":18682:18686   */\n      0x24\n        /* \"#utility.yul\":18679:18680   */\n      0x00\n        /* \"#utility.yul\":18672:18687   */\n      revert\n        /* \"#utility.yul\":18699:18893   */\n    tag_62:\n        /* \"#utility.yul\":18739:18743   */\n      0x00\n        /* \"#utility.yul\":18759:18779   */\n      tag_329\n        /* \"#utility.yul\":18777:18778   */\n      dup3\n        /* \"#utility.yul\":18759:18779   */\n      tag_88\n      jump\t// in\n    tag_329:\n        /* \"#utility.yul\":18754:18779   */\n      swap2\n      pop\n        /* \"#utility.yul\":18793:18813   */\n      tag_330\n        /* \"#utility.yul\":18811:18812   */\n      dup4\n        /* \"#utility.yul\":18793:18813   */\n      tag_88\n      jump\t// in\n    tag_330:\n        /* \"#utility.yul\":18788:18813   */\n      swap3\n      pop\n        /* \"#utility.yul\":18837:18838   */\n      dup3\n        /* \"#utility.yul\":18834:18835   */\n      dup3\n        /* \"#utility.yul\":18830:18839   */\n      sub\n        /* \"#utility.yul\":18822:18839   */\n      swap1\n      pop\n        /* \"#utility.yul\":18861:18862   */\n      dup2\n        /* \"#utility.yul\":18855:18859   */\n      dup2\n        /* \"#utility.yul\":18852:18863   */\n      gt\n        /* \"#utility.yul\":18849:18886   */\n      iszero\n      tag_331\n      jumpi\n        /* \"#utility.yul\":18866:18884   */\n      tag_332\n      tag_143\n      jump\t// in\n    tag_332:\n        /* \"#utility.yul\":18849:18886   */\n    tag_331:\n        /* \"#utility.yul\":18699:18893   */\n      swap3\n      swap2\n      pop\n      pop\n      jump\t// out\n        /* \"#utility.yul\":18899:19079   */\n    tag_75:\n        /* \"#utility.yul\":18947:19024   */\n      0x4e487b7100000000000000000000000000000000000000000000000000000000\n        /* \"#utility.yul\":18944:18945   */\n      0x00\n        /* \"#utility.yul\":18937:19025   */\n      mstore\n        /* \"#utility.yul\":19044:19048   */\n      0x32\n        /* \"#utility.yul\":19041:19042   */\n      0x04\n        /* \"#utility.yul\":19034:19049   */\n      mstore\n        /* \"#utility.yul\":19068:19072   */\n      0x24\n        /* \"#utility.yul\":19065:19066   */\n      0x00\n        /* \"#utility.yul\":19058:19073   */\n      revert\n\n    auxdata: 0xa26469706673582212201c7baedb4b0891b21ecdada8109083a0cf4985b98bdc5b85036252a84d92532b64736f6c63430008190033\n}\n",
				"bytecode": {
					"linkReferences": {},
					"object": "6080604052348015600e575f80fd5b506110948061001c5f395ff3fe608060405234801561000f575f80fd5b5060043610610055575f3560e01c80630d80fefd146100595780632a98e1f11461008b5780634847e35a146100bb578063b588bfad146100d9578063fff3c457146100f5575b5f80fd5b610073600480360381019061006e919061073c565b610125565b60405161008293929190610825565b60405180910390f35b6100a560048036038101906100a0919061088b565b6101fe565b6040516100b291906108b6565b60405180910390f35b6100c3610213565b6040516100d09190610a3d565b60405180910390f35b6100f360048036038101906100ee9190610b89565b6102b1565b005b61010f600480360381019061010a919061073c565b6103b8565b60405161011c9190610a3d565b60405180910390f35b5f8181548110610133575f80fd5b905f5260205f2090600302015f91509050805f015f9054906101000a900473ffffffffffffffffffffffffffffffffffffffff169080600101805461017790610bfd565b80601f01602080910402602001604051908101604052809291908181526020018280546101a390610bfd565b80156101ee5780601f106101c5576101008083540402835291602001916101ee565b820191905f5260205f20905b8154815290600101906020018083116101d157829003601f168201915b5050505050908060020154905083565b6001602052805f5260405f205f915090505481565b60605f60015f3373ffffffffffffffffffffffffffffffffffffffff1673ffffffffffffffffffffffffffffffffffffffff1681526020019081526020015f205490505f808054905090508060015f3373ffffffffffffffffffffffffffffffffffffffff1673ffffffffffffffffffffffffffffffffffffffff1681526020019081526020015f20819055506102aa82826104a2565b9250505090565b61012c815111156102f7576040517f08c379a00000000000000000000000000000000000000000000000000000000081526004016102ee90610c77565b60405180910390fd5b5f60405180606001604052803373ffffffffffffffffffffffffffffffffffffffff16815260200183815260200142815250908060018154018082558091505060019003905f5260205f2090600302015f909190919091505f820151815f015f6101000a81548173ffffffffffffffffffffffffffffffffffffffff021916908373ffffffffffffffffffffffffffffffffffffffff16021790555060208201518160010190816103a89190610e32565b5060408201518160020155505050565b60605f805490508210610400576040517f08c379a00000000000000000000000000000000000000000000000000000000081526004016103f790610f4b565b60405180910390fd5b5f808054905090508060015f3373ffffffffffffffffffffffffffffffffffffffff1673ffffffffffffffffffffffffffffffffffffffff1681526020019081526020015f20541015610490578060015f3373ffffffffffffffffffffffffffffffffffffffff1673ffffffffffffffffffffffffffffffffffffffff1681526020019081526020015f20819055505b61049a83826104a2565b915050919050565b606081831080156104b757505f805490508211155b6104f6576040517f08c379a00000000000000000000000000000000000000000000000000000000081526004016104ed90610fb3565b60405180910390fd5b5f83836105039190610ffe565b90505f8167ffffffffffffffff8111156105205761051f610a65565b5b60405190808252806020026020018201604052801561055957816020015b6105466106c3565b81526020019060019003908161053e5790505b5090505f8590505b848110156106b7575f818154811061057c5761057b611031565b5b905f5260205f2090600302016040518060600160405290815f82015f9054906101000a900473ffffffffffffffffffffffffffffffffffffffff1673ffffffffffffffffffffffffffffffffffffffff1673ffffffffffffffffffffffffffffffffffffffff1681526020016001820180546105f790610bfd565b80601f016020809104026020016040519081016040528092919081815260200182805461062390610bfd565b801561066e5780601f106106455761010080835404028352916020019161066e565b820191905f5260205f20905b81548152906001019060200180831161065157829003601f168201915b5050505050815260200160028201548152505082878361068e9190610ffe565b8151811061069f5761069e611031565b5b60200260200101819052508080600101915050610561565b50809250505092915050565b60405180606001604052805f73ffffffffffffffffffffffffffffffffffffffff168152602001606081526020015f81525090565b5f604051905090565b5f80fd5b5f80fd5b5f819050919050565b61071b81610709565b8114610725575f80fd5b50565b5f8135905061073681610712565b92915050565b5f6020828403121561075157610750610701565b5b5f61075e84828501610728565b91505092915050565b5f73ffffffffffffffffffffffffffffffffffffffff82169050919050565b5f61079082610767565b9050919050565b6107a081610786565b82525050565b5f81519050919050565b5f82825260208201905092915050565b8281835e5f83830152505050565b5f601f19601f8301169050919050565b5f6107e8826107a6565b6107f281856107b0565b93506108028185602086016107c0565b61080b816107ce565b840191505092915050565b61081f81610709565b82525050565b5f6060820190506108385f830186610797565b818103602083015261084a81856107de565b90506108596040830184610816565b949350505050565b61086a81610786565b8114610874575f80fd5b50565b5f8135905061088581610861565b92915050565b5f602082840312156108a05761089f610701565b5b5f6108ad84828501610877565b91505092915050565b5f6020820190506108c95f830184610816565b92915050565b5f81519050919050565b5f82825260208201905092915050565b5f819050602082019050919050565b61090181610786565b82525050565b5f82825260208201905092915050565b5f610921826107a6565b61092b8185610907565b935061093b8185602086016107c0565b610944816107ce565b840191505092915050565b61095881610709565b82525050565b5f606083015f8301516109735f8601826108f8565b506020830151848203602086015261098b8282610917565b91505060408301516109a0604086018261094f565b508091505092915050565b5f6109b6838361095e565b905092915050565b5f602082019050919050565b5f6109d4826108cf565b6109de81856108d9565b9350836020820285016109f0856108e9565b805f5b85811015610a2b5784840389528151610a0c85826109ab565b9450610a17836109be565b925060208a019950506001810190506109f3565b50829750879550505050505092915050565b5f6020820190508181035f830152610a5581846109ca565b905092915050565b5f80fd5b5f80fd5b7f4e487b71000000000000000000000000000000000000000000000000000000005f52604160045260245ffd5b610a9b826107ce565b810181811067ffffffffffffffff82111715610aba57610ab9610a65565b5b80604052505050565b5f610acc6106f8565b9050610ad88282610a92565b919050565b5f67ffffffffffffffff821115610af757610af6610a65565b5b610b00826107ce565b9050602081019050919050565b828183375f83830152505050565b5f610b2d610b2884610add565b610ac3565b905082815260208101848484011115610b4957610b48610a61565b5b610b54848285610b0d565b509392505050565b5f82601f830112610b7057610b6f610a5d565b5b8135610b80848260208601610b1b565b91505092915050565b5f60208284031215610b9e57610b9d610701565b5b5f82013567ffffffffffffffff811115610bbb57610bba610705565b5b610bc784828501610b5c565b91505092915050565b7f4e487b71000000000000000000000000000000000000000000000000000000005f52602260045260245ffd5b5f6002820490506001821680610c1457607f821691505b602082108103610c2757610c26610bd0565b5b50919050565b7f4d6573736167652065786365656473206d6178696d756d206c656e67746800005f82015250565b5f610c61601e836107b0565b9150610c6c82610c2d565b602082019050919050565b5f6020820190508181035f830152610c8e81610c55565b9050919050565b5f819050815f5260205f209050919050565b5f6020601f8301049050919050565b5f82821b905092915050565b5f60088302610cf17fffffffffffffffffffffffffffffffffffffffffffffffffffffffffffffffff82610cb6565b610cfb8683610cb6565b95508019841693508086168417925050509392505050565b5f819050919050565b5f610d36610d31610d2c84610709565b610d13565b610709565b9050919050565b5f819050919050565b610d4f83610d1c565b610d63610d5b82610d3d565b848454610cc2565b825550505050565b5f90565b610d77610d6b565b610d82818484610d46565b505050565b5b81811015610da557610d9a5f82610d6f565b600181019050610d88565b5050565b601f821115610dea57610dbb81610c95565b610dc484610ca7565b81016020851015610dd3578190505b610de7610ddf85610ca7565b830182610d87565b50505b505050565b5f82821c905092915050565b5f610e0a5f1984600802610def565b1980831691505092915050565b5f610e228383610dfb565b9150826002028217905092915050565b610e3b826107a6565b67ffffffffffffffff811115610e5457610e53610a65565b5b610e5e8254610bfd565b610e69828285610da9565b5f60209050601f831160018114610e9a575f8415610e88578287015190505b610e928582610e17565b865550610ef9565b601f198416610ea886610c95565b5f5b82811015610ecf57848901518255600182019150602085019450602081019050610eaa565b86831015610eec5784890151610ee8601f891682610dfb565b8355505b6001600288020188555050505b505050505050565b7f537461727420696e646578206f7574206f6620626f756e6473000000000000005f82015250565b5f610f356019836107b0565b9150610f4082610f01565b602082019050919050565b5f6020820190508181035f830152610f6281610f29565b9050919050565b7f496e76616c69642072616e6765000000000000000000000000000000000000005f82015250565b5f610f9d600d836107b0565b9150610fa882610f69565b602082019050919050565b5f6020820190508181035f830152610fca81610f91565b9050919050565b7f4e487b71000000000000000000000000000000000000000000000000000000005f52601160045260245ffd5b5f61100882610709565b915061101383610709565b925082820390508181111561102b5761102a610fd1565b5b92915050565b7f4e487b71000000000000000000000000000000000000000000000000000000005f52603260045260245ffdfea26469706673582212201c7baedb4b0891b21ecdada8109083a0cf4985b98bdc5b85036252a84d92532b64736f6c63430008190033",
					"opcodes": "PUSH1 0x80 PUSH1 0x40 MSTORE CALLVALUE DUP1 ISZERO PUSH1 0xE JUMPI PUSH0 DUP1 REVERT JUMPDEST POP PUSH2 0x1094 DUP1 PUSH2 0x1C PUSH0 CODECOPY PUSH0 RETURN INVALID PUSH1 0x80 PUSH1 0x40 MSTORE CALLVALUE DUP1 ISZERO PUSH2 0xF JUMPI PUSH0 DUP1 REVERT JUMPDEST POP PUSH1 0x4 CALLDATASIZE LT PUSH2 0x55 JUMPI PUSH0 CALLDATALOAD PUSH1 0xE0 SHR DUP1 PUSH4 0xD80FEFD EQ PUSH2 0x59 JUMPI DUP1 PUSH4 0x2A98E1F1 EQ PUSH2 0x8B JUMPI DUP1 PUSH4 0x4847E35A EQ PUSH2 0xBB JUMPI DUP1 PUSH4 0xB588BFAD EQ PUSH2 0xD9 JUMPI DUP1 PUSH4 0xFFF3C457 EQ PUSH2 0xF5 JUMPI JUMPDEST PUSH0 DUP1 REVERT JUMPDEST PUSH2 0x73 PUSH1 0x4 DUP1 CALLDATASIZE SUB DUP2 ADD SWAP1 PUSH2 0x6E SWAP2 SWAP1 PUSH2 0x73C JUMP JUMPDEST PUSH2 0x125 JUMP JUMPDEST PUSH1 0x40 MLOAD PUSH2 0x82 SWAP4 SWAP3 SWAP2 SWAP1 PUSH2 0x825 JUMP JUMPDEST PUSH1 0x40 MLOAD DUP1 SWAP2 SUB SWAP1 RETURN JUMPDEST PUSH2 0xA5 PUSH1 0x4 DUP1 CALLDATASIZE SUB DUP2 ADD SWAP1 PUSH2 0xA0 SWAP2 SWAP1 PUSH2 0x88B JUMP JUMPDEST PUSH2 0x1FE JUMP JUMPDEST PUSH1 0x40 MLOAD PUSH2 0xB2 SWAP2 SWAP1 PUSH2 0x8B6 JUMP JUMPDEST PUSH1 0x40 MLOAD DUP1 SWAP2 SUB SWAP1 RETURN JUMPDEST PUSH2 0xC3 PUSH2 0x213 JUMP JUMPDEST PUSH1 0x40 MLOAD PUSH2 0xD0 SWAP2 SWAP1 PUSH2 0xA3D JUMP JUMPDEST PUSH1 0x40 MLOAD DUP1 SWAP2 SUB SWAP1 RETURN JUMPDEST PUSH2 0xF3 PUSH1 0x4 DUP1 CALLDATASIZE SUB DUP2 ADD SWAP1 PUSH2 0xEE SWAP2 SWAP1 PUSH2 0xB89 JUMP JUMPDEST PUSH2 0x2B1 JUMP JUMPDEST STOP JUMPDEST PUSH2 0x10F PUSH1 0x4 DUP1 CALLDATASIZE SUB DUP2 ADD SWAP1 PUSH2 0x10A SWAP2 SWAP1 PUSH2 0x73C JUMP JUMPDEST PUSH2 0x3B8 JUMP JUMPDEST PUSH1 0x40 MLOAD PUSH2 0x11C SWAP2 SWAP1 PUSH2 0xA3D JUMP JUMPDEST PUSH1 0x40 MLOAD DUP1 SWAP2 SUB SWAP1 RETURN JUMPDEST PUSH0 DUP2 DUP2 SLOAD DUP2 LT PUSH2 0x133 JUMPI PUSH0 DUP1 REVERT JUMPDEST SWAP1 PUSH0 MSTORE PUSH1 0x20 PUSH0 KECCAK256 SWAP1 PUSH1 0x3 MUL ADD PUSH0 SWAP2 POP SWAP1 POP DUP1 PUSH0 ADD PUSH0 SWAP1 SLOAD SWAP1 PUSH2 0x100 EXP SWAP1 DIV PUSH20 0xFFFFFFFFFFFFFFFFFFFFFFFFFFFFFFFFFFFFFFFF AND SWAP1 DUP1 PUSH1 0x1 ADD DUP1 SLOAD PUSH2 0x177 SWAP1 PUSH2 0xBFD JUMP JUMPDEST DUP1 PUSH1 0x1F ADD PUSH1 0x20 DUP1 SWAP2 DIV MUL PUSH1 0x20 ADD PUSH1 0x40 MLOAD SWAP1 DUP2 ADD PUSH1 0x40 MSTORE DUP1 SWAP3 SWAP2 SWAP1 DUP2 DUP2 MSTORE PUSH1 0x20 ADD DUP3 DUP1 SLOAD PUSH2 0x1A3 SWAP1 PUSH2 0xBFD JUMP JUMPDEST DUP1 ISZERO PUSH2 0x1EE JUMPI DUP1 PUSH1 0x1F LT PUSH2 0x1C5 JUMPI PUSH2 0x100 DUP1 DUP4 SLOAD DIV MUL DUP4 MSTORE SWAP2 PUSH1 0x20 ADD SWAP2 PUSH2 0x1EE JUMP JUMPDEST DUP3 ADD SWAP2 SWAP1 PUSH0 MSTORE PUSH1 0x20 PUSH0 KECCAK256 SWAP1 JUMPDEST DUP2 SLOAD DUP2 MSTORE SWAP1 PUSH1 0x1 ADD SWAP1 PUSH1 0x20 ADD DUP1 DUP4 GT PUSH2 0x1D1 JUMPI DUP3 SWAP1 SUB PUSH1 0x1F AND DUP3 ADD SWAP2 JUMPDEST POP POP POP POP POP SWAP1 DUP1 PUSH1 0x2 ADD SLOAD SWAP1 POP DUP4 JUMP JUMPDEST PUSH1 0x1 PUSH1 0x20 MSTORE DUP1 PUSH0 MSTORE PUSH1 0x40 PUSH0 KECCAK256 PUSH0 SWAP2 POP SWAP1 POP SLOAD DUP2 JUMP JUMPDEST PUSH1 0x60 PUSH0 PUSH1 0x1 PUSH0 CALLER PUSH20 0xFFFFFFFFFFFFFFFFFFFFFFFFFFFFFFFFFFFFFFFF AND PUSH20 0xFFFFFFFFFFFFFFFFFFFFFFFFFFFFFFFFFFFFFFFF AND DUP2 MSTORE PUSH1 0x20 ADD SWAP1 DUP2 MSTORE PUSH1 0x20 ADD PUSH0 KECCAK256 SLOAD SWAP1 POP PUSH0 DUP1 DUP1 SLOAD SWAP1 POP SWAP1 POP DUP1 PUSH1 0x1 PUSH0 CALLER PUSH20 0xFFFFFFFFFFFFFFFFFFFFFFFFFFFFFFFFFFFFFFFF AND PUSH20 0xFFFFFFFFFFFFFFFFFFFFFFFFFFFFFFFFFFFFFFFF AND DUP2 MSTORE PUSH1 0x20 ADD SWAP1 DUP2 MSTORE PUSH1 0x20 ADD PUSH0 KECCAK256 DUP2 SWAP1 SSTORE POP PUSH2 0x2AA DUP3 DUP3 PUSH2 0x4A2 JUMP JUMPDEST SWAP3 POP POP POP SWAP1 JUMP JUMPDEST PUSH2 0x12C DUP2 MLOAD GT ISZERO PUSH2 0x2F7 JUMPI PUSH1 0x40 MLOAD PUSH32 0x8C379A000000000000000000000000000000000000000000000000000000000 DUP2 MSTORE PUSH1 0x4 ADD PUSH2 0x2EE SWAP1 PUSH2 0xC77 JUMP JUMPDEST PUSH1 0x40 MLOAD DUP1 SWAP2 SUB SWAP1 REVERT JUMPDEST PUSH0 PUSH1 0x40 MLOAD DUP1 PUSH1 0x60 ADD PUSH1 0x40 MSTORE DUP1 CALLER PUSH20 0xFFFFFFFFFFFFFFFFFFFFFFFFFFFFFFFFFFFFFFFF AND DUP2 MSTORE PUSH1 0x20 ADD DUP4 DUP2 MSTORE PUSH1 0x20 ADD TIMESTAMP DUP2 MSTORE POP SWAP1 DUP1 PUSH1 0x1 DUP2 SLOAD ADD DUP1 DUP3 SSTORE DUP1 SWAP2 POP POP PUSH1 0x1 SWAP1 SUB SWAP1 PUSH0 MSTORE PUSH1 0x20 PUSH0 KECCAK256 SWAP1 PUSH1 0x3 MUL ADD PUSH0 SWAP1 SWAP2 SWAP1 SWAP2 SWAP1 SWAP2 POP PUSH0 DUP3 ADD MLOAD DUP2 PUSH0 ADD PUSH0 PUSH2 0x100 EXP DUP2 SLOAD DUP2 PUSH20 0xFFFFFFFFFFFFFFFFFFFFFFFFFFFFFFFFFFFFFFFF MUL NOT AND SWAP1 DUP4 PUSH20 0xFFFFFFFFFFFFFFFFFFFFFFFFFFFFFFFFFFFFFFFF AND MUL OR SWAP1 SSTORE POP PUSH1 0x20 DUP3 ADD MLOAD DUP2 PUSH1 0x1 ADD SWAP1 DUP2 PUSH2 0x3A8 SWAP2 SWAP1 PUSH2 0xE32 JUMP JUMPDEST POP PUSH1 0x40 DUP3 ADD MLOAD DUP2 PUSH1 0x2 ADD SSTORE POP POP POP JUMP JUMPDEST PUSH1 0x60 PUSH0 DUP1 SLOAD SWAP1 POP DUP3 LT PUSH2 0x400 JUMPI PUSH1 0x40 MLOAD PUSH32 0x8C379A000000000000000000000000000000000000000000000000000000000 DUP2 MSTORE PUSH1 0x4 ADD PUSH2 0x3F7 SWAP1 PUSH2 0xF4B JUMP JUMPDEST PUSH1 0x40 MLOAD DUP1 SWAP2 SUB SWAP1 REVERT JUMPDEST PUSH0 DUP1 DUP1 SLOAD SWAP1 POP SWAP1 POP DUP1 PUSH1 0x1 PUSH0 CALLER PUSH20 0xFFFFFFFFFFFFFFFFFFFFFFFFFFFFFFFFFFFFFFFF AND PUSH20 0xFFFFFFFFFFFFFFFFFFFFFFFFFFFFFFFFFFFFFFFF AND DUP2 MSTORE PUSH1 0x20 ADD SWAP1 DUP2 MSTORE PUSH1 0x20 ADD PUSH0 KECCAK256 SLOAD LT ISZERO PUSH2 0x490 JUMPI DUP1 PUSH1 0x1 PUSH0 CALLER PUSH20 0xFFFFFFFFFFFFFFFFFFFFFFFFFFFFFFFFFFFFFFFF AND PUSH20 0xFFFFFFFFFFFFFFFFFFFFFFFFFFFFFFFFFFFFFFFF AND DUP2 MSTORE PUSH1 0x20 ADD SWAP1 DUP2 MSTORE PUSH1 0x20 ADD PUSH0 KECCAK256 DUP2 SWAP1 SSTORE POP JUMPDEST PUSH2 0x49A DUP4 DUP3 PUSH2 0x4A2 JUMP JUMPDEST SWAP2 POP POP SWAP2 SWAP1 POP JUMP JUMPDEST PUSH1 0x60 DUP2 DUP4 LT DUP1 ISZERO PUSH2 0x4B7 JUMPI POP PUSH0 DUP1 SLOAD SWAP1 POP DUP3 GT ISZERO JUMPDEST PUSH2 0x4F6 JUMPI PUSH1 0x40 MLOAD PUSH32 0x8C379A000000000000000000000000000000000000000000000000000000000 DUP2 MSTORE PUSH1 0x4 ADD PUSH2 0x4ED SWAP1 PUSH2 0xFB3 JUMP JUMPDEST PUSH1 0x40 MLOAD DUP1 SWAP2 SUB SWAP1 REVERT JUMPDEST PUSH0 DUP4 DUP4 PUSH2 0x503 SWAP2 SWAP1 PUSH2 0xFFE JUMP JUMPDEST SWAP1 POP PUSH0 DUP2 PUSH8 0xFFFFFFFFFFFFFFFF DUP2 GT ISZERO PUSH2 0x520 JUMPI PUSH2 0x51F PUSH2 0xA65 JUMP JUMPDEST JUMPDEST PUSH1 0x40 MLOAD SWAP1 DUP1 DUP3 MSTORE DUP1 PUSH1 0x20 MUL PUSH1 0x20 ADD DUP3 ADD PUSH1 0x40 MSTORE DUP1 ISZERO PUSH2 0x559 JUMPI DUP2 PUSH1 0x20 ADD JUMPDEST PUSH2 0x546 PUSH2 0x6C3 JUMP JUMPDEST DUP2 MSTORE PUSH1 0x20 ADD SWAP1 PUSH1 0x1 SWAP1 SUB SWAP1 DUP2 PUSH2 0x53E JUMPI SWAP1 POP JUMPDEST POP SWAP1 POP PUSH0 DUP6 SWAP1 POP JUMPDEST DUP5 DUP2 LT ISZERO PUSH2 0x6B7 JUMPI PUSH0 DUP2 DUP2 SLOAD DUP2 LT PUSH2 0x57C JUMPI PUSH2 0x57B PUSH2 0x1031 JUMP JUMPDEST JUMPDEST SWAP1 PUSH0 MSTORE PUSH1 0x20 PUSH0 KECCAK256 SWAP1 PUSH1 0x3 MUL ADD PUSH1 0x40 MLOAD DUP1 PUSH1 0x60 ADD PUSH1 0x40 MSTORE SWAP1 DUP2 PUSH0 DUP3 ADD PUSH0 SWAP1 SLOAD SWAP1 PUSH2 0x100 EXP SWAP1 DIV PUSH20 0xFFFFFFFFFFFFFFFFFFFFFFFFFFFFFFFFFFFFFFFF AND PUSH20 0xFFFFFFFFFFFFFFFFFFFFFFFFFFFFFFFFFFFFFFFF AND PUSH20 0xFFFFFFFFFFFFFFFFFFFFFFFFFFFFFFFFFFFFFFFF AND DUP2 MSTORE PUSH1 0x20 ADD PUSH1 0x1 DUP3 ADD DUP1 SLOAD PUSH2 0x5F7 SWAP1 PUSH2 0xBFD JUMP JUMPDEST DUP1 PUSH1 0x1F ADD PUSH1 0x20 DUP1 SWAP2 DIV MUL PUSH1 0x20 ADD PUSH1 0x40 MLOAD SWAP1 DUP2 ADD PUSH1 0x40 MSTORE DUP1 SWAP3 SWAP2 SWAP1 DUP2 DUP2 MSTORE PUSH1 0x20 ADD DUP3 DUP1 SLOAD PUSH2 0x623 SWAP1 PUSH2 0xBFD JUMP JUMPDEST DUP1 ISZERO PUSH2 0x66E JUMPI DUP1 PUSH1 0x1F LT PUSH2 0x645 JUMPI PUSH2 0x100 DUP1 DUP4 SLOAD DIV MUL DUP4 MSTORE SWAP2 PUSH1 0x20 ADD SWAP2 PUSH2 0x66E JUMP JUMPDEST DUP3 ADD SWAP2 SWAP1 PUSH0 MSTORE PUSH1 0x20 PUSH0 KECCAK256 SWAP1 JUMPDEST DUP2 SLOAD DUP2 MSTORE SWAP1 PUSH1 0x1 ADD SWAP1 PUSH1 0x20 ADD DUP1 DUP4 GT PUSH2 0x651 JUMPI DUP3 SWAP1 SUB PUSH1 0x1F AND DUP3 ADD SWAP2 JUMPDEST POP POP POP POP POP DUP2 MSTORE PUSH1 0x20 ADD PUSH1 0x2 DUP3 ADD SLOAD DUP2 MSTORE POP POP DUP3 DUP8 DUP4 PUSH2 0x68E SWAP2 SWAP1 PUSH2 0xFFE JUMP JUMPDEST DUP2 MLOAD DUP2 LT PUSH2 0x69F JUMPI PUSH2 0x69E PUSH2 0x1031 JUMP JUMPDEST JUMPDEST PUSH1 0x20 MUL PUSH1 0x20 ADD ADD DUP2 SWAP1 MSTORE POP DUP1 DUP1 PUSH1 0x1 ADD SWAP2 POP POP PUSH2 0x561 JUMP JUMPDEST POP DUP1 SWAP3 POP POP POP SWAP3 SWAP2 POP POP JUMP JUMPDEST PUSH1 0x40 MLOAD DUP1 PUSH1 0x60 ADD PUSH1 0x40 MSTORE DUP1 PUSH0 PUSH20 0xFFFFFFFFFFFFFFFFFFFFFFFFFFFFFFFFFFFFFFFF AND DUP2 MSTORE PUSH1 0x20 ADD PUSH1 0x60 DUP2 MSTORE PUSH1 0x20 ADD PUSH0 DUP2 MSTORE POP SWAP1 JUMP JUMPDEST PUSH0 PUSH1 0x40 MLOAD SWAP1 POP SWAP1 JUMP JUMPDEST PUSH0 DUP1 REVERT JUMPDEST PUSH0 DUP1 REVERT JUMPDEST PUSH0 DUP2 SWAP1 POP SWAP2 SWAP1 POP JUMP JUMPDEST PUSH2 0x71B DUP2 PUSH2 0x709 JUMP JUMPDEST DUP2 EQ PUSH2 0x725 JUMPI PUSH0 DUP1 REVERT JUMPDEST POP JUMP JUMPDEST PUSH0 DUP2 CALLDATALOAD SWAP1 POP PUSH2 0x736 DUP2 PUSH2 0x712 JUMP JUMPDEST SWAP3 SWAP2 POP POP JUMP JUMPDEST PUSH0 PUSH1 0x20 DUP3 DUP5 SUB SLT ISZERO PUSH2 0x751 JUMPI PUSH2 0x750 PUSH2 0x701 JUMP JUMPDEST JUMPDEST PUSH0 PUSH2 0x75E DUP5 DUP3 DUP6 ADD PUSH2 0x728 JUMP JUMPDEST SWAP2 POP POP SWAP3 SWAP2 POP POP JUMP JUMPDEST PUSH0 PUSH20 0xFFFFFFFFFFFFFFFFFFFFFFFFFFFFFFFFFFFFFFFF DUP3 AND SWAP1 POP SWAP2 SWAP1 POP JUMP JUMPDEST PUSH0 PUSH2 0x790 DUP3 PUSH2 0x767 JUMP JUMPDEST SWAP1 POP SWAP2 SWAP1 POP JUMP JUMPDEST PUSH2 0x7A0 DUP2 PUSH2 0x786 JUMP JUMPDEST DUP3 MSTORE POP POP JUMP JUMPDEST PUSH0 DUP2 MLOAD SWAP1 POP SWAP2 SWAP1 POP JUMP JUMPDEST PUSH0 DUP3 DUP3 MSTORE PUSH1 0x20 DUP3 ADD SWAP1 POP SWAP3 SWAP2 POP POP JUMP JUMPDEST DUP3 DUP2 DUP4 MCOPY PUSH0 DUP4 DUP4 ADD MSTORE POP POP POP JUMP JUMPDEST PUSH0 PUSH1 0x1F NOT PUSH1 0x1F DUP4 ADD AND SWAP1 POP SWAP2 SWAP1 POP JUMP JUMPDEST PUSH0 PUSH2 0x7E8 DUP3 PUSH2 0x7A6 JUMP JUMPDEST PUSH2 0x7F2 DUP2 DUP6 PUSH2 0x7B0 JUMP JUMPDEST SWAP4 POP PUSH2 0x802 DUP2 DUP6 PUSH1 0x20 DUP7 ADD PUSH2 0x7C0 JUMP JUMPDEST PUSH2 0x80B DUP2 PUSH2 0x7CE JUMP JUMPDEST DUP5 ADD SWAP2 POP POP SWAP3 SWAP2 POP POP JUMP JUMPDEST PUSH2 0x81F DUP2 PUSH2 0x709 JUMP JUMPDEST DUP3 MSTORE POP POP JUMP JUMPDEST PUSH0 PUSH1 0x60 DUP3 ADD SWAP1 POP PUSH2 0x838 PUSH0 DUP4 ADD DUP7 PUSH2 0x797 JUMP JUMPDEST DUP2 DUP2 SUB PUSH1 0x20 DUP4 ADD MSTORE PUSH2 0x84A DUP2 DUP6 PUSH2 0x7DE JUMP JUMPDEST SWAP1 POP PUSH2 0x859 PUSH1 0x40 DUP4 ADD DUP5 PUSH2 0x816 JUMP JUMPDEST SWAP5 SWAP4 POP POP POP POP JUMP JUMPDEST PUSH2 0x86A DUP2 PUSH2 0x786 JUMP JUMPDEST DUP2 EQ PUSH2 0x874 JUMPI PUSH0 DUP1 REVERT JUMPDEST POP JUMP JUMPDEST PUSH0 DUP2 CALLDATALOAD SWAP1 POP PUSH2 0x885 DUP2 PUSH2 0x861 JUMP JUMPDEST SWAP3 SWAP2 POP POP JUMP JUMPDEST PUSH0 PUSH1 0x20 DUP3 DUP5 SUB SLT ISZERO PUSH2 0x8A0 JUMPI PUSH2 0x89F PUSH2 0x701 JUMP JUMPDEST JUMPDEST PUSH0 PUSH2 0x8AD DUP5 DUP3 DUP6 ADD PUSH2 0x877 JUMP JUMPDEST SWAP2 POP POP SWAP3 SWAP2 POP POP JUMP JUMPDEST PUSH0 PUSH1 0x20 DUP3 ADD SWAP1 POP PUSH2 0x8C9 PUSH0 DUP4 ADD DUP5 PUSH2 0x816 JUMP JUMPDEST SWAP3 SWAP2 POP POP JUMP JUMPDEST PUSH0 DUP2 MLOAD SWAP1 POP SWAP2 SWAP1 POP JUMP JUMPDEST PUSH0 DUP3 DUP3 MSTORE PUSH1 0x20 DUP3 ADD SWAP1 POP SWAP3 SWAP2 POP POP JUMP JUMPDEST PUSH0 DUP2 SWAP1 POP PUSH1 0x20 DUP3 ADD SWAP1 POP SWAP2 SWAP1 POP JUMP JUMPDEST PUSH2 0x901 DUP2 PUSH2 0x786 JUMP JUMPDEST DUP3 MSTORE POP POP JUMP JUMPDEST PUSH0 DUP3 DUP3 MSTORE PUSH1 0x20 DUP3 ADD SWAP1 POP SWAP3 SWAP2 POP POP JUMP JUMPDEST PUSH0 PUSH2 0x921 DUP3 PUSH2 0x7A6 JUMP JUMPDEST PUSH2 0x92B DUP2 DUP6 PUSH2 0x907 JUMP JUMPDEST SWAP4 POP PUSH2 0x93B DUP2 DUP6 PUSH1 0x20 DUP7 ADD PUSH2 0x7C0 JUMP JUMPDEST PUSH2 0x944 DUP2 PUSH2 0x7CE JUMP JUMPDEST DUP5 ADD SWAP2 POP POP SWAP3 SWAP2 POP POP JUMP JUMPDEST PUSH2 0x958 DUP2 PUSH2 0x709 JUMP JUMPDEST DUP3 MSTORE POP POP JUMP JUMPDEST PUSH0 PUSH1 0x60 DUP4 ADD PUSH0 DUP4 ADD MLOAD PUSH2 0x973 PUSH0 DUP7 ADD DUP3 PUSH2 0x8F8 JUMP JUMPDEST POP PUSH1 0x20 DUP4 ADD MLOAD DUP5 DUP3 SUB PUSH1 0x20 DUP7 ADD MSTORE PUSH2 0x98B DUP3 DUP3 PUSH2 0x917 JUMP JUMPDEST SWAP2 POP POP PUSH1 0x40 DUP4 ADD MLOAD PUSH2 0x9A0 PUSH1 0x40 DUP7 ADD DUP3 PUSH2 0x94F JUMP JUMPDEST POP DUP1 SWAP2 POP POP SWAP3 SWAP2 POP POP JUMP JUMPDEST PUSH0 PUSH2 0x9B6 DUP4 DUP4 PUSH2 0x95E JUMP JUMPDEST SWAP1 POP SWAP3 SWAP2 POP POP JUMP JUMPDEST PUSH0 PUSH1 0x20 DUP3 ADD SWAP1 POP SWAP2 SWAP1 POP JUMP JUMPDEST PUSH0 PUSH2 0x9D4 DUP3 PUSH2 0x8CF JUMP JUMPDEST PUSH2 0x9DE DUP2 DUP6 PUSH2 0x8D9 JUMP JUMPDEST SWAP4 POP DUP4 PUSH1 0x20 DUP3 MUL DUP6 ADD PUSH2 0x9F0 DUP6 PUSH2 0x8E9 JUMP JUMPDEST DUP1 PUSH0 JUMPDEST DUP6 DUP2 LT ISZERO PUSH2 0xA2B JUMPI DUP5 DUP5 SUB DUP10 MSTORE DUP2 MLOAD PUSH2 0xA0C DUP6 DUP3 PUSH2 0x9AB JUMP JUMPDEST SWAP5 POP PUSH2 0xA17 DUP4 PUSH2 0x9BE JUMP JUMPDEST SWAP3 POP PUSH1 0x20 DUP11 ADD SWAP10 POP POP PUSH1 0x1 DUP2 ADD SWAP1 POP PUSH2 0x9F3 JUMP JUMPDEST POP DUP3 SWAP8 POP DUP8 SWAP6 POP POP POP POP POP POP SWAP3 SWAP2 POP POP JUMP JUMPDEST PUSH0 PUSH1 0x20 DUP3 ADD SWAP1 POP DUP2 DUP2 SUB PUSH0 DUP4 ADD MSTORE PUSH2 0xA55 DUP2 DUP5 PUSH2 0x9CA JUMP JUMPDEST SWAP1 POP SWAP3 SWAP2 POP POP JUMP JUMPDEST PUSH0 DUP1 REVERT JUMPDEST PUSH0 DUP1 REVERT JUMPDEST PUSH32 0x4E487B7100000000000000000000000000000000000000000000000000000000 PUSH0 MSTORE PUSH1 0x41 PUSH1 0x4 MSTORE PUSH1 0x24 PUSH0 REVERT JUMPDEST PUSH2 0xA9B DUP3 PUSH2 0x7CE JUMP JUMPDEST DUP2 ADD DUP2 DUP2 LT PUSH8 0xFFFFFFFFFFFFFFFF DUP3 GT OR ISZERO PUSH2 0xABA JUMPI PUSH2 0xAB9 PUSH2 0xA65 JUMP JUMPDEST JUMPDEST DUP1 PUSH1 0x40 MSTORE POP POP POP JUMP JUMPDEST PUSH0 PUSH2 0xACC PUSH2 0x6F8 JUMP JUMPDEST SWAP1 POP PUSH2 0xAD8 DUP3 DUP3 PUSH2 0xA92 JUMP JUMPDEST SWAP2 SWAP1 POP JUMP JUMPDEST PUSH0 PUSH8 0xFFFFFFFFFFFFFFFF DUP3 GT ISZERO PUSH2 0xAF7 JUMPI PUSH2 0xAF6 PUSH2 0xA65 JUMP JUMPDEST JUMPDEST PUSH2 0xB00 DUP3 PUSH2 0x7CE JUMP JUMPDEST SWAP1 POP PUSH1 0x20 DUP2 ADD SWAP1 POP SWAP2 SWAP1 POP JUMP JUMPDEST DUP3 DUP2 DUP4 CALLDATACOPY PUSH0 DUP4 DUP4 ADD MSTORE POP POP POP JUMP JUMPDEST PUSH0 PUSH2 0xB2D PUSH2 0xB28 DUP5 PUSH2 0xADD JUMP JUMPDEST PUSH2 0xAC3 JUMP JUMPDEST SWAP1 POP DUP3 DUP2 MSTORE PUSH1 0x20 DUP2 ADD DUP5 DUP5 DUP5 ADD GT ISZERO PUSH2 0xB49 JUMPI PUSH2 0xB48 PUSH2 0xA61 JUMP JUMPDEST JUMPDEST PUSH2 0xB54 DUP5 DUP3 DUP6 PUSH2 0xB0D JUMP JUMPDEST POP SWAP4 SWAP3 POP POP POP JUMP JUMPDEST PUSH0 DUP3 PUSH1 0x1F DUP4 ADD SLT PUSH2 0xB70 JUMPI PUSH2 0xB6F PUSH2 0xA5D JUMP JUMPDEST JUMPDEST DUP2 CALLDATALOAD PUSH2 0xB80 DUP5 DUP3 PUSH1 0x20 DUP7 ADD PUSH2 0xB1B JUMP JUMPDEST SWAP2 POP POP SWAP3 SWAP2 POP POP JUMP JUMPDEST PUSH0 PUSH1 0x20 DUP3 DUP5 SUB SLT ISZERO PUSH2 0xB9E JUMPI PUSH2 0xB9D PUSH2 0x701 JUMP JUMPDEST JUMPDEST PUSH0 DUP3 ADD CALLDATALOAD PUSH8 0xFFFFFFFFFFFFFFFF DUP2 GT ISZERO PUSH2 0xBBB JUMPI PUSH2 0xBBA PUSH2 0x705 JUMP JUMPDEST JUMPDEST PUSH2 0xBC7 DUP5 DUP3 DUP6 ADD PUSH2 0xB5C JUMP JUMPDEST SWAP2 POP POP SWAP3 SWAP2 POP POP JUMP JUMPDEST PUSH32 0x4E487B7100000000000000000000000000000000000000000000000000000000 PUSH0 MSTORE PUSH1 0x22 PUSH1 0x4 MSTORE PUSH1 0x24 PUSH0 REVERT JUMPDEST PUSH0 PUSH1 0x2 DUP3 DIV SWAP1 POP PUSH1 0x1 DUP3 AND DUP1 PUSH2 0xC14 JUMPI PUSH1 0x7F DUP3 AND SWAP2 POP JUMPDEST PUSH1 0x20 DUP3 LT DUP2 SUB PUSH2 0xC27 JUMPI PUSH2 0xC26 PUSH2 0xBD0 JUMP JUMPDEST JUMPDEST POP SWAP2 SWAP1 POP JUMP JUMPDEST PUSH32 0x4D6573736167652065786365656473206D6178696D756D206C656E6774680000 PUSH0 DUP3 ADD MSTORE POP JUMP JUMPDEST PUSH0 PUSH2 0xC61 PUSH1 0x1E DUP4 PUSH2 0x7B0 JUMP JUMPDEST SWAP2 POP PUSH2 0xC6C DUP3 PUSH2 0xC2D JUMP JUMPDEST PUSH1 0x20 DUP3 ADD SWAP1 POP SWAP2 SWAP1 POP JUMP JUMPDEST PUSH0 PUSH1 0x20 DUP3 ADD SWAP1 POP DUP2 DUP2 SUB PUSH0 DUP4 ADD MSTORE PUSH2 0xC8E DUP2 PUSH2 0xC55 JUMP JUMPDEST SWAP1 POP SWAP2 SWAP1 POP JUMP JUMPDEST PUSH0 DUP2 SWAP1 POP DUP2 PUSH0 MSTORE PUSH1 0x20 PUSH0 KECCAK256 SWAP1 POP SWAP2 SWAP1 POP JUMP JUMPDEST PUSH0 PUSH1 0x20 PUSH1 0x1F DUP4 ADD DIV SWAP1 POP SWAP2 SWAP1 POP JUMP JUMPDEST PUSH0 DUP3 DUP3 SHL SWAP1 POP SWAP3 SWAP2 POP POP JUMP JUMPDEST PUSH0 PUSH1 0x8 DUP4 MUL PUSH2 0xCF1 PUSH32 0xFFFFFFFFFFFFFFFFFFFFFFFFFFFFFFFFFFFFFFFFFFFFFFFFFFFFFFFFFFFFFFFF DUP3 PUSH2 0xCB6 JUMP JUMPDEST PUSH2 0xCFB DUP7 DUP4 PUSH2 0xCB6 JUMP JUMPDEST SWAP6 POP DUP1 NOT DUP5 AND SWAP4 POP DUP1 DUP7 AND DUP5 OR SWAP3 POP POP POP SWAP4 SWAP3 POP POP POP JUMP JUMPDEST PUSH0 DUP2 SWAP1 POP SWAP2 SWAP1 POP JUMP JUMPDEST PUSH0 PUSH2 0xD36 PUSH2 0xD31 PUSH2 0xD2C DUP5 PUSH2 0x709 JUMP JUMPDEST PUSH2 0xD13 JUMP JUMPDEST PUSH2 0x709 JUMP JUMPDEST SWAP1 POP SWAP2 SWAP1 POP JUMP JUMPDEST PUSH0 DUP2 SWAP1 POP SWAP2 SWAP1 POP JUMP JUMPDEST PUSH2 0xD4F DUP4 PUSH2 0xD1C JUMP JUMPDEST PUSH2 0xD63 PUSH2 0xD5B DUP3 PUSH2 0xD3D JUMP JUMPDEST DUP5 DUP5 SLOAD PUSH2 0xCC2 JUMP JUMPDEST DUP3 SSTORE POP POP POP POP JUMP JUMPDEST PUSH0 SWAP1 JUMP JUMPDEST PUSH2 0xD77 PUSH2 0xD6B JUMP JUMPDEST PUSH2 0xD82 DUP2 DUP5 DUP5 PUSH2 0xD46 JUMP JUMPDEST POP POP POP JUMP JUMPDEST JUMPDEST DUP2 DUP2 LT ISZERO PUSH2 0xDA5 JUMPI PUSH2 0xD9A PUSH0 DUP3 PUSH2 0xD6F JUMP JUMPDEST PUSH1 0x1 DUP2 ADD SWAP1 POP PUSH2 0xD88 JUMP JUMPDEST POP POP JUMP JUMPDEST PUSH1 0x1F DUP3 GT ISZERO PUSH2 0xDEA JUMPI PUSH2 0xDBB DUP2 PUSH2 0xC95 JUMP JUMPDEST PUSH2 0xDC4 DUP5 PUSH2 0xCA7 JUMP JUMPDEST DUP2 ADD PUSH1 0x20 DUP6 LT ISZERO PUSH2 0xDD3 JUMPI DUP2 SWAP1 POP JUMPDEST PUSH2 0xDE7 PUSH2 0xDDF DUP6 PUSH2 0xCA7 JUMP JUMPDEST DUP4 ADD DUP3 PUSH2 0xD87 JUMP JUMPDEST POP POP JUMPDEST POP POP POP JUMP JUMPDEST PUSH0 DUP3 DUP3 SHR SWAP1 POP SWAP3 SWAP2 POP POP JUMP JUMPDEST PUSH0 PUSH2 0xE0A PUSH0 NOT DUP5 PUSH1 0x8 MUL PUSH2 0xDEF JUMP JUMPDEST NOT DUP1 DUP4 AND SWAP2 POP POP SWAP3 SWAP2 POP POP JUMP JUMPDEST PUSH0 PUSH2 0xE22 DUP4 DUP4 PUSH2 0xDFB JUMP JUMPDEST SWAP2 POP DUP3 PUSH1 0x2 MUL DUP3 OR SWAP1 POP SWAP3 SWAP2 POP POP JUMP JUMPDEST PUSH2 0xE3B DUP3 PUSH2 0x7A6 JUMP JUMPDEST PUSH8 0xFFFFFFFFFFFFFFFF DUP2 GT ISZERO PUSH2 0xE54 JUMPI PUSH2 0xE53 PUSH2 0xA65 JUMP JUMPDEST JUMPDEST PUSH2 0xE5E DUP3 SLOAD PUSH2 0xBFD JUMP JUMPDEST PUSH2 0xE69 DUP3 DUP3 DUP6 PUSH2 0xDA9 JUMP JUMPDEST PUSH0 PUSH1 0x20 SWAP1 POP PUSH1 0x1F DUP4 GT PUSH1 0x1 DUP2 EQ PUSH2 0xE9A JUMPI PUSH0 DUP5 ISZERO PUSH2 0xE88 JUMPI DUP3 DUP8 ADD MLOAD SWAP1 POP JUMPDEST PUSH2 0xE92 DUP6 DUP3 PUSH2 0xE17 JUMP JUMPDEST DUP7 SSTORE POP PUSH2 0xEF9 JUMP JUMPDEST PUSH1 0x1F NOT DUP5 AND PUSH2 0xEA8 DUP7 PUSH2 0xC95 JUMP JUMPDEST PUSH0 JUMPDEST DUP3 DUP2 LT ISZERO PUSH2 0xECF JUMPI DUP5 DUP10 ADD MLOAD DUP3 SSTORE PUSH1 0x1 DUP3 ADD SWAP2 POP PUSH1 0x20 DUP6 ADD SWAP5 POP PUSH1 0x20 DUP2 ADD SWAP1 POP PUSH2 0xEAA JUMP JUMPDEST DUP7 DUP4 LT ISZERO PUSH2 0xEEC JUMPI DUP5 DUP10 ADD MLOAD PUSH2 0xEE8 PUSH1 0x1F DUP10 AND DUP3 PUSH2 0xDFB JUMP JUMPDEST DUP4 SSTORE POP JUMPDEST PUSH1 0x1 PUSH1 0x2 DUP9 MUL ADD DUP9 SSTORE POP POP POP JUMPDEST POP POP POP POP POP POP JUMP JUMPDEST PUSH32 0x537461727420696E646578206F7574206F6620626F756E647300000000000000 PUSH0 DUP3 ADD MSTORE POP JUMP JUMPDEST PUSH0 PUSH2 0xF35 PUSH1 0x19 DUP4 PUSH2 0x7B0 JUMP JUMPDEST SWAP2 POP PUSH2 0xF40 DUP3 PUSH2 0xF01 JUMP JUMPDEST PUSH1 0x20 DUP3 ADD SWAP1 POP SWAP2 SWAP1 POP JUMP JUMPDEST PUSH0 PUSH1 0x20 DUP3 ADD SWAP1 POP DUP2 DUP2 SUB PUSH0 DUP4 ADD MSTORE PUSH2 0xF62 DUP2 PUSH2 0xF29 JUMP JUMPDEST SWAP1 POP SWAP2 SWAP1 POP JUMP JUMPDEST PUSH32 0x496E76616C69642072616E676500000000000000000000000000000000000000 PUSH0 DUP3 ADD MSTORE POP JUMP JUMPDEST PUSH0 PUSH2 0xF9D PUSH1 0xD DUP4 PUSH2 0x7B0 JUMP JUMPDEST SWAP2 POP PUSH2 0xFA8 DUP3 PUSH2 0xF69 JUMP JUMPDEST PUSH1 0x20 DUP3 ADD SWAP1 POP SWAP2 SWAP1 POP JUMP JUMPDEST PUSH0 PUSH1 0x20 DUP3 ADD SWAP1 POP DUP2 DUP2 SUB PUSH0 DUP4 ADD MSTORE PUSH2 0xFCA DUP2 PUSH2 0xF91 JUMP JUMPDEST SWAP1 POP SWAP2 SWAP1 POP JUMP JUMPDEST PUSH32 0x4E487B7100000000000000000000000000000000000000000000000000000000 PUSH0 MSTORE PUSH1 0x11 PUSH1 0x4 MSTORE PUSH1 0x24 PUSH0 REVERT JUMPDEST PUSH0 PUSH2 0x1008 DUP3 PUSH2 0x709 JUMP JUMPDEST SWAP2 POP PUSH2 0x1013 DUP4 PUSH2 0x709 JUMP JUMPDEST SWAP3 POP DUP3 DUP3 SUB SWAP1 POP DUP2 DUP2 GT ISZERO PUSH2 0x102B JUMPI PUSH2 0x102A PUSH2 0xFD1 JUMP JUMPDEST JUMPDEST SWAP3 SWAP2 POP POP JUMP JUMPDEST PUSH32 0x4E487B7100000000000000000000000000000000000000000000000000000000 PUSH0 MSTORE PUSH1 0x32 PUSH1 0x4 MSTORE PUSH1 0x24 PUSH0 REVERT INVALID LOG2 PUSH5 0x6970667358 0x22 SLT KECCAK256 SHR PUSH28 0xAEDB4B0891B21ECDADA8109083A0CF4985B98BDC5B85036252A84D92 MSTORE8 0x2B PUSH5 0x736F6C6343 STOP ADDMOD NOT STOP CALLER "
				},
				"gasEstimates": {
					"creation": {
						"codeDepositCost": "848800",
						"executionCost": "881",
						"totalCost": "849681"
					},
					"external": {
						"lastReadIndex(address)": "2802",
						"messages(uint256)": "infinite",
						"readMessages(uint256)": "infinite",
						"unreadMessages()": "infinite",
						"writeMessage(string)": "infinite"
					},
					"internal": {
						"getMessagesInRange(uint256,uint256)": "infinite"
					}
				},
				"methodIdentifiers": {
					"lastReadIndex(address)": "2a98e1f1",
					"messages(uint256)": "0d80fefd",
					"readMessages(uint256)": "fff3c457",
					"unreadMessages()": "4847e35a",
					"writeMessage(string)": "b588bfad"
				}
			},
			"storageLayout": {
				"storage": [
					{
						"astId": 13,
						"contract": "contracts/1_Tokio2_Twitter.sol:DecentralizedMessaging",
						"label": "messages",
						"offset": 0,
						"slot": "0",
						"type": "t_array(t_struct(TweetMessage)9_storage)dyn_storage"
					},
					{
						"astId": 17,
						"contract": "contracts/1_Tokio2_Twitter.sol:DecentralizedMessaging",
						"label": "lastReadIndex",
						"offset": 0,
						"slot": "1",
						"type": "t_mapping(t_address,t_uint256)"
					}
				],
				"types": {
					"t_address": {
						"encoding": "inplace",
						"label": "address",
						"numberOfBytes": "20"
					},
					"t_array(t_struct(TweetMessage)9_storage)dyn_storage": {
						"base": "t_struct(TweetMessage)9_storage",
						"encoding": "dynamic_array",
						"label": "struct DecentralizedMessaging.TweetMessage[]",
						"numberOfBytes": "32"
					},
					"t_mapping(t_address,t_uint256)": {
						"encoding": "mapping",
						"key": "t_address",
						"label": "mapping(address => uint256)",
						"numberOfBytes": "32",
						"value": "t_uint256"
					},
					"t_string_storage": {
						"encoding": "bytes",
						"label": "string",
						"numberOfBytes": "32"
					},
					"t_struct(TweetMessage)9_storage": {
						"encoding": "inplace",
						"label": "struct DecentralizedMessaging.TweetMessage",
						"members": [
							{
								"astId": 4,
								"contract": "contracts/1_Tokio2_Twitter.sol:DecentralizedMessaging",
								"label": "sender",
								"offset": 0,
								"slot": "0",
								"type": "t_address"
							},
							{
								"astId": 6,
								"contract": "contracts/1_Tokio2_Twitter.sol:DecentralizedMessaging",
								"label": "content",
								"offset": 0,
								"slot": "1",
								"type": "t_string_storage"
							},
							{
								"astId": 8,
								"contract": "contracts/1_Tokio2_Twitter.sol:DecentralizedMessaging",
								"label": "timestamp",
								"offset": 0,
								"slot": "2",
								"type": "t_uint256"
							}
						],
						"numberOfBytes": "96"
					},
					"t_uint256": {
						"encoding": "inplace",
						"label": "uint256",
						"numberOfBytes": "32"
					}
				}
			},
			"userdoc": {
				"kind": "user",
				"methods": {},
				"version": 1
			}
		}
	}
}