{
	"data": {
		"bytecode": {
			"linkReferences": {},
			"object": "6080604052348015600e575f80fd5b506110a18061001c5f395ff3fe608060405234801561000f575f80fd5b5060043610610060575f3560e01c806344802702146100645780637cd7fe02146100825780639236f609146100b2578063c3ad5ecb146100d0578063de440e0e14610100578063e8d857b01461011c575b5f80fd5b61006c61014e565b604051610079919061067b565b60405180910390f35b61009c600480360381019061009791906106ff565b610154565b6040516100a9919061067b565b60405180910390f35b6100ba610169565b6040516100c7919061067b565b60405180910390f35b6100ea60048036038101906100e59190610754565b6101ad565b6040516100f7919061090d565b60405180910390f35b61011a60048036038101906101159190610a59565b6103f0565b005b61013660048036038101906101319190610754565b610512565b60405161014593929190610b17565b60405180910390f35b60015481565b6002602052805f5260405f205f915090505481565b5f60025f3373ffffffffffffffffffffffffffffffffffffffff1673ffffffffffffffffffffffffffffffffffffffff1681526020019081526020015f2054905090565b60606001548211156101f4576040517f08c379a00000000000000000000000000000000000000000000000000000000081526004016101eb90610ba4565b60405180910390fd5b5f826001546102039190610bef565b90505f8167ffffffffffffffff8111156102205761021f610935565b5b60405190808252806020026020018201604052801561025957816020015b610246610643565b81526020019060019003908161023e5790505b5090505f8490505b6001548110156103e5575f808281526020019081526020015f206040518060600160405290815f8201805461029590610c4f565b80601f01602080910402602001604051908101604052809291908181526020018280546102c190610c4f565b801561030c5780601f106102e35761010080835404028352916020019161030c565b820191905f5260205f20905b8154815290600101906020018083116102ef57829003601f168201915b5050505050815260200160018201805461032590610c4f565b80601f016020809104026020016040519081016040528092919081815260200182805461035190610c4f565b801561039c5780601f106103735761010080835404028352916020019161039c565b820191905f5260205f20905b81548152906001019060200180831161037f57829003601f168201915b505050505081526020016002820154815250508286836103bc9190610bef565b815181106103cd576103cc610c7f565b5b60200260200101819052508080600101915050610261565b508092505050919050565b61012c82511115610436576040517f08c379a000000000000000000000000000000000000000000000000000000000815260040161042d90610d1c565b60405180910390fd5b6040518060600160405280828152602001838152602001428152505f8060015481526020019081526020015f205f820151815f0190816104769190610ed7565b50602082015181600101908161048c9190610ed7565b506040820151816002015590505060015f8154809291906104ac90610fa6565b9190505550600180546104bf9190610bef565b816040516104cd9190611027565b60405180910390207f0b923ac5baea2ef8e9b7e5d6ae6207859262f6c15b4f1953c822f224792eed85844260405161050692919061103d565b60405180910390a35050565b5f602052805f5260405f205f91509050805f01805461053090610c4f565b80601f016020809104026020016040519081016040528092919081815260200182805461055c90610c4f565b80156105a75780601f1061057e576101008083540402835291602001916105a7565b820191905f5260205f20905b81548152906001019060200180831161058a57829003601f168201915b5050505050908060010180546105bc90610c4f565b80601f01602080910402602001604051908101604052809291908181526020018280546105e890610c4f565b80156106335780601f1061060a57610100808354040283529160200191610633565b820191905f5260205f20905b81548152906001019060200180831161061657829003601f168201915b5050505050908060020154905083565b604051806060016040528060608152602001606081526020015f81525090565b5f819050919050565b61067581610663565b82525050565b5f60208201905061068e5f83018461066c565b92915050565b5f604051905090565b5f80fd5b5f80fd5b5f73ffffffffffffffffffffffffffffffffffffffff82169050919050565b5f6106ce826106a5565b9050919050565b6106de816106c4565b81146106e8575f80fd5b50565b5f813590506106f9816106d5565b92915050565b5f602082840312156107145761071361069d565b5b5f610721848285016106eb565b91505092915050565b61073381610663565b811461073d575f80fd5b50565b5f8135905061074e8161072a565b92915050565b5f602082840312156107695761076861069d565b5b5f61077684828501610740565b91505092915050565b5f81519050919050565b5f82825260208201905092915050565b5f819050602082019050919050565b5f81519050919050565b5f82825260208201905092915050565b8281835e5f83830152505050565b5f601f19601f8301169050919050565b5f6107ea826107a8565b6107f481856107b2565b93506108048185602086016107c2565b61080d816107d0565b840191505092915050565b61082181610663565b82525050565b5f606083015f8301518482035f86015261084182826107e0565b9150506020830151848203602086015261085b82826107e0565b91505060408301516108706040860182610818565b508091505092915050565b5f6108868383610827565b905092915050565b5f602082019050919050565b5f6108a48261077f565b6108ae8185610789565b9350836020820285016108c085610799565b805f5b858110156108fb57848403895281516108dc858261087b565b94506108e78361088e565b925060208a019950506001810190506108c3565b50829750879550505050505092915050565b5f6020820190508181035f830152610925818461089a565b905092915050565b5f80fd5b5f80fd5b7f4e487b71000000000000000000000000000000000000000000000000000000005f52604160045260245ffd5b61096b826107d0565b810181811067ffffffffffffffff8211171561098a57610989610935565b5b80604052505050565b5f61099c610694565b90506109a88282610962565b919050565b5f67ffffffffffffffff8211156109c7576109c6610935565b5b6109d0826107d0565b9050602081019050919050565b828183375f83830152505050565b5f6109fd6109f8846109ad565b610993565b905082815260208101848484011115610a1957610a18610931565b5b610a248482856109dd565b509392505050565b5f82601f830112610a4057610a3f61092d565b5b8135610a508482602086016109eb565b91505092915050565b5f8060408385031215610a6f57610a6e61069d565b5b5f83013567ffffffffffffffff811115610a8c57610a8b6106a1565b5b610a9885828601610a2c565b925050602083013567ffffffffffffffff811115610ab957610ab86106a1565b5b610ac585828601610a2c565b9150509250929050565b5f82825260208201905092915050565b5f610ae9826107a8565b610af38185610acf565b9350610b038185602086016107c2565b610b0c816107d0565b840191505092915050565b5f6060820190508181035f830152610b2f8186610adf565b90508181036020830152610b438185610adf565b9050610b52604083018461066c565b949350505050565b7f496e6469636520646520696e6963696f2066756572612064652072616e676f005f82015250565b5f610b8e601f83610acf565b9150610b9982610b5a565b602082019050919050565b5f6020820190508181035f830152610bbb81610b82565b9050919050565b7f4e487b71000000000000000000000000000000000000000000000000000000005f52601160045260245ffd5b5f610bf982610663565b9150610c0483610663565b9250828203905081811115610c1c57610c1b610bc2565b5b92915050565b7f4e487b71000000000000000000000000000000000000000000000000000000005f52602260045260245ffd5b5f6002820490506001821680610c6657607f821691505b602082108103610c7957610c78610c22565b5b50919050565b7f4e487b71000000000000000000000000000000000000000000000000000000005f52603260045260245ffd5b7f456c206d656e73616a6520737570657261206c61206c6f6e6769747564206d615f8201527f78696d61207065726d6974696461000000000000000000000000000000000000602082015250565b5f610d06602e83610acf565b9150610d1182610cac565b604082019050919050565b5f6020820190508181035f830152610d3381610cfa565b9050919050565b5f819050815f5260205f209050919050565b5f6020601f8301049050919050565b5f82821b905092915050565b5f60088302610d967fffffffffffffffffffffffffffffffffffffffffffffffffffffffffffffffff82610d5b565b610da08683610d5b565b95508019841693508086168417925050509392505050565b5f819050919050565b5f610ddb610dd6610dd184610663565b610db8565b610663565b9050919050565b5f819050919050565b610df483610dc1565b610e08610e0082610de2565b848454610d67565b825550505050565b5f90565b610e1c610e10565b610e27818484610deb565b505050565b5b81811015610e4a57610e3f5f82610e14565b600181019050610e2d565b5050565b601f821115610e8f57610e6081610d3a565b610e6984610d4c565b81016020851015610e78578190505b610e8c610e8485610d4c565b830182610e2c565b50505b505050565b5f82821c905092915050565b5f610eaf5f1984600802610e94565b1980831691505092915050565b5f610ec78383610ea0565b9150826002028217905092915050565b610ee0826107a8565b67ffffffffffffffff811115610ef957610ef8610935565b5b610f038254610c4f565b610f0e828285610e4e565b5f60209050601f831160018114610f3f575f8415610f2d578287015190505b610f378582610ebc565b865550610f9e565b601f198416610f4d86610d3a565b5f5b82811015610f7457848901518255600182019150602085019450602081019050610f4f565b86831015610f915784890151610f8d601f891682610ea0565b8355505b6001600288020188555050505b505050505050565b5f610fb082610663565b91507fffffffffffffffffffffffffffffffffffffffffffffffffffffffffffffffff8203610fe257610fe1610bc2565b5b600182019050919050565b5f81905092915050565b5f611001826107a8565b61100b8185610fed565b935061101b8185602086016107c2565b80840191505092915050565b5f6110328284610ff7565b915081905092915050565b5f6040820190508181035f8301526110558185610adf565b9050611064602083018461066c565b939250505056fea2646970667358221220de70789ff7e866805f2c43d80b49a1466a7a7f150cdc4a372dfe4ede64cbb0c364736f6c63430008190033",
			"opcodes": "PUSH1 0x80 PUSH1 0x40 MSTORE CALLVALUE DUP1 ISZERO PUSH1 0xE JUMPI PUSH0 DUP1 REVERT JUMPDEST POP PUSH2 0x10A1 DUP1 PUSH2 0x1C PUSH0 CODECOPY PUSH0 RETURN INVALID PUSH1 0x80 PUSH1 0x40 MSTORE CALLVALUE DUP1 ISZERO PUSH2 0xF JUMPI PUSH0 DUP1 REVERT JUMPDEST POP PUSH1 0x4 CALLDATASIZE LT PUSH2 0x60 JUMPI PUSH0 CALLDATALOAD PUSH1 0xE0 SHR DUP1 PUSH4 0x44802702 EQ PUSH2 0x64 JUMPI DUP1 PUSH4 0x7CD7FE02 EQ PUSH2 0x82 JUMPI DUP1 PUSH4 0x9236F609 EQ PUSH2 0xB2 JUMPI DUP1 PUSH4 0xC3AD5ECB EQ PUSH2 0xD0 JUMPI DUP1 PUSH4 0xDE440E0E EQ PUSH2 0x100 JUMPI DUP1 PUSH4 0xE8D857B0 EQ PUSH2 0x11C JUMPI JUMPDEST PUSH0 DUP1 REVERT JUMPDEST PUSH2 0x6C PUSH2 0x14E JUMP JUMPDEST PUSH1 0x40 MLOAD PUSH2 0x79 SWAP2 SWAP1 PUSH2 0x67B JUMP JUMPDEST PUSH1 0x40 MLOAD DUP1 SWAP2 SUB SWAP1 RETURN JUMPDEST PUSH2 0x9C PUSH1 0x4 DUP1 CALLDATASIZE SUB DUP2 ADD SWAP1 PUSH2 0x97 SWAP2 SWAP1 PUSH2 0x6FF JUMP JUMPDEST PUSH2 0x154 JUMP JUMPDEST PUSH1 0x40 MLOAD PUSH2 0xA9 SWAP2 SWAP1 PUSH2 0x67B JUMP JUMPDEST PUSH1 0x40 MLOAD DUP1 SWAP2 SUB SWAP1 RETURN JUMPDEST PUSH2 0xBA PUSH2 0x169 JUMP JUMPDEST PUSH1 0x40 MLOAD PUSH2 0xC7 SWAP2 SWAP1 PUSH2 0x67B JUMP JUMPDEST PUSH1 0x40 MLOAD DUP1 SWAP2 SUB SWAP1 RETURN JUMPDEST PUSH2 0xEA PUSH1 0x4 DUP1 CALLDATASIZE SUB DUP2 ADD SWAP1 PUSH2 0xE5 SWAP2 SWAP1 PUSH2 0x754 JUMP JUMPDEST PUSH2 0x1AD JUMP JUMPDEST PUSH1 0x40 MLOAD PUSH2 0xF7 SWAP2 SWAP1 PUSH2 0x90D JUMP JUMPDEST PUSH1 0x40 MLOAD DUP1 SWAP2 SUB SWAP1 RETURN JUMPDEST PUSH2 0x11A PUSH1 0x4 DUP1 CALLDATASIZE SUB DUP2 ADD SWAP1 PUSH2 0x115 SWAP2 SWAP1 PUSH2 0xA59 JUMP JUMPDEST PUSH2 0x3F0 JUMP JUMPDEST STOP JUMPDEST PUSH2 0x136 PUSH1 0x4 DUP1 CALLDATASIZE SUB DUP2 ADD SWAP1 PUSH2 0x131 SWAP2 SWAP1 PUSH2 0x754 JUMP JUMPDEST PUSH2 0x512 JUMP JUMPDEST PUSH1 0x40 MLOAD PUSH2 0x145 SWAP4 SWAP3 SWAP2 SWAP1 PUSH2 0xB17 JUMP JUMPDEST PUSH1 0x40 MLOAD DUP1 SWAP2 SUB SWAP1 RETURN JUMPDEST PUSH1 0x1 SLOAD DUP2 JUMP JUMPDEST PUSH1 0x2 PUSH1 0x20 MSTORE DUP1 PUSH0 MSTORE PUSH1 0x40 PUSH0 KECCAK256 PUSH0 SWAP2 POP SWAP1 POP SLOAD DUP2 JUMP JUMPDEST PUSH0 PUSH1 0x2 PUSH0 CALLER PUSH20 0xFFFFFFFFFFFFFFFFFFFFFFFFFFFFFFFFFFFFFFFF AND PUSH20 0xFFFFFFFFFFFFFFFFFFFFFFFFFFFFFFFFFFFFFFFF AND DUP2 MSTORE PUSH1 0x20 ADD SWAP1 DUP2 MSTORE PUSH1 0x20 ADD PUSH0 KECCAK256 SLOAD SWAP1 POP SWAP1 JUMP JUMPDEST PUSH1 0x60 PUSH1 0x1 SLOAD DUP3 GT ISZERO PUSH2 0x1F4 JUMPI PUSH1 0x40 MLOAD PUSH32 0x8C379A000000000000000000000000000000000000000000000000000000000 DUP2 MSTORE PUSH1 0x4 ADD PUSH2 0x1EB SWAP1 PUSH2 0xBA4 JUMP JUMPDEST PUSH1 0x40 MLOAD DUP1 SWAP2 SUB SWAP1 REVERT JUMPDEST PUSH0 DUP3 PUSH1 0x1 SLOAD PUSH2 0x203 SWAP2 SWAP1 PUSH2 0xBEF JUMP JUMPDEST SWAP1 POP PUSH0 DUP2 PUSH8 0xFFFFFFFFFFFFFFFF DUP2 GT ISZERO PUSH2 0x220 JUMPI PUSH2 0x21F PUSH2 0x935 JUMP JUMPDEST JUMPDEST PUSH1 0x40 MLOAD SWAP1 DUP1 DUP3 MSTORE DUP1 PUSH1 0x20 MUL PUSH1 0x20 ADD DUP3 ADD PUSH1 0x40 MSTORE DUP1 ISZERO PUSH2 0x259 JUMPI DUP2 PUSH1 0x20 ADD JUMPDEST PUSH2 0x246 PUSH2 0x643 JUMP JUMPDEST DUP2 MSTORE PUSH1 0x20 ADD SWAP1 PUSH1 0x1 SWAP1 SUB SWAP1 DUP2 PUSH2 0x23E JUMPI SWAP1 POP JUMPDEST POP SWAP1 POP PUSH0 DUP5 SWAP1 POP JUMPDEST PUSH1 0x1 SLOAD DUP2 LT ISZERO PUSH2 0x3E5 JUMPI PUSH0 DUP1 DUP3 DUP2 MSTORE PUSH1 0x20 ADD SWAP1 DUP2 MSTORE PUSH1 0x20 ADD PUSH0 KECCAK256 PUSH1 0x40 MLOAD DUP1 PUSH1 0x60 ADD PUSH1 0x40 MSTORE SWAP1 DUP2 PUSH0 DUP3 ADD DUP1 SLOAD PUSH2 0x295 SWAP1 PUSH2 0xC4F JUMP JUMPDEST DUP1 PUSH1 0x1F ADD PUSH1 0x20 DUP1 SWAP2 DIV MUL PUSH1 0x20 ADD PUSH1 0x40 MLOAD SWAP1 DUP2 ADD PUSH1 0x40 MSTORE DUP1 SWAP3 SWAP2 SWAP1 DUP2 DUP2 MSTORE PUSH1 0x20 ADD DUP3 DUP1 SLOAD PUSH2 0x2C1 SWAP1 PUSH2 0xC4F JUMP JUMPDEST DUP1 ISZERO PUSH2 0x30C JUMPI DUP1 PUSH1 0x1F LT PUSH2 0x2E3 JUMPI PUSH2 0x100 DUP1 DUP4 SLOAD DIV MUL DUP4 MSTORE SWAP2 PUSH1 0x20 ADD SWAP2 PUSH2 0x30C JUMP JUMPDEST DUP3 ADD SWAP2 SWAP1 PUSH0 MSTORE PUSH1 0x20 PUSH0 KECCAK256 SWAP1 JUMPDEST DUP2 SLOAD DUP2 MSTORE SWAP1 PUSH1 0x1 ADD SWAP1 PUSH1 0x20 ADD DUP1 DUP4 GT PUSH2 0x2EF JUMPI DUP3 SWAP1 SUB PUSH1 0x1F AND DUP3 ADD SWAP2 JUMPDEST POP POP POP POP POP DUP2 MSTORE PUSH1 0x20 ADD PUSH1 0x1 DUP3 ADD DUP1 SLOAD PUSH2 0x325 SWAP1 PUSH2 0xC4F JUMP JUMPDEST DUP1 PUSH1 0x1F ADD PUSH1 0x20 DUP1 SWAP2 DIV MUL PUSH1 0x20 ADD PUSH1 0x40 MLOAD SWAP1 DUP2 ADD PUSH1 0x40 MSTORE DUP1 SWAP3 SWAP2 SWAP1 DUP2 DUP2 MSTORE PUSH1 0x20 ADD DUP3 DUP1 SLOAD PUSH2 0x351 SWAP1 PUSH2 0xC4F JUMP JUMPDEST DUP1 ISZERO PUSH2 0x39C JUMPI DUP1 PUSH1 0x1F LT PUSH2 0x373 JUMPI PUSH2 0x100 DUP1 DUP4 SLOAD DIV MUL DUP4 MSTORE SWAP2 PUSH1 0x20 ADD SWAP2 PUSH2 0x39C JUMP JUMPDEST DUP3 ADD SWAP2 SWAP1 PUSH0 MSTORE PUSH1 0x20 PUSH0 KECCAK256 SWAP1 JUMPDEST DUP2 SLOAD DUP2 MSTORE SWAP1 PUSH1 0x1 ADD SWAP1 PUSH1 0x20 ADD DUP1 DUP4 GT PUSH2 0x37F JUMPI DUP3 SWAP1 SUB PUSH1 0x1F AND DUP3 ADD SWAP2 JUMPDEST POP POP POP POP POP DUP2 MSTORE PUSH1 0x20 ADD PUSH1 0x2 DUP3 ADD SLOAD DUP2 MSTORE POP POP DUP3 DUP7 DUP4 PUSH2 0x3BC SWAP2 SWAP1 PUSH2 0xBEF JUMP JUMPDEST DUP2 MLOAD DUP2 LT PUSH2 0x3CD JUMPI PUSH2 0x3CC PUSH2 0xC7F JUMP JUMPDEST JUMPDEST PUSH1 0x20 MUL PUSH1 0x20 ADD ADD DUP2 SWAP1 MSTORE POP DUP1 DUP1 PUSH1 0x1 ADD SWAP2 POP POP PUSH2 0x261 JUMP JUMPDEST POP DUP1 SWAP3 POP POP POP SWAP2 SWAP1 POP JUMP JUMPDEST PUSH2 0x12C DUP3 MLOAD GT ISZERO PUSH2 0x436 JUMPI PUSH1 0x40 MLOAD PUSH32 0x8C379A000000000000000000000000000000000000000000000000000000000 DUP2 MSTORE PUSH1 0x4 ADD PUSH2 0x42D SWAP1 PUSH2 0xD1C JUMP JUMPDEST PUSH1 0x40 MLOAD DUP1 SWAP2 SUB SWAP1 REVERT JUMPDEST PUSH1 0x40 MLOAD DUP1 PUSH1 0x60 ADD PUSH1 0x40 MSTORE DUP1 DUP3 DUP2 MSTORE PUSH1 0x20 ADD DUP4 DUP2 MSTORE PUSH1 0x20 ADD TIMESTAMP DUP2 MSTORE POP PUSH0 DUP1 PUSH1 0x1 SLOAD DUP2 MSTORE PUSH1 0x20 ADD SWAP1 DUP2 MSTORE PUSH1 0x20 ADD PUSH0 KECCAK256 PUSH0 DUP3 ADD MLOAD DUP2 PUSH0 ADD SWAP1 DUP2 PUSH2 0x476 SWAP2 SWAP1 PUSH2 0xED7 JUMP JUMPDEST POP PUSH1 0x20 DUP3 ADD MLOAD DUP2 PUSH1 0x1 ADD SWAP1 DUP2 PUSH2 0x48C SWAP2 SWAP1 PUSH2 0xED7 JUMP JUMPDEST POP PUSH1 0x40 DUP3 ADD MLOAD DUP2 PUSH1 0x2 ADD SSTORE SWAP1 POP POP PUSH1 0x1 PUSH0 DUP2 SLOAD DUP1 SWAP3 SWAP2 SWAP1 PUSH2 0x4AC SWAP1 PUSH2 0xFA6 JUMP JUMPDEST SWAP2 SWAP1 POP SSTORE POP PUSH1 0x1 DUP1 SLOAD PUSH2 0x4BF SWAP2 SWAP1 PUSH2 0xBEF JUMP JUMPDEST DUP2 PUSH1 0x40 MLOAD PUSH2 0x4CD SWAP2 SWAP1 PUSH2 0x1027 JUMP JUMPDEST PUSH1 0x40 MLOAD DUP1 SWAP2 SUB SWAP1 KECCAK256 PUSH32 0xB923AC5BAEA2EF8E9B7E5D6AE6207859262F6C15B4F1953C822F224792EED85 DUP5 TIMESTAMP PUSH1 0x40 MLOAD PUSH2 0x506 SWAP3 SWAP2 SWAP1 PUSH2 0x103D JUMP JUMPDEST PUSH1 0x40 MLOAD DUP1 SWAP2 SUB SWAP1 LOG3 POP POP JUMP JUMPDEST PUSH0 PUSH1 0x20 MSTORE DUP1 PUSH0 MSTORE PUSH1 0x40 PUSH0 KECCAK256 PUSH0 SWAP2 POP SWAP1 POP DUP1 PUSH0 ADD DUP1 SLOAD PUSH2 0x530 SWAP1 PUSH2 0xC4F JUMP JUMPDEST DUP1 PUSH1 0x1F ADD PUSH1 0x20 DUP1 SWAP2 DIV MUL PUSH1 0x20 ADD PUSH1 0x40 MLOAD SWAP1 DUP2 ADD PUSH1 0x40 MSTORE DUP1 SWAP3 SWAP2 SWAP1 DUP2 DUP2 MSTORE PUSH1 0x20 ADD DUP3 DUP1 SLOAD PUSH2 0x55C SWAP1 PUSH2 0xC4F JUMP JUMPDEST DUP1 ISZERO PUSH2 0x5A7 JUMPI DUP1 PUSH1 0x1F LT PUSH2 0x57E JUMPI PUSH2 0x100 DUP1 DUP4 SLOAD DIV MUL DUP4 MSTORE SWAP2 PUSH1 0x20 ADD SWAP2 PUSH2 0x5A7 JUMP JUMPDEST DUP3 ADD SWAP2 SWAP1 PUSH0 MSTORE PUSH1 0x20 PUSH0 KECCAK256 SWAP1 JUMPDEST DUP2 SLOAD DUP2 MSTORE SWAP1 PUSH1 0x1 ADD SWAP1 PUSH1 0x20 ADD DUP1 DUP4 GT PUSH2 0x58A JUMPI DUP3 SWAP1 SUB PUSH1 0x1F AND DUP3 ADD SWAP2 JUMPDEST POP POP POP POP POP SWAP1 DUP1 PUSH1 0x1 ADD DUP1 SLOAD PUSH2 0x5BC SWAP1 PUSH2 0xC4F JUMP JUMPDEST DUP1 PUSH1 0x1F ADD PUSH1 0x20 DUP1 SWAP2 DIV MUL PUSH1 0x20 ADD PUSH1 0x40 MLOAD SWAP1 DUP2 ADD PUSH1 0x40 MSTORE DUP1 SWAP3 SWAP2 SWAP1 DUP2 DUP2 MSTORE PUSH1 0x20 ADD DUP3 DUP1 SLOAD PUSH2 0x5E8 SWAP1 PUSH2 0xC4F JUMP JUMPDEST DUP1 ISZERO PUSH2 0x633 JUMPI DUP1 PUSH1 0x1F LT PUSH2 0x60A JUMPI PUSH2 0x100 DUP1 DUP4 SLOAD DIV MUL DUP4 MSTORE SWAP2 PUSH1 0x20 ADD SWAP2 PUSH2 0x633 JUMP JUMPDEST DUP3 ADD SWAP2 SWAP1 PUSH0 MSTORE PUSH1 0x20 PUSH0 KECCAK256 SWAP1 JUMPDEST DUP2 SLOAD DUP2 MSTORE SWAP1 PUSH1 0x1 ADD SWAP1 PUSH1 0x20 ADD DUP1 DUP4 GT PUSH2 0x616 JUMPI DUP3 SWAP1 SUB PUSH1 0x1F AND DUP3 ADD SWAP2 JUMPDEST POP POP POP POP POP SWAP1 DUP1 PUSH1 0x2 ADD SLOAD SWAP1 POP DUP4 JUMP JUMPDEST PUSH1 0x40 MLOAD DUP1 PUSH1 0x60 ADD PUSH1 0x40 MSTORE DUP1 PUSH1 0x60 DUP2 MSTORE PUSH1 0x20 ADD PUSH1 0x60 DUP2 MSTORE PUSH1 0x20 ADD PUSH0 DUP2 MSTORE POP SWAP1 JUMP JUMPDEST PUSH0 DUP2 SWAP1 POP SWAP2 SWAP1 POP JUMP JUMPDEST PUSH2 0x675 DUP2 PUSH2 0x663 JUMP JUMPDEST DUP3 MSTORE POP POP JUMP JUMPDEST PUSH0 PUSH1 0x20 DUP3 ADD SWAP1 POP PUSH2 0x68E PUSH0 DUP4 ADD DUP5 PUSH2 0x66C JUMP JUMPDEST SWAP3 SWAP2 POP POP JUMP JUMPDEST PUSH0 PUSH1 0x40 MLOAD SWAP1 POP SWAP1 JUMP JUMPDEST PUSH0 DUP1 REVERT JUMPDEST PUSH0 DUP1 REVERT JUMPDEST PUSH0 PUSH20 0xFFFFFFFFFFFFFFFFFFFFFFFFFFFFFFFFFFFFFFFF DUP3 AND SWAP1 POP SWAP2 SWAP1 POP JUMP JUMPDEST PUSH0 PUSH2 0x6CE DUP3 PUSH2 0x6A5 JUMP JUMPDEST SWAP1 POP SWAP2 SWAP1 POP JUMP JUMPDEST PUSH2 0x6DE DUP2 PUSH2 0x6C4 JUMP JUMPDEST DUP2 EQ PUSH2 0x6E8 JUMPI PUSH0 DUP1 REVERT JUMPDEST POP JUMP JUMPDEST PUSH0 DUP2 CALLDATALOAD SWAP1 POP PUSH2 0x6F9 DUP2 PUSH2 0x6D5 JUMP JUMPDEST SWAP3 SWAP2 POP POP JUMP JUMPDEST PUSH0 PUSH1 0x20 DUP3 DUP5 SUB SLT ISZERO PUSH2 0x714 JUMPI PUSH2 0x713 PUSH2 0x69D JUMP JUMPDEST JUMPDEST PUSH0 PUSH2 0x721 DUP5 DUP3 DUP6 ADD PUSH2 0x6EB JUMP JUMPDEST SWAP2 POP POP SWAP3 SWAP2 POP POP JUMP JUMPDEST PUSH2 0x733 DUP2 PUSH2 0x663 JUMP JUMPDEST DUP2 EQ PUSH2 0x73D JUMPI PUSH0 DUP1 REVERT JUMPDEST POP JUMP JUMPDEST PUSH0 DUP2 CALLDATALOAD SWAP1 POP PUSH2 0x74E DUP2 PUSH2 0x72A JUMP JUMPDEST SWAP3 SWAP2 POP POP JUMP JUMPDEST PUSH0 PUSH1 0x20 DUP3 DUP5 SUB SLT ISZERO PUSH2 0x769 JUMPI PUSH2 0x768 PUSH2 0x69D JUMP JUMPDEST JUMPDEST PUSH0 PUSH2 0x776 DUP5 DUP3 DUP6 ADD PUSH2 0x740 JUMP JUMPDEST SWAP2 POP POP SWAP3 SWAP2 POP POP JUMP JUMPDEST PUSH0 DUP2 MLOAD SWAP1 POP SWAP2 SWAP1 POP JUMP JUMPDEST PUSH0 DUP3 DUP3 MSTORE PUSH1 0x20 DUP3 ADD SWAP1 POP SWAP3 SWAP2 POP POP JUMP JUMPDEST PUSH0 DUP2 SWAP1 POP PUSH1 0x20 DUP3 ADD SWAP1 POP SWAP2 SWAP1 POP JUMP JUMPDEST PUSH0 DUP2 MLOAD SWAP1 POP SWAP2 SWAP1 POP JUMP JUMPDEST PUSH0 DUP3 DUP3 MSTORE PUSH1 0x20 DUP3 ADD SWAP1 POP SWAP3 SWAP2 POP POP JUMP JUMPDEST DUP3 DUP2 DUP4 MCOPY PUSH0 DUP4 DUP4 ADD MSTORE POP POP POP JUMP JUMPDEST PUSH0 PUSH1 0x1F NOT PUSH1 0x1F DUP4 ADD AND SWAP1 POP SWAP2 SWAP1 POP JUMP JUMPDEST PUSH0 PUSH2 0x7EA DUP3 PUSH2 0x7A8 JUMP JUMPDEST PUSH2 0x7F4 DUP2 DUP6 PUSH2 0x7B2 JUMP JUMPDEST SWAP4 POP PUSH2 0x804 DUP2 DUP6 PUSH1 0x20 DUP7 ADD PUSH2 0x7C2 JUMP JUMPDEST PUSH2 0x80D DUP2 PUSH2 0x7D0 JUMP JUMPDEST DUP5 ADD SWAP2 POP POP SWAP3 SWAP2 POP POP JUMP JUMPDEST PUSH2 0x821 DUP2 PUSH2 0x663 JUMP JUMPDEST DUP3 MSTORE POP POP JUMP JUMPDEST PUSH0 PUSH1 0x60 DUP4 ADD PUSH0 DUP4 ADD MLOAD DUP5 DUP3 SUB PUSH0 DUP7 ADD MSTORE PUSH2 0x841 DUP3 DUP3 PUSH2 0x7E0 JUMP JUMPDEST SWAP2 POP POP PUSH1 0x20 DUP4 ADD MLOAD DUP5 DUP3 SUB PUSH1 0x20 DUP7 ADD MSTORE PUSH2 0x85B DUP3 DUP3 PUSH2 0x7E0 JUMP JUMPDEST SWAP2 POP POP PUSH1 0x40 DUP4 ADD MLOAD PUSH2 0x870 PUSH1 0x40 DUP7 ADD DUP3 PUSH2 0x818 JUMP JUMPDEST POP DUP1 SWAP2 POP POP SWAP3 SWAP2 POP POP JUMP JUMPDEST PUSH0 PUSH2 0x886 DUP4 DUP4 PUSH2 0x827 JUMP JUMPDEST SWAP1 POP SWAP3 SWAP2 POP POP JUMP JUMPDEST PUSH0 PUSH1 0x20 DUP3 ADD SWAP1 POP SWAP2 SWAP1 POP JUMP JUMPDEST PUSH0 PUSH2 0x8A4 DUP3 PUSH2 0x77F JUMP JUMPDEST PUSH2 0x8AE DUP2 DUP6 PUSH2 0x789 JUMP JUMPDEST SWAP4 POP DUP4 PUSH1 0x20 DUP3 MUL DUP6 ADD PUSH2 0x8C0 DUP6 PUSH2 0x799 JUMP JUMPDEST DUP1 PUSH0 JUMPDEST DUP6 DUP2 LT ISZERO PUSH2 0x8FB JUMPI DUP5 DUP5 SUB DUP10 MSTORE DUP2 MLOAD PUSH2 0x8DC DUP6 DUP3 PUSH2 0x87B JUMP JUMPDEST SWAP5 POP PUSH2 0x8E7 DUP4 PUSH2 0x88E JUMP JUMPDEST SWAP3 POP PUSH1 0x20 DUP11 ADD SWAP10 POP POP PUSH1 0x1 DUP2 ADD SWAP1 POP PUSH2 0x8C3 JUMP JUMPDEST POP DUP3 SWAP8 POP DUP8 SWAP6 POP POP POP POP POP POP SWAP3 SWAP2 POP POP JUMP JUMPDEST PUSH0 PUSH1 0x20 DUP3 ADD SWAP1 POP DUP2 DUP2 SUB PUSH0 DUP4 ADD MSTORE PUSH2 0x925 DUP2 DUP5 PUSH2 0x89A JUMP JUMPDEST SWAP1 POP SWAP3 SWAP2 POP POP JUMP JUMPDEST PUSH0 DUP1 REVERT JUMPDEST PUSH0 DUP1 REVERT JUMPDEST PUSH32 0x4E487B7100000000000000000000000000000000000000000000000000000000 PUSH0 MSTORE PUSH1 0x41 PUSH1 0x4 MSTORE PUSH1 0x24 PUSH0 REVERT JUMPDEST PUSH2 0x96B DUP3 PUSH2 0x7D0 JUMP JUMPDEST DUP2 ADD DUP2 DUP2 LT PUSH8 0xFFFFFFFFFFFFFFFF DUP3 GT OR ISZERO PUSH2 0x98A JUMPI PUSH2 0x989 PUSH2 0x935 JUMP JUMPDEST JUMPDEST DUP1 PUSH1 0x40 MSTORE POP POP POP JUMP JUMPDEST PUSH0 PUSH2 0x99C PUSH2 0x694 JUMP JUMPDEST SWAP1 POP PUSH2 0x9A8 DUP3 DUP3 PUSH2 0x962 JUMP JUMPDEST SWAP2 SWAP1 POP JUMP JUMPDEST PUSH0 PUSH8 0xFFFFFFFFFFFFFFFF DUP3 GT ISZERO PUSH2 0x9C7 JUMPI PUSH2 0x9C6 PUSH2 0x935 JUMP JUMPDEST JUMPDEST PUSH2 0x9D0 DUP3 PUSH2 0x7D0 JUMP JUMPDEST SWAP1 POP PUSH1 0x20 DUP2 ADD SWAP1 POP SWAP2 SWAP1 POP JUMP JUMPDEST DUP3 DUP2 DUP4 CALLDATACOPY PUSH0 DUP4 DUP4 ADD MSTORE POP POP POP JUMP JUMPDEST PUSH0 PUSH2 0x9FD PUSH2 0x9F8 DUP5 PUSH2 0x9AD JUMP JUMPDEST PUSH2 0x993 JUMP JUMPDEST SWAP1 POP DUP3 DUP2 MSTORE PUSH1 0x20 DUP2 ADD DUP5 DUP5 DUP5 ADD GT ISZERO PUSH2 0xA19 JUMPI PUSH2 0xA18 PUSH2 0x931 JUMP JUMPDEST JUMPDEST PUSH2 0xA24 DUP5 DUP3 DUP6 PUSH2 0x9DD JUMP JUMPDEST POP SWAP4 SWAP3 POP POP POP JUMP JUMPDEST PUSH0 DUP3 PUSH1 0x1F DUP4 ADD SLT PUSH2 0xA40 JUMPI PUSH2 0xA3F PUSH2 0x92D JUMP JUMPDEST JUMPDEST DUP2 CALLDATALOAD PUSH2 0xA50 DUP5 DUP3 PUSH1 0x20 DUP7 ADD PUSH2 0x9EB JUMP JUMPDEST SWAP2 POP POP SWAP3 SWAP2 POP POP JUMP JUMPDEST PUSH0 DUP1 PUSH1 0x40 DUP4 DUP6 SUB SLT ISZERO PUSH2 0xA6F JUMPI PUSH2 0xA6E PUSH2 0x69D JUMP JUMPDEST JUMPDEST PUSH0 DUP4 ADD CALLDATALOAD PUSH8 0xFFFFFFFFFFFFFFFF DUP2 GT ISZERO PUSH2 0xA8C JUMPI PUSH2 0xA8B PUSH2 0x6A1 JUMP JUMPDEST JUMPDEST PUSH2 0xA98 DUP6 DUP3 DUP7 ADD PUSH2 0xA2C JUMP JUMPDEST SWAP3 POP POP PUSH1 0x20 DUP4 ADD CALLDATALOAD PUSH8 0xFFFFFFFFFFFFFFFF DUP2 GT ISZERO PUSH2 0xAB9 JUMPI PUSH2 0xAB8 PUSH2 0x6A1 JUMP JUMPDEST JUMPDEST PUSH2 0xAC5 DUP6 DUP3 DUP7 ADD PUSH2 0xA2C JUMP JUMPDEST SWAP2 POP POP SWAP3 POP SWAP3 SWAP1 POP JUMP JUMPDEST PUSH0 DUP3 DUP3 MSTORE PUSH1 0x20 DUP3 ADD SWAP1 POP SWAP3 SWAP2 POP POP JUMP JUMPDEST PUSH0 PUSH2 0xAE9 DUP3 PUSH2 0x7A8 JUMP JUMPDEST PUSH2 0xAF3 DUP2 DUP6 PUSH2 0xACF JUMP JUMPDEST SWAP4 POP PUSH2 0xB03 DUP2 DUP6 PUSH1 0x20 DUP7 ADD PUSH2 0x7C2 JUMP JUMPDEST PUSH2 0xB0C DUP2 PUSH2 0x7D0 JUMP JUMPDEST DUP5 ADD SWAP2 POP POP SWAP3 SWAP2 POP POP JUMP JUMPDEST PUSH0 PUSH1 0x60 DUP3 ADD SWAP1 POP DUP2 DUP2 SUB PUSH0 DUP4 ADD MSTORE PUSH2 0xB2F DUP2 DUP7 PUSH2 0xADF JUMP JUMPDEST SWAP1 POP DUP2 DUP2 SUB PUSH1 0x20 DUP4 ADD MSTORE PUSH2 0xB43 DUP2 DUP6 PUSH2 0xADF JUMP JUMPDEST SWAP1 POP PUSH2 0xB52 PUSH1 0x40 DUP4 ADD DUP5 PUSH2 0x66C JUMP JUMPDEST SWAP5 SWAP4 POP POP POP POP JUMP JUMPDEST PUSH32 0x496E6469636520646520696E6963696F2066756572612064652072616E676F00 PUSH0 DUP3 ADD MSTORE POP JUMP JUMPDEST PUSH0 PUSH2 0xB8E PUSH1 0x1F DUP4 PUSH2 0xACF JUMP JUMPDEST SWAP2 POP PUSH2 0xB99 DUP3 PUSH2 0xB5A JUMP JUMPDEST PUSH1 0x20 DUP3 ADD SWAP1 POP SWAP2 SWAP1 POP JUMP JUMPDEST PUSH0 PUSH1 0x20 DUP3 ADD SWAP1 POP DUP2 DUP2 SUB PUSH0 DUP4 ADD MSTORE PUSH2 0xBBB DUP2 PUSH2 0xB82 JUMP JUMPDEST SWAP1 POP SWAP2 SWAP1 POP JUMP JUMPDEST PUSH32 0x4E487B7100000000000000000000000000000000000000000000000000000000 PUSH0 MSTORE PUSH1 0x11 PUSH1 0x4 MSTORE PUSH1 0x24 PUSH0 REVERT JUMPDEST PUSH0 PUSH2 0xBF9 DUP3 PUSH2 0x663 JUMP JUMPDEST SWAP2 POP PUSH2 0xC04 DUP4 PUSH2 0x663 JUMP JUMPDEST SWAP3 POP DUP3 DUP3 SUB SWAP1 POP DUP2 DUP2 GT ISZERO PUSH2 0xC1C JUMPI PUSH2 0xC1B PUSH2 0xBC2 JUMP JUMPDEST JUMPDEST SWAP3 SWAP2 POP POP JUMP JUMPDEST PUSH32 0x4E487B7100000000000000000000000000000000000000000000000000000000 PUSH0 MSTORE PUSH1 0x22 PUSH1 0x4 MSTORE PUSH1 0x24 PUSH0 REVERT JUMPDEST PUSH0 PUSH1 0x2 DUP3 DIV SWAP1 POP PUSH1 0x1 DUP3 AND DUP1 PUSH2 0xC66 JUMPI PUSH1 0x7F DUP3 AND SWAP2 POP JUMPDEST PUSH1 0x20 DUP3 LT DUP2 SUB PUSH2 0xC79 JUMPI PUSH2 0xC78 PUSH2 0xC22 JUMP JUMPDEST JUMPDEST POP SWAP2 SWAP1 POP JUMP JUMPDEST PUSH32 0x4E487B7100000000000000000000000000000000000000000000000000000000 PUSH0 MSTORE PUSH1 0x32 PUSH1 0x4 MSTORE PUSH1 0x24 PUSH0 REVERT JUMPDEST PUSH32 0x456C206D656E73616A6520737570657261206C61206C6F6E6769747564206D61 PUSH0 DUP3 ADD MSTORE PUSH32 0x78696D61207065726D6974696461000000000000000000000000000000000000 PUSH1 0x20 DUP3 ADD MSTORE POP JUMP JUMPDEST PUSH0 PUSH2 0xD06 PUSH1 0x2E DUP4 PUSH2 0xACF JUMP JUMPDEST SWAP2 POP PUSH2 0xD11 DUP3 PUSH2 0xCAC JUMP JUMPDEST PUSH1 0x40 DUP3 ADD SWAP1 POP SWAP2 SWAP1 POP JUMP JUMPDEST PUSH0 PUSH1 0x20 DUP3 ADD SWAP1 POP DUP2 DUP2 SUB PUSH0 DUP4 ADD MSTORE PUSH2 0xD33 DUP2 PUSH2 0xCFA JUMP JUMPDEST SWAP1 POP SWAP2 SWAP1 POP JUMP JUMPDEST PUSH0 DUP2 SWAP1 POP DUP2 PUSH0 MSTORE PUSH1 0x20 PUSH0 KECCAK256 SWAP1 POP SWAP2 SWAP1 POP JUMP JUMPDEST PUSH0 PUSH1 0x20 PUSH1 0x1F DUP4 ADD DIV SWAP1 POP SWAP2 SWAP1 POP JUMP JUMPDEST PUSH0 DUP3 DUP3 SHL SWAP1 POP SWAP3 SWAP2 POP POP JUMP JUMPDEST PUSH0 PUSH1 0x8 DUP4 MUL PUSH2 0xD96 PUSH32 0xFFFFFFFFFFFFFFFFFFFFFFFFFFFFFFFFFFFFFFFFFFFFFFFFFFFFFFFFFFFFFFFF DUP3 PUSH2 0xD5B JUMP JUMPDEST PUSH2 0xDA0 DUP7 DUP4 PUSH2 0xD5B JUMP JUMPDEST SWAP6 POP DUP1 NOT DUP5 AND SWAP4 POP DUP1 DUP7 AND DUP5 OR SWAP3 POP POP POP SWAP4 SWAP3 POP POP POP JUMP JUMPDEST PUSH0 DUP2 SWAP1 POP SWAP2 SWAP1 POP JUMP JUMPDEST PUSH0 PUSH2 0xDDB PUSH2 0xDD6 PUSH2 0xDD1 DUP5 PUSH2 0x663 JUMP JUMPDEST PUSH2 0xDB8 JUMP JUMPDEST PUSH2 0x663 JUMP JUMPDEST SWAP1 POP SWAP2 SWAP1 POP JUMP JUMPDEST PUSH0 DUP2 SWAP1 POP SWAP2 SWAP1 POP JUMP JUMPDEST PUSH2 0xDF4 DUP4 PUSH2 0xDC1 JUMP JUMPDEST PUSH2 0xE08 PUSH2 0xE00 DUP3 PUSH2 0xDE2 JUMP JUMPDEST DUP5 DUP5 SLOAD PUSH2 0xD67 JUMP JUMPDEST DUP3 SSTORE POP POP POP POP JUMP JUMPDEST PUSH0 SWAP1 JUMP JUMPDEST PUSH2 0xE1C PUSH2 0xE10 JUMP JUMPDEST PUSH2 0xE27 DUP2 DUP5 DUP5 PUSH2 0xDEB JUMP JUMPDEST POP POP POP JUMP JUMPDEST JUMPDEST DUP2 DUP2 LT ISZERO PUSH2 0xE4A JUMPI PUSH2 0xE3F PUSH0 DUP3 PUSH2 0xE14 JUMP JUMPDEST PUSH1 0x1 DUP2 ADD SWAP1 POP PUSH2 0xE2D JUMP JUMPDEST POP POP JUMP JUMPDEST PUSH1 0x1F DUP3 GT ISZERO PUSH2 0xE8F JUMPI PUSH2 0xE60 DUP2 PUSH2 0xD3A JUMP JUMPDEST PUSH2 0xE69 DUP5 PUSH2 0xD4C JUMP JUMPDEST DUP2 ADD PUSH1 0x20 DUP6 LT ISZERO PUSH2 0xE78 JUMPI DUP2 SWAP1 POP JUMPDEST PUSH2 0xE8C PUSH2 0xE84 DUP6 PUSH2 0xD4C JUMP JUMPDEST DUP4 ADD DUP3 PUSH2 0xE2C JUMP JUMPDEST POP POP JUMPDEST POP POP POP JUMP JUMPDEST PUSH0 DUP3 DUP3 SHR SWAP1 POP SWAP3 SWAP2 POP POP JUMP JUMPDEST PUSH0 PUSH2 0xEAF PUSH0 NOT DUP5 PUSH1 0x8 MUL PUSH2 0xE94 JUMP JUMPDEST NOT DUP1 DUP4 AND SWAP2 POP POP SWAP3 SWAP2 POP POP JUMP JUMPDEST PUSH0 PUSH2 0xEC7 DUP4 DUP4 PUSH2 0xEA0 JUMP JUMPDEST SWAP2 POP DUP3 PUSH1 0x2 MUL DUP3 OR SWAP1 POP SWAP3 SWAP2 POP POP JUMP JUMPDEST PUSH2 0xEE0 DUP3 PUSH2 0x7A8 JUMP JUMPDEST PUSH8 0xFFFFFFFFFFFFFFFF DUP2 GT ISZERO PUSH2 0xEF9 JUMPI PUSH2 0xEF8 PUSH2 0x935 JUMP JUMPDEST JUMPDEST PUSH2 0xF03 DUP3 SLOAD PUSH2 0xC4F JUMP JUMPDEST PUSH2 0xF0E DUP3 DUP3 DUP6 PUSH2 0xE4E JUMP JUMPDEST PUSH0 PUSH1 0x20 SWAP1 POP PUSH1 0x1F DUP4 GT PUSH1 0x1 DUP2 EQ PUSH2 0xF3F JUMPI PUSH0 DUP5 ISZERO PUSH2 0xF2D JUMPI DUP3 DUP8 ADD MLOAD SWAP1 POP JUMPDEST PUSH2 0xF37 DUP6 DUP3 PUSH2 0xEBC JUMP JUMPDEST DUP7 SSTORE POP PUSH2 0xF9E JUMP JUMPDEST PUSH1 0x1F NOT DUP5 AND PUSH2 0xF4D DUP7 PUSH2 0xD3A JUMP JUMPDEST PUSH0 JUMPDEST DUP3 DUP2 LT ISZERO PUSH2 0xF74 JUMPI DUP5 DUP10 ADD MLOAD DUP3 SSTORE PUSH1 0x1 DUP3 ADD SWAP2 POP PUSH1 0x20 DUP6 ADD SWAP5 POP PUSH1 0x20 DUP2 ADD SWAP1 POP PUSH2 0xF4F JUMP JUMPDEST DUP7 DUP4 LT ISZERO PUSH2 0xF91 JUMPI DUP5 DUP10 ADD MLOAD PUSH2 0xF8D PUSH1 0x1F DUP10 AND DUP3 PUSH2 0xEA0 JUMP JUMPDEST DUP4 SSTORE POP JUMPDEST PUSH1 0x1 PUSH1 0x2 DUP9 MUL ADD DUP9 SSTORE POP POP POP JUMPDEST POP POP POP POP POP POP JUMP JUMPDEST PUSH0 PUSH2 0xFB0 DUP3 PUSH2 0x663 JUMP JUMPDEST SWAP2 POP PUSH32 0xFFFFFFFFFFFFFFFFFFFFFFFFFFFFFFFFFFFFFFFFFFFFFFFFFFFFFFFFFFFFFFFF DUP3 SUB PUSH2 0xFE2 JUMPI PUSH2 0xFE1 PUSH2 0xBC2 JUMP JUMPDEST JUMPDEST PUSH1 0x1 DUP3 ADD SWAP1 POP SWAP2 SWAP1 POP JUMP JUMPDEST PUSH0 DUP2 SWAP1 POP SWAP3 SWAP2 POP POP JUMP JUMPDEST PUSH0 PUSH2 0x1001 DUP3 PUSH2 0x7A8 JUMP JUMPDEST PUSH2 0x100B DUP2 DUP6 PUSH2 0xFED JUMP JUMPDEST SWAP4 POP PUSH2 0x101B DUP2 DUP6 PUSH1 0x20 DUP7 ADD PUSH2 0x7C2 JUMP JUMPDEST DUP1 DUP5 ADD SWAP2 POP POP SWAP3 SWAP2 POP POP JUMP JUMPDEST PUSH0 PUSH2 0x1032 DUP3 DUP5 PUSH2 0xFF7 JUMP JUMPDEST SWAP2 POP DUP2 SWAP1 POP SWAP3 SWAP2 POP POP JUMP JUMPDEST PUSH0 PUSH1 0x40 DUP3 ADD SWAP1 POP DUP2 DUP2 SUB PUSH0 DUP4 ADD MSTORE PUSH2 0x1055 DUP2 DUP6 PUSH2 0xADF JUMP JUMPDEST SWAP1 POP PUSH2 0x1064 PUSH1 0x20 DUP4 ADD DUP5 PUSH2 0x66C JUMP JUMPDEST SWAP4 SWAP3 POP POP POP JUMP INVALID LOG2 PUSH5 0x6970667358 0x22 SLT KECCAK256 0xDE PUSH17 0x789FF7E866805F2C43D80B49A1466A7A7F ISZERO 0xC 0xDC BLOBBASEFEE CALLDATACOPY 0x2D INVALID 0x4E 0xDE PUSH5 0xCBB0C36473 PUSH16 0x6C634300081900330000000000000000 "
		},
		"gasEstimates": {
			"creation": {
				"codeDepositCost": "851400",
				"executionCost": "888",
				"totalCost": "852288"
			},
			"external": {
				"getTweet(uint256)": "infinite",
				"obtenerUltimoMensajeLeido()": "2541",
				"setTweet(string,string)": "infinite",
				"totalTweets()": "2403",
				"tweets(uint256)": "infinite",
				"ultimoMensajeLeido(address)": "2802"
			},
			"internal": {
				"actualizarUltimoMensajeLeido()": "infinite"
			}
		},
		"methodIdentifiers": {
			"getTweet(uint256)": "c3ad5ecb",
			"obtenerUltimoMensajeLeido()": "9236f609",
			"setTweet(string,string)": "de440e0e",
			"totalTweets()": "44802702",
			"tweets(uint256)": "e8d857b0",
			"ultimoMensajeLeido(address)": "7cd7fe02"
		}
	},
	"abi": [
		{
			"anonymous": false,
			"inputs": [
				{
					"indexed": true,
					"internalType": "string",
					"name": "username",
					"type": "string"
				},
				{
					"indexed": true,
					"internalType": "uint256",
					"name": "tweetId",
					"type": "uint256"
				},
				{
					"indexed": false,
					"internalType": "string",
					"name": "tweet",
					"type": "string"
				},
				{
					"indexed": false,
					"internalType": "uint256",
					"name": "timestamp",
					"type": "uint256"
				}
			],
			"name": "TweetPublicado",
			"type": "event"
		},
		{
			"inputs": [
				{
					"internalType": "uint256",
					"name": "_desdeIndice",
					"type": "uint256"
				}
			],
			"name": "getTweet",
			"outputs": [
				{
					"components": [
						{
							"internalType": "string",
							"name": "username",
							"type": "string"
						},
						{
							"internalType": "string",
							"name": "tweet",
							"type": "string"
						},
						{
							"internalType": "uint256",
							"name": "timestamp",
							"type": "uint256"
						}
					],
					"internalType": "struct TwitterTokio.Tweet[]",
					"name": "",
					"type": "tuple[]"
				}
			],
			"stateMutability": "view",
			"type": "function"
		},
		{
			"inputs": [],
			"name": "obtenerUltimoMensajeLeido",
			"outputs": [
				{
					"internalType": "uint256",
					"name": "",
					"type": "uint256"
				}
			],
			"stateMutability": "view",
			"type": "function"
		},
		{
			"inputs": [
				{
					"internalType": "string",
					"name": "_content",
					"type": "string"
				},
				{
					"internalType": "string",
					"name": "_username",
					"type": "string"
				}
			],
			"name": "setTweet",
			"outputs": [],
			"stateMutability": "nonpayable",
			"type": "function"
		},
		{
			"inputs": [],
			"name": "totalTweets",
			"outputs": [
				{
					"internalType": "uint256",
					"name": "",
					"type": "uint256"
				}
			],
			"stateMutability": "view",
			"type": "function"
		},
		{
			"inputs": [
				{
					"internalType": "uint256",
					"name": "",
					"type": "uint256"
				}
			],
			"name": "tweets",
			"outputs": [
				{
					"internalType": "string",
					"name": "username",
					"type": "string"
				},
				{
					"internalType": "string",
					"name": "tweet",
					"type": "string"
				},
				{
					"internalType": "uint256",
					"name": "timestamp",
					"type": "uint256"
				}
			],
			"stateMutability": "view",
			"type": "function"
		},
		{
			"inputs": [
				{
					"internalType": "address",
					"name": "",
					"type": "address"
				}
			],
			"name": "ultimoMensajeLeido",
			"outputs": [
				{
					"internalType": "uint256",
					"name": "",
					"type": "uint256"
				}
			],
			"stateMutability": "view",
			"type": "function"
		}
	]
}