{
  "contractName": "DecentralizedMessaging",
  "abi": [
    {
      "inputs": [
        {
          "internalType": "address",
          "name": "",
          "type": "address"
        }
      ],
      "name": "lastReadIndex",
      "outputs": [
        {
          "internalType": "uint256",
          "name": "",
          "type": "uint256"
        }
      ],
      "stateMutability": "view",
      "type": "function"
    },
    {
      "inputs": [
        {
          "internalType": "uint256",
          "name": "",
          "type": "uint256"
        }
      ],
      "name": "messages",
      "outputs": [
        {
          "internalType": "address",
          "name": "sender",
          "type": "address"
        },
        {
          "internalType": "string",
          "name": "content",
          "type": "string"
        },
        {
          "internalType": "uint256",
          "name": "timestamp",
          "type": "uint256"
        }
      ],
      "stateMutability": "view",
      "type": "function"
    },
    {
      "inputs": [
        {
          "internalType": "string",
          "name": "_content",
          "type": "string"
        }
      ],
      "name": "writeMessage",
      "outputs": [],
      "stateMutability": "nonpayable",
      "type": "function"
    },
    {
      "inputs": [
        {
          "internalType": "uint256",
          "name": "_startIndex",
          "type": "uint256"
        }
      ],
      "name": "readMessages",
      "outputs": [
        {
          "components": [
            {
              "internalType": "address",
              "name": "sender",
              "type": "address"
            },
            {
              "internalType": "string",
              "name": "content",
              "type": "string"
            },
            {
              "internalType": "uint256",
              "name": "timestamp",
              "type": "uint256"
            }
          ],
          "internalType": "struct DecentralizedMessaging.TweetMessage[]",
          "name": "",
          "type": "tuple[]"
        }
      ],
      "stateMutability": "nonpayable",
      "type": "function"
    },
    {
      "inputs": [],
      "name": "unreadMessages",
      "outputs": [
        {
          "components": [
            {
              "internalType": "address",
              "name": "sender",
              "type": "address"
            },
            {
              "internalType": "string",
              "name": "content",
              "type": "string"
            },
            {
              "internalType": "uint256",
              "name": "timestamp",
              "type": "uint256"
            }
          ],
          "internalType": "struct DecentralizedMessaging.TweetMessage[]",
          "name": "",
          "type": "tuple[]"
        }
      ],
      "stateMutability": "nonpayable",
      "type": "function"
    }
  ],
  "bytecode": "0x608060405234801561001057600080fd5b50611182806100206000396000f3fe608060405234801561001057600080fd5b50600436106100575760003560e01c80630d80fefd1461005c5780632a98e1f11461008e5780634847e35a146100be578063b588bfad146100dc578063fff3c457146100f8575b600080fd5b61007660048036038101906100719190610777565b610128565b60405161008593929190610884565b60405180910390f35b6100a860048036038101906100a391906108ee565b61020a565b6040516100b5919061091b565b60405180910390f35b6100c6610222565b6040516100d39190610ab0565b60405180910390f35b6100f660048036038101906100f19190610c07565b6102c6565b005b610112600480360381019061010d9190610777565b6103d4565b60405161011f9190610ab0565b60405180910390f35b6000818154811061013857600080fd5b90600052602060002090600302016000915090508060000160009054906101000a900473ffffffffffffffffffffffffffffffffffffffff169080600101805461018190610c7f565b80601f01602080910402602001604051908101604052809291908181526020018280546101ad90610c7f565b80156101fa5780601f106101cf576101008083540402835291602001916101fa565b820191906000526020600020905b8154815290600101906020018083116101dd57829003601f168201915b5050505050908060020154905083565b60016020528060005260406000206000915090505481565b60606000600160003373ffffffffffffffffffffffffffffffffffffffff1673ffffffffffffffffffffffffffffffffffffffff16815260200190815260200160002054905060008080549050905080600160003373ffffffffffffffffffffffffffffffffffffffff1673ffffffffffffffffffffffffffffffffffffffff168152602001908152602001600020819055506102bf82826104c4565b9250505090565b61012c8151111561030c576040517f08c379a000000000000000000000000000000000000000000000000000000000815260040161030390610cfc565b60405180910390fd5b600060405180606001604052803373ffffffffffffffffffffffffffffffffffffffff16815260200183815260200142815250908060018154018082558091505060019003906000526020600020906003020160009091909190915060008201518160000160006101000a81548173ffffffffffffffffffffffffffffffffffffffff021916908373ffffffffffffffffffffffffffffffffffffffff16021790555060208201518160010190816103c49190610ec8565b5060408201518160020155505050565b6060600080549050821061041d576040517f08c379a000000000000000000000000000000000000000000000000000000000815260040161041490610fe6565b60405180910390fd5b60008080549050905080600160003373ffffffffffffffffffffffffffffffffffffffff1673ffffffffffffffffffffffffffffffffffffffff1681526020019081526020016000205410156104b25780600160003373ffffffffffffffffffffffffffffffffffffffff1673ffffffffffffffffffffffffffffffffffffffff168152602001908152602001600020819055505b6104bc83826104c4565b915050919050565b606081831080156104da57506000805490508211155b610519576040517f08c379a000000000000000000000000000000000000000000000000000000000815260040161051090611052565b60405180910390fd5b6000838361052791906110a1565b905060008167ffffffffffffffff81111561054557610544610adc565b5b60405190808252806020026020018201604052801561057e57816020015b61056b6106f6565b8152602001906001900390816105635790505b50905060008590505b848110156106ea57600081815481106105a3576105a26110d5565b5b90600052602060002090600302016040518060600160405290816000820160009054906101000a900473ffffffffffffffffffffffffffffffffffffffff1673ffffffffffffffffffffffffffffffffffffffff1673ffffffffffffffffffffffffffffffffffffffff16815260200160018201805461062290610c7f565b80601f016020809104026020016040519081016040528092919081815260200182805461064e90610c7f565b801561069b5780601f106106705761010080835404028352916020019161069b565b820191906000526020600020905b81548152906001019060200180831161067e57829003601f168201915b505050505081526020016002820154815250508287836106bb91906110a1565b815181106106cc576106cb6110d5565b5b602002602001018190525080806106e290611104565b915050610587565b50809250505092915050565b6040518060600160405280600073ffffffffffffffffffffffffffffffffffffffff16815260200160608152602001600081525090565b6000604051905090565b600080fd5b600080fd5b6000819050919050565b61075481610741565b811461075f57600080fd5b50565b6000813590506107718161074b565b92915050565b60006020828403121561078d5761078c610737565b5b600061079b84828501610762565b91505092915050565b600073ffffffffffffffffffffffffffffffffffffffff82169050919050565b60006107cf826107a4565b9050919050565b6107df816107c4565b82525050565b600081519050919050565b600082825260208201905092915050565b60005b8381101561081f578082015181840152602081019050610804565b60008484015250505050565b6000601f19601f8301169050919050565b6000610847826107e5565b61085181856107f0565b9350610861818560208601610801565b61086a8161082b565b840191505092915050565b61087e81610741565b82525050565b600060608201905061089960008301866107d6565b81810360208301526108ab818561083c565b90506108ba6040830184610875565b949350505050565b6108cb816107c4565b81146108d657600080fd5b50565b6000813590506108e8816108c2565b92915050565b60006020828403121561090457610903610737565b5b6000610912848285016108d9565b91505092915050565b60006020820190506109306000830184610875565b92915050565b600081519050919050565b600082825260208201905092915050565b6000819050602082019050919050565b61096b816107c4565b82525050565b600082825260208201905092915050565b600061098d826107e5565b6109978185610971565b93506109a7818560208601610801565b6109b08161082b565b840191505092915050565b6109c481610741565b82525050565b60006060830160008301516109e26000860182610962565b50602083015184820360208601526109fa8282610982565b9150506040830151610a0f60408601826109bb565b508091505092915050565b6000610a2683836109ca565b905092915050565b6000602082019050919050565b6000610a4682610936565b610a508185610941565b935083602082028501610a6285610952565b8060005b85811015610a9e5784840389528151610a7f8582610a1a565b9450610a8a83610a2e565b925060208a01995050600181019050610a66565b50829750879550505050505092915050565b60006020820190508181036000830152610aca8184610a3b565b905092915050565b600080fd5b600080fd5b7f4e487b7100000000000000000000000000000000000000000000000000000000600052604160045260246000fd5b610b148261082b565b810181811067ffffffffffffffff82111715610b3357610b32610adc565b5b80604052505050565b6000610b4661072d565b9050610b528282610b0b565b919050565b600067ffffffffffffffff821115610b7257610b71610adc565b5b610b7b8261082b565b9050602081019050919050565b82818337600083830152505050565b6000610baa610ba584610b57565b610b3c565b905082815260208101848484011115610bc657610bc5610ad7565b5b610bd1848285610b88565b509392505050565b600082601f830112610bee57610bed610ad2565b5b8135610bfe848260208601610b97565b91505092915050565b600060208284031215610c1d57610c1c610737565b5b600082013567ffffffffffffffff811115610c3b57610c3a61073c565b5b610c4784828501610bd9565b91505092915050565b7f4e487b7100000000000000000000000000000000000000000000000000000000600052602260045260246000fd5b60006002820490506001821680610c9757607f821691505b602082108103610caa57610ca9610c50565b5b50919050565b7f4d6573736167652065786365656473206d6178696d756d206c656e6774680000600082015250565b6000610ce6601e836107f0565b9150610cf182610cb0565b602082019050919050565b60006020820190508181036000830152610d1581610cd9565b9050919050565b60008190508160005260206000209050919050565b60006020601f8301049050919050565b600082821b905092915050565b600060088302610d7e7fffffffffffffffffffffffffffffffffffffffffffffffffffffffffffffffff82610d41565b610d888683610d41565b95508019841693508086168417925050509392505050565b6000819050919050565b6000610dc5610dc0610dbb84610741565b610da0565b610741565b9050919050565b6000819050919050565b610ddf83610daa565b610df3610deb82610dcc565b848454610d4e565b825550505050565b600090565b610e08610dfb565b610e13818484610dd6565b505050565b5b81811015610e3757610e2c600082610e00565b600181019050610e19565b5050565b601f821115610e7c57610e4d81610d1c565b610e5684610d31565b81016020851015610e65578190505b610e79610e7185610d31565b830182610e18565b50505b505050565b600082821c905092915050565b6000610e9f60001984600802610e81565b1980831691505092915050565b6000610eb88383610e8e565b9150826002028217905092915050565b610ed1826107e5565b67ffffffffffffffff811115610eea57610ee9610adc565b5b610ef48254610c7f565b610eff828285610e3b565b600060209050601f831160018114610f325760008415610f20578287015190505b610f2a8582610eac565b865550610f92565b601f198416610f4086610d1c565b60005b82811015610f6857848901518255600182019150602085019450602081019050610f43565b86831015610f855784890151610f81601f891682610e8e565b8355505b6001600288020188555050505b505050505050565b7f537461727420696e646578206f7574206f6620626f756e647300000000000000600082015250565b6000610fd06019836107f0565b9150610fdb82610f9a565b602082019050919050565b60006020820190508181036000830152610fff81610fc3565b9050919050565b7f496e76616c69642072616e676500000000000000000000000000000000000000600082015250565b600061103c600d836107f0565b915061104782611006565b602082019050919050565b6000602082019050818103600083015261106b8161102f565b9050919050565b7f4e487b7100000000000000000000000000000000000000000000000000000000600052601160045260246000fd5b60006110ac82610741565b91506110b783610741565b92508282039050818111156110cf576110ce611072565b5b92915050565b7f4e487b7100000000000000000000000000000000000000000000000000000000600052603260045260246000fd5b600061110f82610741565b91507fffffffffffffffffffffffffffffffffffffffffffffffffffffffffffffffff820361114157611140611072565b5b60018201905091905056fea264697066735822122057bfb1c978c39f319238fb23078b417b615402fd51f58870b5ec8c44f1508ddb64736f6c63430008130033",
  "immutableReferences": {},
  "source": "// SPDX-License-Identifier: MIT\npragma solidity >=0.8.2 <0.9.0;\n\n/**\n * @title TwitterTokio\n * @dev Store & get tweets using struct\n */\ncontract DecentralizedMessaging {\n    struct TweetMessage {\n        address sender;\n        string content;\n        uint256 timestamp;\n    }\n    \n    TweetMessage[] public messages;\n    mapping(address => uint256) public lastReadIndex;\n\n    function writeMessage(string memory _content) public {\n        require(bytes(_content).length <= 300, \"Message exceeds maximum length\");\n        messages.push(TweetMessage(msg.sender, _content, block.timestamp));\n    }\n\n    function readMessages(uint256 _startIndex) public returns (TweetMessage[] memory) {\n        require(_startIndex < messages.length, \"Start index out of bounds\");\n        uint256 endIndex = messages.length;\n        if (lastReadIndex[msg.sender] < endIndex) {\n            lastReadIndex[msg.sender] = endIndex;\n        }\n        return getMessagesInRange(_startIndex, endIndex);\n    }\n\n    function unreadMessages() public returns (TweetMessage[] memory) {\n        uint256 startIndex = lastReadIndex[msg.sender];\n        uint256 endIndex = messages.length;\n        lastReadIndex[msg.sender] = endIndex;\n        return getMessagesInRange(startIndex, endIndex);\n    }\n\n    function getMessagesInRange(uint256 _startIndex, uint256 _endIndex) private view returns (TweetMessage[] memory) {\n        require(_startIndex < _endIndex && _endIndex <= messages.length, \"Invalid range\");\n        uint256 numMessages = _endIndex - _startIndex;\n        TweetMessage[] memory result = new TweetMessage[](numMessages);\n        for (uint256 i = _startIndex; i < _endIndex; i++) {\n            result[i - _startIndex] = messages[i];\n        }\n        return result;\n    }\n}\n",
  "sourcePath": "/Users/davidmontoyaruiz/Desktop/GIT/TokioSchool/SC-Tokio-0/contracts/1_Tokio2_Twitter.sol",
  "compiler": {
    "name": "solc",
    "version": "0.8.19+commit.7dd6d404.Emscripten.clang"
  },
  "schemaVersion": "3.4.16",
  "updatedAt": "2024-04-28T13:56:38.584Z",
  "devdoc": {
    "details": "Store & get tweets using struct",
    "kind": "dev",
    "methods": {},
    "title": "TwitterTokio",
    "version": 1
  },
  "userdoc": {
    "kind": "user",
    "methods": {},
    "version": 1
  }
}