{
  "contractName": "TwitterTokio",
  "abi": [
    {
      "anonymous": false,
      "inputs": [
        {
          "indexed": true,
          "internalType": "string",
          "name": "username",
          "type": "string"
        },
        {
          "indexed": true,
          "internalType": "uint256",
          "name": "tweetId",
          "type": "uint256"
        },
        {
          "indexed": false,
          "internalType": "string",
          "name": "tweet",
          "type": "string"
        },
        {
          "indexed": false,
          "internalType": "uint256",
          "name": "timestamp",
          "type": "uint256"
        }
      ],
      "name": "TweetPublished",
      "type": "event"
    },
    {
      "inputs": [],
      "name": "totalTweets",
      "outputs": [
        {
          "internalType": "uint256",
          "name": "",
          "type": "uint256"
        }
      ],
      "stateMutability": "view",
      "type": "function",
      "constant": true
    },
    {
      "inputs": [
        {
          "internalType": "string",
          "name": "_tweetContent",
          "type": "string"
        },
        {
          "internalType": "string",
          "name": "_username",
          "type": "string"
        }
      ],
      "name": "setTweet",
      "outputs": [],
      "stateMutability": "nonpayable",
      "type": "function"
    },
    {
      "inputs": [
        {
          "internalType": "uint256",
          "name": "_startIndex",
          "type": "uint256"
        }
      ],
      "name": "getTweet",
      "outputs": [
        {
          "components": [
            {
              "internalType": "string",
              "name": "username",
              "type": "string"
            },
            {
              "internalType": "string",
              "name": "tweet",
              "type": "string"
            },
            {
              "internalType": "uint256",
              "name": "timestamp",
              "type": "uint256"
            }
          ],
          "internalType": "struct TwitterTokio.Tweet[]",
          "name": "",
          "type": "tuple[]"
        }
      ],
      "stateMutability": "view",
      "type": "function",
      "constant": true
    },
    {
      "inputs": [],
      "name": "unreadMessages",
      "outputs": [
        {
          "components": [
            {
              "internalType": "string",
              "name": "username",
              "type": "string"
            },
            {
              "internalType": "string",
              "name": "tweet",
              "type": "string"
            },
            {
              "internalType": "uint256",
              "name": "timestamp",
              "type": "uint256"
            }
          ],
          "internalType": "struct TwitterTokio.Tweet[]",
          "name": "",
          "type": "tuple[]"
        }
      ],
      "stateMutability": "nonpayable",
      "type": "function"
    }
  ],
  "bytecode": "0x608060405234801561001057600080fd5b506111c4806100206000396000f3fe608060405234801561001057600080fd5b506004361061004c5760003560e01c806344802702146100515780634847e35a1461006f578063c3ad5ecb1461008d578063de440e0e146100bd575b600080fd5b6100596100d9565b6040516100669190610790565b60405180910390f35b6100776100df565b6040516100849190610963565b60405180910390f35b6100a760048036038101906100a291906109c5565b610181565b6040516100b49190610963565b60405180910390f35b6100d760048036038101906100d29190610b27565b6103d4565b005b60015481565b60606000600260003373ffffffffffffffffffffffffffffffffffffffff1673ffffffffffffffffffffffffffffffffffffffff1681526020019081526020016000205490506000600154905080600260003373ffffffffffffffffffffffffffffffffffffffff1673ffffffffffffffffffffffffffffffffffffffff1681526020019081526020016000208190555061017a82826104fb565b9250505090565b60606001548211156101c8576040517f08c379a00000000000000000000000000000000000000000000000000000000081526004016101bf90610bfc565b60405180910390fd5b6000826001546101d89190610c4b565b905060008167ffffffffffffffff8111156101f6576101f56109fc565b5b60405190808252806020026020018201604052801561022f57816020015b61021c610756565b8152602001906001900390816102145790505b50905060008490505b6001548110156103c95760008082815260200190815260200160002060405180606001604052908160008201805461026f90610cae565b80601f016020809104026020016040519081016040528092919081815260200182805461029b90610cae565b80156102e85780601f106102bd576101008083540402835291602001916102e8565b820191906000526020600020905b8154815290600101906020018083116102cb57829003601f168201915b5050505050815260200160018201805461030190610cae565b80601f016020809104026020016040519081016040528092919081815260200182805461032d90610cae565b801561037a5780601f1061034f5761010080835404028352916020019161037a565b820191906000526020600020905b81548152906001019060200180831161035d57829003601f168201915b5050505050815260200160028201548152505082868361039a9190610c4b565b815181106103ab576103aa610cdf565b5b602002602001018190525080806103c190610d0e565b915050610238565b508092505050919050565b61012c8251111561041a576040517f08c379a000000000000000000000000000000000000000000000000000000000815260040161041190610dc8565b60405180910390fd5b6040518060600160405280828152602001838152602001428152506000806001548152602001908152602001600020600082015181600001908161045e9190610f94565b5060208201518160010190816104749190610f94565b50604082015181600201559050506001600081548092919061049590610d0e565b9190505550600180546104a89190610c4b565b816040516104b691906110a2565b60405180910390207f8eed20624ab7dd7268daa6258d774554c67a144b8dd33c14b38e9da7ba0e548984426040516104ef9291906110f2565b60405180910390a35050565b6060818310801561050e57506001548211155b61054d576040517f08c379a00000000000000000000000000000000000000000000000000000000081526004016105449061116e565b60405180910390fd5b6000838361055b9190610c4b565b905060008167ffffffffffffffff811115610579576105786109fc565b5b6040519080825280602002602001820160405280156105b257816020015b61059f610756565b8152602001906001900390816105975790505b50905060008590505b8481101561074a576000808281526020019081526020016000206040518060600160405290816000820180546105f090610cae565b80601f016020809104026020016040519081016040528092919081815260200182805461061c90610cae565b80156106695780601f1061063e57610100808354040283529160200191610669565b820191906000526020600020905b81548152906001019060200180831161064c57829003601f168201915b5050505050815260200160018201805461068290610cae565b80601f01602080910402602001604051908101604052809291908181526020018280546106ae90610cae565b80156106fb5780601f106106d0576101008083540402835291602001916106fb565b820191906000526020600020905b8154815290600101906020018083116106de57829003601f168201915b5050505050815260200160028201548152505082878361071b9190610c4b565b8151811061072c5761072b610cdf565b5b6020026020010181905250808061074290610d0e565b9150506105bb565b50809250505092915050565b60405180606001604052806060815260200160608152602001600081525090565b6000819050919050565b61078a81610777565b82525050565b60006020820190506107a56000830184610781565b92915050565b600081519050919050565b600082825260208201905092915050565b6000819050602082019050919050565b600081519050919050565b600082825260208201905092915050565b60005b838110156108115780820151818401526020810190506107f6565b60008484015250505050565b6000601f19601f8301169050919050565b6000610839826107d7565b61084381856107e2565b93506108538185602086016107f3565b61085c8161081d565b840191505092915050565b61087081610777565b82525050565b60006060830160008301518482036000860152610893828261082e565b915050602083015184820360208601526108ad828261082e565b91505060408301516108c26040860182610867565b508091505092915050565b60006108d98383610876565b905092915050565b6000602082019050919050565b60006108f9826107ab565b61090381856107b6565b935083602082028501610915856107c7565b8060005b85811015610951578484038952815161093285826108cd565b945061093d836108e1565b925060208a01995050600181019050610919565b50829750879550505050505092915050565b6000602082019050818103600083015261097d81846108ee565b905092915050565b6000604051905090565b600080fd5b600080fd5b6109a281610777565b81146109ad57600080fd5b50565b6000813590506109bf81610999565b92915050565b6000602082840312156109db576109da61098f565b5b60006109e9848285016109b0565b91505092915050565b600080fd5b600080fd5b7f4e487b7100000000000000000000000000000000000000000000000000000000600052604160045260246000fd5b610a348261081d565b810181811067ffffffffffffffff82111715610a5357610a526109fc565b5b80604052505050565b6000610a66610985565b9050610a728282610a2b565b919050565b600067ffffffffffffffff821115610a9257610a916109fc565b5b610a9b8261081d565b9050602081019050919050565b82818337600083830152505050565b6000610aca610ac584610a77565b610a5c565b905082815260208101848484011115610ae657610ae56109f7565b5b610af1848285610aa8565b509392505050565b600082601f830112610b0e57610b0d6109f2565b5b8135610b1e848260208601610ab7565b91505092915050565b60008060408385031215610b3e57610b3d61098f565b5b600083013567ffffffffffffffff811115610b5c57610b5b610994565b5b610b6885828601610af9565b925050602083013567ffffffffffffffff811115610b8957610b88610994565b5b610b9585828601610af9565b9150509250929050565b600082825260208201905092915050565b7f537461727420696e646578206f7574206f662072616e67650000000000000000600082015250565b6000610be6601883610b9f565b9150610bf182610bb0565b602082019050919050565b60006020820190508181036000830152610c1581610bd9565b9050919050565b7f4e487b7100000000000000000000000000000000000000000000000000000000600052601160045260246000fd5b6000610c5682610777565b9150610c6183610777565b9250828203905081811115610c7957610c78610c1c565b5b92915050565b7f4e487b7100000000000000000000000000000000000000000000000000000000600052602260045260246000fd5b60006002820490506001821680610cc657607f821691505b602082108103610cd957610cd8610c7f565b5b50919050565b7f4e487b7100000000000000000000000000000000000000000000000000000000600052603260045260246000fd5b6000610d1982610777565b91507fffffffffffffffffffffffffffffffffffffffffffffffffffffffffffffffff8203610d4b57610d4a610c1c565b5b600182019050919050565b7f547765657420636f6e74656e742065786365656473206d6178696d756d206c6560008201527f6e67746800000000000000000000000000000000000000000000000000000000602082015250565b6000610db2602483610b9f565b9150610dbd82610d56565b604082019050919050565b60006020820190508181036000830152610de181610da5565b9050919050565b60008190508160005260206000209050919050565b60006020601f8301049050919050565b600082821b905092915050565b600060088302610e4a7fffffffffffffffffffffffffffffffffffffffffffffffffffffffffffffffff82610e0d565b610e548683610e0d565b95508019841693508086168417925050509392505050565b6000819050919050565b6000610e91610e8c610e8784610777565b610e6c565b610777565b9050919050565b6000819050919050565b610eab83610e76565b610ebf610eb782610e98565b848454610e1a565b825550505050565b600090565b610ed4610ec7565b610edf818484610ea2565b505050565b5b81811015610f0357610ef8600082610ecc565b600181019050610ee5565b5050565b601f821115610f4857610f1981610de8565b610f2284610dfd565b81016020851015610f31578190505b610f45610f3d85610dfd565b830182610ee4565b50505b505050565b600082821c905092915050565b6000610f6b60001984600802610f4d565b1980831691505092915050565b6000610f848383610f5a565b9150826002028217905092915050565b610f9d826107d7565b67ffffffffffffffff811115610fb657610fb56109fc565b5b610fc08254610cae565b610fcb828285610f07565b600060209050601f831160018114610ffe5760008415610fec578287015190505b610ff68582610f78565b86555061105e565b601f19841661100c86610de8565b60005b828110156110345784890151825560018201915060208501945060208101905061100f565b86831015611051578489015161104d601f891682610f5a565b8355505b6001600288020188555050505b505050505050565b600081905092915050565b600061107c826107d7565b6110868185611066565b93506110968185602086016107f3565b80840191505092915050565b60006110ae8284611071565b915081905092915050565b60006110c4826107d7565b6110ce8185610b9f565b93506110de8185602086016107f3565b6110e78161081d565b840191505092915050565b6000604082019050818103600083015261110c81856110b9565b905061111b6020830184610781565b9392505050565b7f496e76616c69642072616e676500000000000000000000000000000000000000600082015250565b6000611158600d83610b9f565b915061116382611122565b602082019050919050565b600060208201905081810360008301526111878161114b565b905091905056fea26469706673582212201b45c47f81e7309baf7e075450c1b4adf04a973d2479e6c45dc4120a67f3e85464736f6c63430008130033",
  "immutableReferences": {},
  "source": "// SPDX-License-Identifier: MIT\npragma solidity >= 0.8.1 <0.9.0;\n\n/**\n * @title TwitterTokio\n * @dev Store & get tweets using struct\n */\ncontract TwitterTokio {\n\n    // Define the Tweet struct to represent individual tweets\n    struct Tweet {\n        string username;\n        string tweet;\n        uint timestamp;\n    }\n\n    // Mapping to store tweets by their IDs\n    mapping(uint256 => Tweet) private tweets;\n\n    // Variable to keep track of the total number of tweets\n    uint256 public totalTweets;\n    \n    // Mapping to track the last read message index for each user\n    mapping(address => uint256) private lastReadMessageIndex;\n    \n    // Event emitted when a new tweet is published\n    event TweetPublished(string indexed username, uint256 indexed tweetId, string tweet, uint256 timestamp);\n\n    function setTweet(string memory _tweetContent, string memory _username) public {\n        // Validate the content of the message not exceed 300 characters\n        require(bytes(_tweetContent).length <= 300, \"Tweet content exceeds maximum length\");\n        \n        // Create a new Tweet with the provided username, tweet content, and current timestamp\n        tweets[totalTweets] = Tweet(_username, _tweetContent, block.timestamp);\n        // Increment the total number of tweets\n        totalTweets++;\n\n        // Emit an event to signal the publication of the new tweet\n        emit TweetPublished(_username, totalTweets - 1, _tweetContent, block.timestamp);\n    }\n\n   \n    function getTweet(uint256 _startIndex) public view returns (Tweet[] memory) {\n        // Validate the startIndex is not out of range (total of Messages in the struct Tweet)\n        require(_startIndex <= totalTweets, \"Start index out of range\");\n\n        // Calculate the number of unread tweets based on the start index\n        uint256 numUnreadTweets = totalTweets - _startIndex;\n        // Create a list and populate it with unread tweets\n        Tweet[] memory tweetList = new Tweet[](numUnreadTweets);\n        for (uint256 i = _startIndex; i < totalTweets; i++) {\n            tweetList[i - _startIndex] = tweets[i];\n        }\n        \n        return tweetList;\n    }\n\n    function unreadMessages() public returns (Tweet[] memory) {\n        // Retrieve the index of the last read message for the current user\n        uint256 startIndex = lastReadMessageIndex[msg.sender]; \n        // Set the end index to the total number of tweets\n        uint256 endIndex = totalTweets; \n        // Update the last read message index for the current user to the end index\n        lastReadMessageIndex[msg.sender] = endIndex;\n        // Retrieve and return unread messages between the start and end index\n        return getLastUnreadMessage(startIndex, endIndex); \n    }\n\n    function getLastUnreadMessage(uint256 _startIndex, uint256 _endIndex) private view returns (Tweet[] memory) {\n        //// Ensure that the range of indices is valid\n        require(_startIndex < _endIndex && _endIndex <= totalTweets, \"Invalid range\");\n        \n        // Calculate the number of messages within the specified range\n        uint256 numMessages = _endIndex - _startIndex;\n\n        // Initialize an array to store the retrieved messages\n        Tweet[] memory result = new Tweet[](numMessages);\n        for (uint256 i = _startIndex; i < _endIndex; i++) {\n            // Populate the array with messages from the specified range\n            result[i - _startIndex] = tweets[i];\n        }\n        return result;\n    }\n\n}\n\n",
  "sourcePath": "/Users/davidmontoyaruiz/Desktop/GIT/TokioSchool/SC-Tokio-0/contracts/1_Tokio1_Twitter.sol",
  "compiler": {
    "name": "solc",
    "version": "0.8.19+commit.7dd6d404.Emscripten.clang"
  },
  "schemaVersion": "3.4.16",
  "updatedAt": "2024-04-30T15:21:06.171Z",
  "networkType": "ethereum",
  "devdoc": {
    "details": "Store & get tweets using struct",
    "kind": "dev",
    "methods": {},
    "title": "TwitterTokio",
    "version": 1
  },
  "userdoc": {
    "kind": "user",
    "methods": {},
    "version": 1
  }
}